{
	"TestErc721a.sol": {
		"TestPmc": {
			"abi": [
				{
					"inputs": [],
					"stateMutability": "nonpayable",
					"type": "constructor"
				},
				{
					"inputs": [],
					"name": "ApprovalCallerNotOwnerNorApproved",
					"type": "error"
				},
				{
					"inputs": [],
					"name": "ApprovalQueryForNonexistentToken",
					"type": "error"
				},
				{
					"inputs": [],
					"name": "ApprovalToCurrentOwner",
					"type": "error"
				},
				{
					"inputs": [],
					"name": "ApproveToCaller",
					"type": "error"
				},
				{
					"inputs": [],
					"name": "BalanceQueryForZeroAddress",
					"type": "error"
				},
				{
					"inputs": [],
					"name": "MintToZeroAddress",
					"type": "error"
				},
				{
					"inputs": [],
					"name": "MintZeroQuantity",
					"type": "error"
				},
				{
					"inputs": [],
					"name": "OwnerQueryForNonexistentToken",
					"type": "error"
				},
				{
					"inputs": [],
					"name": "TransferCallerNotOwnerNorApproved",
					"type": "error"
				},
				{
					"inputs": [],
					"name": "TransferFromIncorrectOwner",
					"type": "error"
				},
				{
					"inputs": [],
					"name": "TransferToNonERC721ReceiverImplementer",
					"type": "error"
				},
				{
					"inputs": [],
					"name": "TransferToZeroAddress",
					"type": "error"
				},
				{
					"inputs": [],
					"name": "URIQueryForNonexistentToken",
					"type": "error"
				},
				{
					"anonymous": false,
					"inputs": [
						{
							"indexed": true,
							"internalType": "address",
							"name": "owner",
							"type": "address"
						},
						{
							"indexed": true,
							"internalType": "address",
							"name": "approved",
							"type": "address"
						},
						{
							"indexed": true,
							"internalType": "uint256",
							"name": "tokenId",
							"type": "uint256"
						}
					],
					"name": "Approval",
					"type": "event"
				},
				{
					"anonymous": false,
					"inputs": [
						{
							"indexed": true,
							"internalType": "address",
							"name": "owner",
							"type": "address"
						},
						{
							"indexed": true,
							"internalType": "address",
							"name": "operator",
							"type": "address"
						},
						{
							"indexed": false,
							"internalType": "bool",
							"name": "approved",
							"type": "bool"
						}
					],
					"name": "ApprovalForAll",
					"type": "event"
				},
				{
					"anonymous": false,
					"inputs": [
						{
							"indexed": true,
							"internalType": "address",
							"name": "from",
							"type": "address"
						},
						{
							"indexed": true,
							"internalType": "address",
							"name": "to",
							"type": "address"
						},
						{
							"indexed": true,
							"internalType": "uint256",
							"name": "tokenId",
							"type": "uint256"
						}
					],
					"name": "Transfer",
					"type": "event"
				},
				{
					"inputs": [
						{
							"internalType": "address",
							"name": "to",
							"type": "address"
						},
						{
							"internalType": "uint256",
							"name": "tokenId",
							"type": "uint256"
						}
					],
					"name": "approve",
					"outputs": [],
					"stateMutability": "nonpayable",
					"type": "function"
				},
				{
					"inputs": [
						{
							"internalType": "address",
							"name": "owner",
							"type": "address"
						}
					],
					"name": "balanceOf",
					"outputs": [
						{
							"internalType": "uint256",
							"name": "",
							"type": "uint256"
						}
					],
					"stateMutability": "view",
					"type": "function"
				},
				{
					"inputs": [
						{
							"internalType": "uint256",
							"name": "tokenId",
							"type": "uint256"
						}
					],
					"name": "getApproved",
					"outputs": [
						{
							"internalType": "address",
							"name": "",
							"type": "address"
						}
					],
					"stateMutability": "view",
					"type": "function"
				},
				{
					"inputs": [
						{
							"internalType": "address",
							"name": "owner",
							"type": "address"
						},
						{
							"internalType": "address",
							"name": "operator",
							"type": "address"
						}
					],
					"name": "isApprovedForAll",
					"outputs": [
						{
							"internalType": "bool",
							"name": "",
							"type": "bool"
						}
					],
					"stateMutability": "view",
					"type": "function"
				},
				{
					"inputs": [
						{
							"internalType": "uint256",
							"name": "quantity",
							"type": "uint256"
						}
					],
					"name": "mint",
					"outputs": [],
					"stateMutability": "payable",
					"type": "function"
				},
				{
					"inputs": [],
					"name": "name",
					"outputs": [
						{
							"internalType": "string",
							"name": "",
							"type": "string"
						}
					],
					"stateMutability": "view",
					"type": "function"
				},
				{
					"inputs": [
						{
							"internalType": "uint256",
							"name": "tokenId",
							"type": "uint256"
						}
					],
					"name": "ownerOf",
					"outputs": [
						{
							"internalType": "address",
							"name": "",
							"type": "address"
						}
					],
					"stateMutability": "view",
					"type": "function"
				},
				{
					"inputs": [
						{
							"internalType": "address",
							"name": "from",
							"type": "address"
						},
						{
							"internalType": "address",
							"name": "to",
							"type": "address"
						},
						{
							"internalType": "uint256",
							"name": "tokenId",
							"type": "uint256"
						}
					],
					"name": "safeTransferFrom",
					"outputs": [],
					"stateMutability": "nonpayable",
					"type": "function"
				},
				{
					"inputs": [
						{
							"internalType": "address",
							"name": "from",
							"type": "address"
						},
						{
							"internalType": "address",
							"name": "to",
							"type": "address"
						},
						{
							"internalType": "uint256",
							"name": "tokenId",
							"type": "uint256"
						},
						{
							"internalType": "bytes",
							"name": "_data",
							"type": "bytes"
						}
					],
					"name": "safeTransferFrom",
					"outputs": [],
					"stateMutability": "nonpayable",
					"type": "function"
				},
				{
					"inputs": [
						{
							"internalType": "address",
							"name": "operator",
							"type": "address"
						},
						{
							"internalType": "bool",
							"name": "approved",
							"type": "bool"
						}
					],
					"name": "setApprovalForAll",
					"outputs": [],
					"stateMutability": "nonpayable",
					"type": "function"
				},
				{
					"inputs": [
						{
							"internalType": "bytes4",
							"name": "interfaceId",
							"type": "bytes4"
						}
					],
					"name": "supportsInterface",
					"outputs": [
						{
							"internalType": "bool",
							"name": "",
							"type": "bool"
						}
					],
					"stateMutability": "view",
					"type": "function"
				},
				{
					"inputs": [],
					"name": "symbol",
					"outputs": [
						{
							"internalType": "string",
							"name": "",
							"type": "string"
						}
					],
					"stateMutability": "view",
					"type": "function"
				},
				{
					"inputs": [
						{
							"internalType": "uint256",
							"name": "tokenId",
							"type": "uint256"
						}
					],
					"name": "tokenURI",
					"outputs": [
						{
							"internalType": "string",
							"name": "",
							"type": "string"
						}
					],
					"stateMutability": "view",
					"type": "function"
				},
				{
					"inputs": [],
					"name": "totalSupply",
					"outputs": [
						{
							"internalType": "uint256",
							"name": "",
							"type": "uint256"
						}
					],
					"stateMutability": "view",
					"type": "function"
				},
				{
					"inputs": [
						{
							"internalType": "address",
							"name": "from",
							"type": "address"
						},
						{
							"internalType": "address",
							"name": "to",
							"type": "address"
						},
						{
							"internalType": "uint256",
							"name": "tokenId",
							"type": "uint256"
						}
					],
					"name": "transferFrom",
					"outputs": [],
					"stateMutability": "nonpayable",
					"type": "function"
				}
			],
			"devdoc": {
				"kind": "dev",
				"methods": {
					"approve(address,uint256)": {
						"details": "See {IERC721-approve}."
					},
					"balanceOf(address)": {
						"details": "See {IERC721-balanceOf}."
					},
					"getApproved(uint256)": {
						"details": "See {IERC721-getApproved}."
					},
					"isApprovedForAll(address,address)": {
						"details": "See {IERC721-isApprovedForAll}."
					},
					"name()": {
						"details": "See {IERC721Metadata-name}."
					},
					"ownerOf(uint256)": {
						"details": "See {IERC721-ownerOf}."
					},
					"safeTransferFrom(address,address,uint256)": {
						"details": "See {IERC721-safeTransferFrom}."
					},
					"safeTransferFrom(address,address,uint256,bytes)": {
						"details": "See {IERC721-safeTransferFrom}."
					},
					"setApprovalForAll(address,bool)": {
						"details": "See {IERC721-setApprovalForAll}."
					},
					"supportsInterface(bytes4)": {
						"details": "See {IERC165-supportsInterface}."
					},
					"symbol()": {
						"details": "See {IERC721Metadata-symbol}."
					},
					"tokenURI(uint256)": {
						"details": "See {IERC721Metadata-tokenURI}."
					},
					"totalSupply()": {
						"details": "Burned tokens are calculated here, use _totalMinted() if you want to count just minted tokens."
					},
					"transferFrom(address,address,uint256)": {
						"details": "See {IERC721-transferFrom}."
					}
				},
				"version": 1
			},
			"evm": {
				"assembly": "    /* \"TestErc721a.sol\":99:345  contract TestPmc is ERC721A {... */\n  mstore(0x40, 0x80)\n    /* \"TestErc721a.sol\":131:173  constructor() ERC721A(\"Azuki\", \"AZUKI\") {} */\n  callvalue\n  dup1\n  iszero\n  tag_1\n  jumpi\n  0x00\n  dup1\n  revert\ntag_1:\n  pop\n    /* \"erc721a/contracts/ERC721A.sol\":3357:3511  constructor(string memory name_, string memory symbol_) {... */\n  mload(0x40)\n  dup1\n  0x40\n  add\n  0x40\n  mstore\n  dup1\n  0x05\n  dup2\n  mstore\n  0x20\n  add\n  0x417a756b69000000000000000000000000000000000000000000000000000000\n  dup2\n  mstore\n  pop\n  mload(0x40)\n  dup1\n  0x40\n  add\n  0x40\n  mstore\n  dup1\n  0x05\n  dup2\n  mstore\n  0x20\n  add\n  0x415a554b49000000000000000000000000000000000000000000000000000000\n  dup2\n  mstore\n  pop\n    /* \"erc721a/contracts/ERC721A.sol\":3431:3436  name_ */\n  dup2\n    /* \"erc721a/contracts/ERC721A.sol\":3423:3428  _name */\n  0x02\n    /* \"erc721a/contracts/ERC721A.sol\":3423:3436  _name = name_ */\n  swap1\n  dup1\n  mload\n  swap1\n  0x20\n  add\n  swap1\n  tag_5\n  swap3\n  swap2\n  swap1\n  tag_6\n  jump\t// in\ntag_5:\n  pop\n    /* \"erc721a/contracts/ERC721A.sol\":3456:3463  symbol_ */\n  dup1\n    /* \"erc721a/contracts/ERC721A.sol\":3446:3453  _symbol */\n  0x03\n    /* \"erc721a/contracts/ERC721A.sol\":3446:3463  _symbol = symbol_ */\n  swap1\n  dup1\n  mload\n  swap1\n  0x20\n  add\n  swap1\n  tag_7\n  swap3\n  swap2\n  swap1\n  tag_6\n  jump\t// in\ntag_7:\n  pop\n    /* \"erc721a/contracts/ERC721A.sol\":3489:3504  _startTokenId() */\n  tag_8\n    /* \"erc721a/contracts/ERC721A.sol\":3489:3502  _startTokenId */\n  shl(0x20, tag_9)\n    /* \"erc721a/contracts/ERC721A.sol\":3489:3504  _startTokenId() */\n  0x20\n  shr\n  jump\t// in\ntag_8:\n    /* \"erc721a/contracts/ERC721A.sol\":3473:3486  _currentIndex */\n  0x00\n    /* \"erc721a/contracts/ERC721A.sol\":3473:3504  _currentIndex = _startTokenId() */\n  dup2\n  swap1\n  sstore\n  pop\n    /* \"erc721a/contracts/ERC721A.sol\":3357:3511  constructor(string memory name_, string memory symbol_) {... */\n  pop\n  pop\n    /* \"TestErc721a.sol\":99:345  contract TestPmc is ERC721A {... */\n  jump(tag_11)\n    /* \"erc721a/contracts/ERC721A.sol\":3603:3693  function _startTokenId() internal view virtual returns (uint256) {... */\ntag_9:\n    /* \"erc721a/contracts/ERC721A.sol\":3659:3666  uint256 */\n  0x00\n    /* \"erc721a/contracts/ERC721A.sol\":3603:3693  function _startTokenId() internal view virtual returns (uint256) {... */\n  swap1\n  jump\t// out\n    /* \"TestErc721a.sol\":99:345  contract TestPmc is ERC721A {... */\ntag_6:\n  dup3\n  dup1\n  sload\n  tag_13\n  swap1\n  tag_14\n  jump\t// in\ntag_13:\n  swap1\n  0x00\n  mstore\n  keccak256(0x00, 0x20)\n  swap1\n  0x1f\n  add\n  0x20\n  swap1\n  div\n  dup2\n  add\n  swap3\n  dup3\n  tag_16\n  jumpi\n  0x00\n  dup6\n  sstore\n  jump(tag_15)\ntag_16:\n  dup3\n  0x1f\n  lt\n  tag_17\n  jumpi\n  dup1\n  mload\n  not(0xff)\n  and\n  dup4\n  dup1\n  add\n  or\n  dup6\n  sstore\n  jump(tag_15)\ntag_17:\n  dup3\n  dup1\n  add\n  0x01\n  add\n  dup6\n  sstore\n  dup3\n  iszero\n  tag_15\n  jumpi\n  swap2\n  dup3\n  add\ntag_18:\n  dup3\n  dup2\n  gt\n  iszero\n  tag_19\n  jumpi\n  dup3\n  mload\n  dup3\n  sstore\n  swap2\n  0x20\n  add\n  swap2\n  swap1\n  0x01\n  add\n  swap1\n  jump(tag_18)\ntag_19:\ntag_15:\n  pop\n  swap1\n  pop\n  tag_20\n  swap2\n  swap1\n  tag_21\n  jump\t// in\ntag_20:\n  pop\n  swap1\n  jump\t// out\ntag_21:\ntag_22:\n  dup1\n  dup3\n  gt\n  iszero\n  tag_23\n  jumpi\n  0x00\n  dup2\n  0x00\n  swap1\n  sstore\n  pop\n  0x01\n  add\n  jump(tag_22)\ntag_23:\n  pop\n  swap1\n  jump\t// out\n    /* \"#utility.yul\":7:327   */\ntag_14:\n    /* \"#utility.yul\":51:57   */\n  0x00\n    /* \"#utility.yul\":88:89   */\n  0x02\n    /* \"#utility.yul\":82:86   */\n  dup3\n    /* \"#utility.yul\":78:90   */\n  div\n    /* \"#utility.yul\":68:90   */\n  swap1\n  pop\n    /* \"#utility.yul\":135:136   */\n  0x01\n    /* \"#utility.yul\":129:133   */\n  dup3\n    /* \"#utility.yul\":125:137   */\n  and\n    /* \"#utility.yul\":156:174   */\n  dup1\n    /* \"#utility.yul\":146:227   */\n  tag_26\n  jumpi\n    /* \"#utility.yul\":212:216   */\n  0x7f\n    /* \"#utility.yul\":204:210   */\n  dup3\n    /* \"#utility.yul\":200:217   */\n  and\n    /* \"#utility.yul\":190:217   */\n  swap2\n  pop\n    /* \"#utility.yul\":146:227   */\ntag_26:\n    /* \"#utility.yul\":274:276   */\n  0x20\n    /* \"#utility.yul\":266:272   */\n  dup3\n    /* \"#utility.yul\":263:277   */\n  lt\n    /* \"#utility.yul\":243:261   */\n  dup2\n    /* \"#utility.yul\":240:278   */\n  eq\n    /* \"#utility.yul\":237:321   */\n  iszero\n  tag_27\n  jumpi\n    /* \"#utility.yul\":293:311   */\n  tag_28\n  tag_29\n  jump\t// in\ntag_28:\n    /* \"#utility.yul\":237:321   */\ntag_27:\n    /* \"#utility.yul\":58:327   */\n  pop\n    /* \"#utility.yul\":7:327   */\n  swap2\n  swap1\n  pop\n  jump\t// out\n    /* \"#utility.yul\":333:513   */\ntag_29:\n    /* \"#utility.yul\":381:458   */\n  0x4e487b7100000000000000000000000000000000000000000000000000000000\n    /* \"#utility.yul\":378:379   */\n  0x00\n    /* \"#utility.yul\":371:459   */\n  mstore\n    /* \"#utility.yul\":478:482   */\n  0x22\n    /* \"#utility.yul\":475:476   */\n  0x04\n    /* \"#utility.yul\":468:483   */\n  mstore\n    /* \"#utility.yul\":502:506   */\n  0x24\n    /* \"#utility.yul\":499:500   */\n  0x00\n    /* \"#utility.yul\":492:507   */\n  revert\n    /* \"TestErc721a.sol\":99:345  contract TestPmc is ERC721A {... */\ntag_11:\n  dataSize(sub_0)\n  dup1\n  dataOffset(sub_0)\n  0x00\n  codecopy\n  0x00\n  return\nstop\n\nsub_0: assembly {\n        /* \"TestErc721a.sol\":99:345  contract TestPmc is ERC721A {... */\n      mstore(0x40, 0x80)\n      jumpi(tag_1, lt(calldatasize, 0x04))\n      shr(0xe0, calldataload(0x00))\n      dup1\n      0x6352211e\n      gt\n      tag_17\n      jumpi\n      dup1\n      0xa22cb465\n      gt\n      tag_18\n      jumpi\n      dup1\n      0xa22cb465\n      eq\n      tag_13\n      jumpi\n      dup1\n      0xb88d4fde\n      eq\n      tag_14\n      jumpi\n      dup1\n      0xc87b56dd\n      eq\n      tag_15\n      jumpi\n      dup1\n      0xe985e9c5\n      eq\n      tag_16\n      jumpi\n      jump(tag_1)\n    tag_18:\n      dup1\n      0x6352211e\n      eq\n      tag_9\n      jumpi\n      dup1\n      0x70a08231\n      eq\n      tag_10\n      jumpi\n      dup1\n      0x95d89b41\n      eq\n      tag_11\n      jumpi\n      dup1\n      0xa0712d68\n      eq\n      tag_12\n      jumpi\n      jump(tag_1)\n    tag_17:\n      dup1\n      0x095ea7b3\n      gt\n      tag_19\n      jumpi\n      dup1\n      0x095ea7b3\n      eq\n      tag_5\n      jumpi\n      dup1\n      0x18160ddd\n      eq\n      tag_6\n      jumpi\n      dup1\n      0x23b872dd\n      eq\n      tag_7\n      jumpi\n      dup1\n      0x42842e0e\n      eq\n      tag_8\n      jumpi\n      jump(tag_1)\n    tag_19:\n      dup1\n      0x01ffc9a7\n      eq\n      tag_2\n      jumpi\n      dup1\n      0x06fdde03\n      eq\n      tag_3\n      jumpi\n      dup1\n      0x081812fc\n      eq\n      tag_4\n      jumpi\n    tag_1:\n      0x00\n      dup1\n      revert\n        /* \"erc721a/contracts/ERC721A.sol\":4551:4851  function supportsInterface(bytes4 interfaceId) public view virtual override(ERC165, IERC165) returns (bool) {... */\n    tag_2:\n      callvalue\n      dup1\n      iszero\n      tag_20\n      jumpi\n      0x00\n      dup1\n      revert\n    tag_20:\n      pop\n      tag_21\n      0x04\n      dup1\n      calldatasize\n      sub\n      dup2\n      add\n      swap1\n      tag_22\n      swap2\n      swap1\n      tag_23\n      jump\t// in\n    tag_22:\n      tag_24\n      jump\t// in\n    tag_21:\n      mload(0x40)\n      tag_25\n      swap2\n      swap1\n      tag_26\n      jump\t// in\n    tag_25:\n      mload(0x40)\n      dup1\n      swap2\n      sub\n      swap1\n      return\n        /* \"erc721a/contracts/ERC721A.sol\":7579:7677  function name() public view virtual override returns (string memory) {... */\n    tag_3:\n      callvalue\n      dup1\n      iszero\n      tag_27\n      jumpi\n      0x00\n      dup1\n      revert\n    tag_27:\n      pop\n      tag_28\n      tag_29\n      jump\t// in\n    tag_28:\n      mload(0x40)\n      tag_30\n      swap2\n      swap1\n      tag_31\n      jump\t// in\n    tag_30:\n      mload(0x40)\n      dup1\n      swap2\n      sub\n      swap1\n      return\n        /* \"erc721a/contracts/ERC721A.sol\":9035:9235  function getApproved(uint256 tokenId) public view override returns (address) {... */\n    tag_4:\n      callvalue\n      dup1\n      iszero\n      tag_32\n      jumpi\n      0x00\n      dup1\n      revert\n    tag_32:\n      pop\n      tag_33\n      0x04\n      dup1\n      calldatasize\n      sub\n      dup2\n      add\n      swap1\n      tag_34\n      swap2\n      swap1\n      tag_35\n      jump\t// in\n    tag_34:\n      tag_36\n      jump\t// in\n    tag_33:\n      mload(0x40)\n      tag_37\n      swap2\n      swap1\n      tag_38\n      jump\t// in\n    tag_37:\n      mload(0x40)\n      dup1\n      swap2\n      sub\n      swap1\n      return\n        /* \"erc721a/contracts/ERC721A.sol\":8612:8974  function approve(address to, uint256 tokenId) public override {... */\n    tag_5:\n      callvalue\n      dup1\n      iszero\n      tag_39\n      jumpi\n      0x00\n      dup1\n      revert\n    tag_39:\n      pop\n      tag_40\n      0x04\n      dup1\n      calldatasize\n      sub\n      dup2\n      add\n      swap1\n      tag_41\n      swap2\n      swap1\n      tag_42\n      jump\t// in\n    tag_41:\n      tag_43\n      jump\t// in\n    tag_40:\n      stop\n        /* \"erc721a/contracts/ERC721A.sol\":3822:4119  function totalSupply() public view returns (uint256) {... */\n    tag_6:\n      callvalue\n      dup1\n      iszero\n      tag_44\n      jumpi\n      0x00\n      dup1\n      revert\n    tag_44:\n      pop\n      tag_45\n      tag_46\n      jump\t// in\n    tag_45:\n      mload(0x40)\n      tag_47\n      swap2\n      swap1\n      tag_48\n      jump\t// in\n    tag_47:\n      mload(0x40)\n      dup1\n      swap2\n      sub\n      swap1\n      return\n        /* \"erc721a/contracts/ERC721A.sol\":9874:10038  function transferFrom(... */\n    tag_7:\n      callvalue\n      dup1\n      iszero\n      tag_49\n      jumpi\n      0x00\n      dup1\n      revert\n    tag_49:\n      pop\n      tag_50\n      0x04\n      dup1\n      calldatasize\n      sub\n      dup2\n      add\n      swap1\n      tag_51\n      swap2\n      swap1\n      tag_52\n      jump\t// in\n    tag_51:\n      tag_53\n      jump\t// in\n    tag_50:\n      stop\n        /* \"erc721a/contracts/ERC721A.sol\":10104:10283  function safeTransferFrom(... */\n    tag_8:\n      callvalue\n      dup1\n      iszero\n      tag_54\n      jumpi\n      0x00\n      dup1\n      revert\n    tag_54:\n      pop\n      tag_55\n      0x04\n      dup1\n      calldatasize\n      sub\n      dup2\n      add\n      swap1\n      tag_56\n      swap2\n      swap1\n      tag_52\n      jump\t// in\n    tag_56:\n      tag_57\n      jump\t// in\n    tag_55:\n      stop\n        /* \"erc721a/contracts/ERC721A.sol\":7394:7517  function ownerOf(uint256 tokenId) public view override returns (address) {... */\n    tag_9:\n      callvalue\n      dup1\n      iszero\n      tag_58\n      jumpi\n      0x00\n      dup1\n      revert\n    tag_58:\n      pop\n      tag_59\n      0x04\n      dup1\n      calldatasize\n      sub\n      dup2\n      add\n      swap1\n      tag_60\n      swap2\n      swap1\n      tag_35\n      jump\t// in\n    tag_60:\n      tag_61\n      jump\t// in\n    tag_59:\n      mload(0x40)\n      tag_62\n      swap2\n      swap1\n      tag_38\n      jump\t// in\n    tag_62:\n      mload(0x40)\n      dup1\n      swap2\n      sub\n      swap1\n      return\n        /* \"erc721a/contracts/ERC721A.sol\":4910:5113  function balanceOf(address owner) public view override returns (uint256) {... */\n    tag_10:\n      callvalue\n      dup1\n      iszero\n      tag_63\n      jumpi\n      0x00\n      dup1\n      revert\n    tag_63:\n      pop\n      tag_64\n      0x04\n      dup1\n      calldatasize\n      sub\n      dup2\n      add\n      swap1\n      tag_65\n      swap2\n      swap1\n      tag_66\n      jump\t// in\n    tag_65:\n      tag_67\n      jump\t// in\n    tag_64:\n      mload(0x40)\n      tag_68\n      swap2\n      swap1\n      tag_48\n      jump\t// in\n    tag_68:\n      mload(0x40)\n      dup1\n      swap2\n      sub\n      swap1\n      return\n        /* \"erc721a/contracts/ERC721A.sol\":7741:7843  function symbol() public view virtual override returns (string memory) {... */\n    tag_11:\n      callvalue\n      dup1\n      iszero\n      tag_69\n      jumpi\n      0x00\n      dup1\n      revert\n    tag_69:\n      pop\n      tag_70\n      tag_71\n      jump\t// in\n    tag_70:\n      mload(0x40)\n      tag_72\n      swap2\n      swap1\n      tag_31\n      jump\t// in\n    tag_72:\n      mload(0x40)\n      dup1\n      swap2\n      sub\n      swap1\n      return\n        /* \"TestErc721a.sol\":177:343  function mint(uint256 quantity) external payable {... */\n    tag_12:\n      tag_73\n      0x04\n      dup1\n      calldatasize\n      sub\n      dup2\n      add\n      swap1\n      tag_74\n      swap2\n      swap1\n      tag_35\n      jump\t// in\n    tag_74:\n      tag_75\n      jump\t// in\n    tag_73:\n      stop\n        /* \"erc721a/contracts/ERC721A.sol\":9302:9584  function setApprovalForAll(address operator, bool approved) public virtual override {... */\n    tag_13:\n      callvalue\n      dup1\n      iszero\n      tag_76\n      jumpi\n      0x00\n      dup1\n      revert\n    tag_76:\n      pop\n      tag_77\n      0x04\n      dup1\n      calldatasize\n      sub\n      dup2\n      add\n      swap1\n      tag_78\n      swap2\n      swap1\n      tag_79\n      jump\t// in\n    tag_78:\n      tag_80\n      jump\t// in\n    tag_77:\n      stop\n        /* \"erc721a/contracts/ERC721A.sol\":10349:10708  function safeTransferFrom(... */\n    tag_14:\n      callvalue\n      dup1\n      iszero\n      tag_81\n      jumpi\n      0x00\n      dup1\n      revert\n    tag_81:\n      pop\n      tag_82\n      0x04\n      dup1\n      calldatasize\n      sub\n      dup2\n      add\n      swap1\n      tag_83\n      swap2\n      swap1\n      tag_84\n      jump\t// in\n    tag_83:\n      tag_85\n      jump\t// in\n    tag_82:\n      stop\n        /* \"erc721a/contracts/ERC721A.sol\":7909:8222  function tokenURI(uint256 tokenId) public view virtual override returns (string memory) {... */\n    tag_15:\n      callvalue\n      dup1\n      iszero\n      tag_86\n      jumpi\n      0x00\n      dup1\n      revert\n    tag_86:\n      pop\n      tag_87\n      0x04\n      dup1\n      calldatasize\n      sub\n      dup2\n      add\n      swap1\n      tag_88\n      swap2\n      swap1\n      tag_35\n      jump\t// in\n    tag_88:\n      tag_89\n      jump\t// in\n    tag_87:\n      mload(0x40)\n      tag_90\n      swap2\n      swap1\n      tag_31\n      jump\t// in\n    tag_90:\n      mload(0x40)\n      dup1\n      swap2\n      sub\n      swap1\n      return\n        /* \"erc721a/contracts/ERC721A.sol\":9650:9812  function isApprovedForAll(address owner, address operator) public view virtual override returns (bool) {... */\n    tag_16:\n      callvalue\n      dup1\n      iszero\n      tag_91\n      jumpi\n      0x00\n      dup1\n      revert\n    tag_91:\n      pop\n      tag_92\n      0x04\n      dup1\n      calldatasize\n      sub\n      dup2\n      add\n      swap1\n      tag_93\n      swap2\n      swap1\n      tag_94\n      jump\t// in\n    tag_93:\n      tag_95\n      jump\t// in\n    tag_92:\n      mload(0x40)\n      tag_96\n      swap2\n      swap1\n      tag_26\n      jump\t// in\n    tag_96:\n      mload(0x40)\n      dup1\n      swap2\n      sub\n      swap1\n      return\n        /* \"erc721a/contracts/ERC721A.sol\":4551:4851  function supportsInterface(bytes4 interfaceId) public view virtual override(ERC165, IERC165) returns (bool) {... */\n    tag_24:\n        /* \"erc721a/contracts/ERC721A.sol\":4653:4657  bool */\n      0x00\n        /* \"erc721a/contracts/ERC721A.sol\":4703:4728  type(IERC721).interfaceId */\n      0x80ac58cd00000000000000000000000000000000000000000000000000000000\n        /* \"erc721a/contracts/ERC721A.sol\":4688:4728  interfaceId == type(IERC721).interfaceId */\n      not(0xffffffffffffffffffffffffffffffffffffffffffffffffffffffff)\n      and\n        /* \"erc721a/contracts/ERC721A.sol\":4688:4699  interfaceId */\n      dup3\n        /* \"erc721a/contracts/ERC721A.sol\":4688:4728  interfaceId == type(IERC721).interfaceId */\n      not(0xffffffffffffffffffffffffffffffffffffffffffffffffffffffff)\n      and\n      eq\n        /* \"erc721a/contracts/ERC721A.sol\":4688:4792  interfaceId == type(IERC721).interfaceId ||... */\n      dup1\n      tag_98\n      jumpi\n      pop\n        /* \"erc721a/contracts/ERC721A.sol\":4759:4792  type(IERC721Metadata).interfaceId */\n      0x5b5e139f00000000000000000000000000000000000000000000000000000000\n        /* \"erc721a/contracts/ERC721A.sol\":4744:4792  interfaceId == type(IERC721Metadata).interfaceId */\n      not(0xffffffffffffffffffffffffffffffffffffffffffffffffffffffff)\n      and\n        /* \"erc721a/contracts/ERC721A.sol\":4744:4755  interfaceId */\n      dup3\n        /* \"erc721a/contracts/ERC721A.sol\":4744:4792  interfaceId == type(IERC721Metadata).interfaceId */\n      not(0xffffffffffffffffffffffffffffffffffffffffffffffffffffffff)\n      and\n      eq\n        /* \"erc721a/contracts/ERC721A.sol\":4688:4792  interfaceId == type(IERC721).interfaceId ||... */\n    tag_98:\n        /* \"erc721a/contracts/ERC721A.sol\":4688:4844  interfaceId == type(IERC721).interfaceId ||... */\n      dup1\n      tag_99\n      jumpi\n      pop\n        /* \"erc721a/contracts/ERC721A.sol\":4808:4844  super.supportsInterface(interfaceId) */\n      tag_100\n        /* \"erc721a/contracts/ERC721A.sol\":4832:4843  interfaceId */\n      dup3\n        /* \"erc721a/contracts/ERC721A.sol\":4808:4831  super.supportsInterface */\n      tag_101\n        /* \"erc721a/contracts/ERC721A.sol\":4808:4844  super.supportsInterface(interfaceId) */\n      jump\t// in\n    tag_100:\n        /* \"erc721a/contracts/ERC721A.sol\":4688:4844  interfaceId == type(IERC721).interfaceId ||... */\n    tag_99:\n        /* \"erc721a/contracts/ERC721A.sol\":4669:4844  return... */\n      swap1\n      pop\n        /* \"erc721a/contracts/ERC721A.sol\":4551:4851  function supportsInterface(bytes4 interfaceId) public view virtual override(ERC165, IERC165) returns (bool) {... */\n      swap2\n      swap1\n      pop\n      jump\t// out\n        /* \"erc721a/contracts/ERC721A.sol\":7579:7677  function name() public view virtual override returns (string memory) {... */\n    tag_29:\n        /* \"erc721a/contracts/ERC721A.sol\":7633:7646  string memory */\n      0x60\n        /* \"erc721a/contracts/ERC721A.sol\":7665:7670  _name */\n      0x02\n        /* \"erc721a/contracts/ERC721A.sol\":7658:7670  return _name */\n      dup1\n      sload\n      tag_103\n      swap1\n      tag_104\n      jump\t// in\n    tag_103:\n      dup1\n      0x1f\n      add\n      0x20\n      dup1\n      swap2\n      div\n      mul\n      0x20\n      add\n      mload(0x40)\n      swap1\n      dup2\n      add\n      0x40\n      mstore\n      dup1\n      swap3\n      swap2\n      swap1\n      dup2\n      dup2\n      mstore\n      0x20\n      add\n      dup3\n      dup1\n      sload\n      tag_105\n      swap1\n      tag_104\n      jump\t// in\n    tag_105:\n      dup1\n      iszero\n      tag_106\n      jumpi\n      dup1\n      0x1f\n      lt\n      tag_107\n      jumpi\n      0x0100\n      dup1\n      dup4\n      sload\n      div\n      mul\n      dup4\n      mstore\n      swap2\n      0x20\n      add\n      swap2\n      jump(tag_106)\n    tag_107:\n      dup3\n      add\n      swap2\n      swap1\n      0x00\n      mstore\n      keccak256(0x00, 0x20)\n      swap1\n    tag_108:\n      dup2\n      sload\n      dup2\n      mstore\n      swap1\n      0x01\n      add\n      swap1\n      0x20\n      add\n      dup1\n      dup4\n      gt\n      tag_108\n      jumpi\n      dup3\n      swap1\n      sub\n      0x1f\n      and\n      dup3\n      add\n      swap2\n    tag_106:\n      pop\n      pop\n      pop\n      pop\n      pop\n      swap1\n      pop\n        /* \"erc721a/contracts/ERC721A.sol\":7579:7677  function name() public view virtual override returns (string memory) {... */\n      swap1\n      jump\t// out\n        /* \"erc721a/contracts/ERC721A.sol\":9035:9235  function getApproved(uint256 tokenId) public view override returns (address) {... */\n    tag_36:\n        /* \"erc721a/contracts/ERC721A.sol\":9103:9110  address */\n      0x00\n        /* \"erc721a/contracts/ERC721A.sol\":9127:9143  _exists(tokenId) */\n      tag_110\n        /* \"erc721a/contracts/ERC721A.sol\":9135:9142  tokenId */\n      dup3\n        /* \"erc721a/contracts/ERC721A.sol\":9127:9134  _exists */\n      tag_111\n        /* \"erc721a/contracts/ERC721A.sol\":9127:9143  _exists(tokenId) */\n      jump\t// in\n    tag_110:\n        /* \"erc721a/contracts/ERC721A.sol\":9122:9186  if (!_exists(tokenId)) revert ApprovalQueryForNonexistentToken() */\n      tag_112\n      jumpi\n        /* \"erc721a/contracts/ERC721A.sol\":9152:9186  ApprovalQueryForNonexistentToken() */\n      mload(0x40)\n      0xcf4700e400000000000000000000000000000000000000000000000000000000\n      dup2\n      mstore\n      0x04\n      add\n      mload(0x40)\n      dup1\n      swap2\n      sub\n      swap1\n      revert\n        /* \"erc721a/contracts/ERC721A.sol\":9122:9186  if (!_exists(tokenId)) revert ApprovalQueryForNonexistentToken() */\n    tag_112:\n        /* \"erc721a/contracts/ERC721A.sol\":9204:9219  _tokenApprovals */\n      0x06\n        /* \"erc721a/contracts/ERC721A.sol\":9204:9228  _tokenApprovals[tokenId] */\n      0x00\n        /* \"erc721a/contracts/ERC721A.sol\":9220:9227  tokenId */\n      dup4\n        /* \"erc721a/contracts/ERC721A.sol\":9204:9228  _tokenApprovals[tokenId] */\n      dup2\n      mstore\n      0x20\n      add\n      swap1\n      dup2\n      mstore\n      0x20\n      add\n      0x00\n      keccak256\n      0x00\n      swap1\n      sload\n      swap1\n      0x0100\n      exp\n      swap1\n      div\n      0xffffffffffffffffffffffffffffffffffffffff\n      and\n        /* \"erc721a/contracts/ERC721A.sol\":9197:9228  return _tokenApprovals[tokenId] */\n      swap1\n      pop\n        /* \"erc721a/contracts/ERC721A.sol\":9035:9235  function getApproved(uint256 tokenId) public view override returns (address) {... */\n      swap2\n      swap1\n      pop\n      jump\t// out\n        /* \"erc721a/contracts/ERC721A.sol\":8612:8974  function approve(address to, uint256 tokenId) public override {... */\n    tag_43:\n        /* \"erc721a/contracts/ERC721A.sol\":8684:8697  address owner */\n      0x00\n        /* \"erc721a/contracts/ERC721A.sol\":8700:8724  ERC721A.ownerOf(tokenId) */\n      tag_114\n        /* \"erc721a/contracts/ERC721A.sol\":8716:8723  tokenId */\n      dup3\n        /* \"erc721a/contracts/ERC721A.sol\":8700:8715  ERC721A.ownerOf */\n      tag_61\n        /* \"erc721a/contracts/ERC721A.sol\":8700:8724  ERC721A.ownerOf(tokenId) */\n      jump\t// in\n    tag_114:\n        /* \"erc721a/contracts/ERC721A.sol\":8684:8724  address owner = ERC721A.ownerOf(tokenId) */\n      swap1\n      pop\n        /* \"erc721a/contracts/ERC721A.sol\":8744:8749  owner */\n      dup1\n        /* \"erc721a/contracts/ERC721A.sol\":8738:8749  to == owner */\n      0xffffffffffffffffffffffffffffffffffffffff\n      and\n        /* \"erc721a/contracts/ERC721A.sol\":8738:8740  to */\n      dup4\n        /* \"erc721a/contracts/ERC721A.sol\":8738:8749  to == owner */\n      0xffffffffffffffffffffffffffffffffffffffff\n      and\n      eq\n        /* \"erc721a/contracts/ERC721A.sol\":8734:8782  if (to == owner) revert ApprovalToCurrentOwner() */\n      iszero\n      tag_115\n      jumpi\n        /* \"erc721a/contracts/ERC721A.sol\":8758:8782  ApprovalToCurrentOwner() */\n      mload(0x40)\n      0x943f7b8c00000000000000000000000000000000000000000000000000000000\n      dup2\n      mstore\n      0x04\n      add\n      mload(0x40)\n      dup1\n      swap2\n      sub\n      swap1\n      revert\n        /* \"erc721a/contracts/ERC721A.sol\":8734:8782  if (to == owner) revert ApprovalToCurrentOwner() */\n    tag_115:\n        /* \"erc721a/contracts/ERC721A.sol\":8813:8818  owner */\n      dup1\n        /* \"erc721a/contracts/ERC721A.sol\":8797:8818  _msgSender() != owner */\n      0xffffffffffffffffffffffffffffffffffffffff\n      and\n        /* \"erc721a/contracts/ERC721A.sol\":8797:8809  _msgSender() */\n      tag_116\n        /* \"erc721a/contracts/ERC721A.sol\":8797:8807  _msgSender */\n      tag_117\n        /* \"erc721a/contracts/ERC721A.sol\":8797:8809  _msgSender() */\n      jump\t// in\n    tag_116:\n        /* \"erc721a/contracts/ERC721A.sol\":8797:8818  _msgSender() != owner */\n      0xffffffffffffffffffffffffffffffffffffffff\n      and\n      eq\n      iszero\n        /* \"erc721a/contracts/ERC721A.sol\":8797:8860  _msgSender() != owner && !isApprovedForAll(owner, _msgSender()) */\n      dup1\n      iszero\n      tag_118\n      jumpi\n      pop\n        /* \"erc721a/contracts/ERC721A.sol\":8823:8860  isApprovedForAll(owner, _msgSender()) */\n      tag_119\n        /* \"erc721a/contracts/ERC721A.sol\":8840:8845  owner */\n      dup2\n        /* \"erc721a/contracts/ERC721A.sol\":8847:8859  _msgSender() */\n      tag_120\n        /* \"erc721a/contracts/ERC721A.sol\":8847:8857  _msgSender */\n      tag_117\n        /* \"erc721a/contracts/ERC721A.sol\":8847:8859  _msgSender() */\n      jump\t// in\n    tag_120:\n        /* \"erc721a/contracts/ERC721A.sol\":8823:8839  isApprovedForAll */\n      tag_95\n        /* \"erc721a/contracts/ERC721A.sol\":8823:8860  isApprovedForAll(owner, _msgSender()) */\n      jump\t// in\n    tag_119:\n        /* \"erc721a/contracts/ERC721A.sol\":8822:8860  !isApprovedForAll(owner, _msgSender()) */\n      iszero\n        /* \"erc721a/contracts/ERC721A.sol\":8797:8860  _msgSender() != owner && !isApprovedForAll(owner, _msgSender()) */\n    tag_118:\n        /* \"erc721a/contracts/ERC721A.sol\":8793:8929  if (_msgSender() != owner && !isApprovedForAll(owner, _msgSender())) {... */\n      iszero\n      tag_121\n      jumpi\n        /* \"erc721a/contracts/ERC721A.sol\":8883:8918  ApprovalCallerNotOwnerNorApproved() */\n      mload(0x40)\n      0xcfb3b94200000000000000000000000000000000000000000000000000000000\n      dup2\n      mstore\n      0x04\n      add\n      mload(0x40)\n      dup1\n      swap2\n      sub\n      swap1\n      revert\n        /* \"erc721a/contracts/ERC721A.sol\":8793:8929  if (_msgSender() != owner && !isApprovedForAll(owner, _msgSender())) {... */\n    tag_121:\n        /* \"erc721a/contracts/ERC721A.sol\":8939:8967  _approve(to, tokenId, owner) */\n      tag_122\n        /* \"erc721a/contracts/ERC721A.sol\":8948:8950  to */\n      dup4\n        /* \"erc721a/contracts/ERC721A.sol\":8952:8959  tokenId */\n      dup4\n        /* \"erc721a/contracts/ERC721A.sol\":8961:8966  owner */\n      dup4\n        /* \"erc721a/contracts/ERC721A.sol\":8939:8947  _approve */\n      tag_123\n        /* \"erc721a/contracts/ERC721A.sol\":8939:8967  _approve(to, tokenId, owner) */\n      jump\t// in\n    tag_122:\n        /* \"erc721a/contracts/ERC721A.sol\":8674:8974  {... */\n      pop\n        /* \"erc721a/contracts/ERC721A.sol\":8612:8974  function approve(address to, uint256 tokenId) public override {... */\n      pop\n      pop\n      jump\t// out\n        /* \"erc721a/contracts/ERC721A.sol\":3822:4119  function totalSupply() public view returns (uint256) {... */\n    tag_46:\n        /* \"erc721a/contracts/ERC721A.sol\":3866:3873  uint256 */\n      0x00\n        /* \"erc721a/contracts/ERC721A.sol\":4087:4102  _startTokenId() */\n      tag_125\n        /* \"erc721a/contracts/ERC721A.sol\":4087:4100  _startTokenId */\n      tag_126\n        /* \"erc721a/contracts/ERC721A.sol\":4087:4102  _startTokenId() */\n      jump\t// in\n    tag_125:\n        /* \"erc721a/contracts/ERC721A.sol\":4072:4084  _burnCounter */\n      sload(0x01)\n        /* \"erc721a/contracts/ERC721A.sol\":4056:4069  _currentIndex */\n      sload(0x00)\n        /* \"erc721a/contracts/ERC721A.sol\":4056:4084  _currentIndex - _burnCounter */\n      sub\n        /* \"erc721a/contracts/ERC721A.sol\":4056:4102  _currentIndex - _burnCounter - _startTokenId() */\n      sub\n        /* \"erc721a/contracts/ERC721A.sol\":4049:4102  return _currentIndex - _burnCounter - _startTokenId() */\n      swap1\n      pop\n        /* \"erc721a/contracts/ERC721A.sol\":3822:4119  function totalSupply() public view returns (uint256) {... */\n      swap1\n      jump\t// out\n        /* \"erc721a/contracts/ERC721A.sol\":9874:10038  function transferFrom(... */\n    tag_53:\n        /* \"erc721a/contracts/ERC721A.sol\":10003:10031  _transfer(from, to, tokenId) */\n      tag_128\n        /* \"erc721a/contracts/ERC721A.sol\":10013:10017  from */\n      dup4\n        /* \"erc721a/contracts/ERC721A.sol\":10019:10021  to */\n      dup4\n        /* \"erc721a/contracts/ERC721A.sol\":10023:10030  tokenId */\n      dup4\n        /* \"erc721a/contracts/ERC721A.sol\":10003:10012  _transfer */\n      tag_129\n        /* \"erc721a/contracts/ERC721A.sol\":10003:10031  _transfer(from, to, tokenId) */\n      jump\t// in\n    tag_128:\n        /* \"erc721a/contracts/ERC721A.sol\":9874:10038  function transferFrom(... */\n      pop\n      pop\n      pop\n      jump\t// out\n        /* \"erc721a/contracts/ERC721A.sol\":10104:10283  function safeTransferFrom(... */\n    tag_57:\n        /* \"erc721a/contracts/ERC721A.sol\":10237:10276  safeTransferFrom(from, to, tokenId, '') */\n      tag_131\n        /* \"erc721a/contracts/ERC721A.sol\":10254:10258  from */\n      dup4\n        /* \"erc721a/contracts/ERC721A.sol\":10260:10262  to */\n      dup4\n        /* \"erc721a/contracts/ERC721A.sol\":10264:10271  tokenId */\n      dup4\n        /* \"erc721a/contracts/ERC721A.sol\":10237:10276  safeTransferFrom(from, to, tokenId, '') */\n      mload(0x40)\n      dup1\n      0x20\n      add\n      0x40\n      mstore\n      dup1\n      0x00\n      dup2\n      mstore\n      pop\n        /* \"erc721a/contracts/ERC721A.sol\":10237:10253  safeTransferFrom */\n      tag_85\n        /* \"erc721a/contracts/ERC721A.sol\":10237:10276  safeTransferFrom(from, to, tokenId, '') */\n      jump\t// in\n    tag_131:\n        /* \"erc721a/contracts/ERC721A.sol\":10104:10283  function safeTransferFrom(... */\n      pop\n      pop\n      pop\n      jump\t// out\n        /* \"erc721a/contracts/ERC721A.sol\":7394:7517  function ownerOf(uint256 tokenId) public view override returns (address) {... */\n    tag_61:\n        /* \"erc721a/contracts/ERC721A.sol\":7458:7465  address */\n      0x00\n        /* \"erc721a/contracts/ERC721A.sol\":7484:7505  _ownershipOf(tokenId) */\n      tag_133\n        /* \"erc721a/contracts/ERC721A.sol\":7497:7504  tokenId */\n      dup3\n        /* \"erc721a/contracts/ERC721A.sol\":7484:7496  _ownershipOf */\n      tag_134\n        /* \"erc721a/contracts/ERC721A.sol\":7484:7505  _ownershipOf(tokenId) */\n      jump\t// in\n    tag_133:\n        /* \"erc721a/contracts/ERC721A.sol\":7484:7510  _ownershipOf(tokenId).addr */\n      0x00\n      add\n      mload\n        /* \"erc721a/contracts/ERC721A.sol\":7477:7510  return _ownershipOf(tokenId).addr */\n      swap1\n      pop\n        /* \"erc721a/contracts/ERC721A.sol\":7394:7517  function ownerOf(uint256 tokenId) public view override returns (address) {... */\n      swap2\n      swap1\n      pop\n      jump\t// out\n        /* \"erc721a/contracts/ERC721A.sol\":4910:5113  function balanceOf(address owner) public view override returns (uint256) {... */\n    tag_67:\n        /* \"erc721a/contracts/ERC721A.sol\":4974:4981  uint256 */\n      0x00\n        /* \"erc721a/contracts/ERC721A.sol\":5014:5015  0 */\n      dup1\n        /* \"erc721a/contracts/ERC721A.sol\":4997:5016  owner == address(0) */\n      0xffffffffffffffffffffffffffffffffffffffff\n      and\n        /* \"erc721a/contracts/ERC721A.sol\":4997:5002  owner */\n      dup3\n        /* \"erc721a/contracts/ERC721A.sol\":4997:5016  owner == address(0) */\n      0xffffffffffffffffffffffffffffffffffffffff\n      and\n      eq\n        /* \"erc721a/contracts/ERC721A.sol\":4993:5053  if (owner == address(0)) revert BalanceQueryForZeroAddress() */\n      iszero\n      tag_136\n      jumpi\n        /* \"erc721a/contracts/ERC721A.sol\":5025:5053  BalanceQueryForZeroAddress() */\n      mload(0x40)\n      0x8f4eb60400000000000000000000000000000000000000000000000000000000\n      dup2\n      mstore\n      0x04\n      add\n      mload(0x40)\n      dup1\n      swap2\n      sub\n      swap1\n      revert\n        /* \"erc721a/contracts/ERC721A.sol\":4993:5053  if (owner == address(0)) revert BalanceQueryForZeroAddress() */\n    tag_136:\n        /* \"erc721a/contracts/ERC721A.sol\":5078:5090  _addressData */\n      0x05\n        /* \"erc721a/contracts/ERC721A.sol\":5078:5097  _addressData[owner] */\n      0x00\n        /* \"erc721a/contracts/ERC721A.sol\":5091:5096  owner */\n      dup4\n        /* \"erc721a/contracts/ERC721A.sol\":5078:5097  _addressData[owner] */\n      0xffffffffffffffffffffffffffffffffffffffff\n      and\n      0xffffffffffffffffffffffffffffffffffffffff\n      and\n      dup2\n      mstore\n      0x20\n      add\n      swap1\n      dup2\n      mstore\n      0x20\n      add\n      0x00\n      keccak256\n        /* \"erc721a/contracts/ERC721A.sol\":5078:5105  _addressData[owner].balance */\n      0x00\n      add\n      0x00\n      swap1\n      sload\n      swap1\n      0x0100\n      exp\n      swap1\n      div\n      0xffffffffffffffff\n      and\n        /* \"erc721a/contracts/ERC721A.sol\":5070:5106  uint256(_addressData[owner].balance) */\n      0xffffffffffffffff\n      and\n        /* \"erc721a/contracts/ERC721A.sol\":5063:5106  return uint256(_addressData[owner].balance) */\n      swap1\n      pop\n        /* \"erc721a/contracts/ERC721A.sol\":4910:5113  function balanceOf(address owner) public view override returns (uint256) {... */\n      swap2\n      swap1\n      pop\n      jump\t// out\n        /* \"erc721a/contracts/ERC721A.sol\":7741:7843  function symbol() public view virtual override returns (string memory) {... */\n    tag_71:\n        /* \"erc721a/contracts/ERC721A.sol\":7797:7810  string memory */\n      0x60\n        /* \"erc721a/contracts/ERC721A.sol\":7829:7836  _symbol */\n      0x03\n        /* \"erc721a/contracts/ERC721A.sol\":7822:7836  return _symbol */\n      dup1\n      sload\n      tag_138\n      swap1\n      tag_104\n      jump\t// in\n    tag_138:\n      dup1\n      0x1f\n      add\n      0x20\n      dup1\n      swap2\n      div\n      mul\n      0x20\n      add\n      mload(0x40)\n      swap1\n      dup2\n      add\n      0x40\n      mstore\n      dup1\n      swap3\n      swap2\n      swap1\n      dup2\n      dup2\n      mstore\n      0x20\n      add\n      dup3\n      dup1\n      sload\n      tag_139\n      swap1\n      tag_104\n      jump\t// in\n    tag_139:\n      dup1\n      iszero\n      tag_140\n      jumpi\n      dup1\n      0x1f\n      lt\n      tag_141\n      jumpi\n      0x0100\n      dup1\n      dup4\n      sload\n      div\n      mul\n      dup4\n      mstore\n      swap2\n      0x20\n      add\n      swap2\n      jump(tag_140)\n    tag_141:\n      dup3\n      add\n      swap2\n      swap1\n      0x00\n      mstore\n      keccak256(0x00, 0x20)\n      swap1\n    tag_142:\n      dup2\n      sload\n      dup2\n      mstore\n      swap1\n      0x01\n      add\n      swap1\n      0x20\n      add\n      dup1\n      dup4\n      gt\n      tag_142\n      jumpi\n      dup3\n      swap1\n      sub\n      0x1f\n      and\n      dup3\n      add\n      swap2\n    tag_140:\n      pop\n      pop\n      pop\n      pop\n      pop\n      swap1\n      pop\n        /* \"erc721a/contracts/ERC721A.sol\":7741:7843  function symbol() public view virtual override returns (string memory) {... */\n      swap1\n      jump\t// out\n        /* \"TestErc721a.sol\":177:343  function mint(uint256 quantity) external payable {... */\n    tag_75:\n        /* \"TestErc721a.sol\":307:338  _safeMint(msg.sender, quantity) */\n      tag_144\n        /* \"TestErc721a.sol\":317:327  msg.sender */\n      caller\n        /* \"TestErc721a.sol\":329:337  quantity */\n      dup3\n        /* \"TestErc721a.sol\":307:316  _safeMint */\n      tag_145\n        /* \"TestErc721a.sol\":307:338  _safeMint(msg.sender, quantity) */\n      jump\t// in\n    tag_144:\n        /* \"TestErc721a.sol\":177:343  function mint(uint256 quantity) external payable {... */\n      pop\n      jump\t// out\n        /* \"erc721a/contracts/ERC721A.sol\":9302:9584  function setApprovalForAll(address operator, bool approved) public virtual override {... */\n    tag_80:\n        /* \"erc721a/contracts/ERC721A.sol\":9412:9424  _msgSender() */\n      tag_147\n        /* \"erc721a/contracts/ERC721A.sol\":9412:9422  _msgSender */\n      tag_117\n        /* \"erc721a/contracts/ERC721A.sol\":9412:9424  _msgSender() */\n      jump\t// in\n    tag_147:\n        /* \"erc721a/contracts/ERC721A.sol\":9400:9424  operator == _msgSender() */\n      0xffffffffffffffffffffffffffffffffffffffff\n      and\n        /* \"erc721a/contracts/ERC721A.sol\":9400:9408  operator */\n      dup3\n        /* \"erc721a/contracts/ERC721A.sol\":9400:9424  operator == _msgSender() */\n      0xffffffffffffffffffffffffffffffffffffffff\n      and\n      eq\n        /* \"erc721a/contracts/ERC721A.sol\":9396:9450  if (operator == _msgSender()) revert ApproveToCaller() */\n      iszero\n      tag_148\n      jumpi\n        /* \"erc721a/contracts/ERC721A.sol\":9433:9450  ApproveToCaller() */\n      mload(0x40)\n      0xb06307db00000000000000000000000000000000000000000000000000000000\n      dup2\n      mstore\n      0x04\n      add\n      mload(0x40)\n      dup1\n      swap2\n      sub\n      swap1\n      revert\n        /* \"erc721a/contracts/ERC721A.sol\":9396:9450  if (operator == _msgSender()) revert ApproveToCaller() */\n    tag_148:\n        /* \"erc721a/contracts/ERC721A.sol\":9506:9514  approved */\n      dup1\n        /* \"erc721a/contracts/ERC721A.sol\":9461:9479  _operatorApprovals */\n      0x07\n        /* \"erc721a/contracts/ERC721A.sol\":9461:9493  _operatorApprovals[_msgSender()] */\n      0x00\n        /* \"erc721a/contracts/ERC721A.sol\":9480:9492  _msgSender() */\n      tag_149\n        /* \"erc721a/contracts/ERC721A.sol\":9480:9490  _msgSender */\n      tag_117\n        /* \"erc721a/contracts/ERC721A.sol\":9480:9492  _msgSender() */\n      jump\t// in\n    tag_149:\n        /* \"erc721a/contracts/ERC721A.sol\":9461:9493  _operatorApprovals[_msgSender()] */\n      0xffffffffffffffffffffffffffffffffffffffff\n      and\n      0xffffffffffffffffffffffffffffffffffffffff\n      and\n      dup2\n      mstore\n      0x20\n      add\n      swap1\n      dup2\n      mstore\n      0x20\n      add\n      0x00\n      keccak256\n        /* \"erc721a/contracts/ERC721A.sol\":9461:9503  _operatorApprovals[_msgSender()][operator] */\n      0x00\n        /* \"erc721a/contracts/ERC721A.sol\":9494:9502  operator */\n      dup5\n        /* \"erc721a/contracts/ERC721A.sol\":9461:9503  _operatorApprovals[_msgSender()][operator] */\n      0xffffffffffffffffffffffffffffffffffffffff\n      and\n      0xffffffffffffffffffffffffffffffffffffffff\n      and\n      dup2\n      mstore\n      0x20\n      add\n      swap1\n      dup2\n      mstore\n      0x20\n      add\n      0x00\n      keccak256\n      0x00\n        /* \"erc721a/contracts/ERC721A.sol\":9461:9514  _operatorApprovals[_msgSender()][operator] = approved */\n      0x0100\n      exp\n      dup2\n      sload\n      dup2\n      0xff\n      mul\n      not\n      and\n      swap1\n      dup4\n      iszero\n      iszero\n      mul\n      or\n      swap1\n      sstore\n      pop\n        /* \"erc721a/contracts/ERC721A.sol\":9558:9566  operator */\n      dup2\n        /* \"erc721a/contracts/ERC721A.sol\":9529:9577  ApprovalForAll(_msgSender(), operator, approved) */\n      0xffffffffffffffffffffffffffffffffffffffff\n      and\n        /* \"erc721a/contracts/ERC721A.sol\":9544:9556  _msgSender() */\n      tag_150\n        /* \"erc721a/contracts/ERC721A.sol\":9544:9554  _msgSender */\n      tag_117\n        /* \"erc721a/contracts/ERC721A.sol\":9544:9556  _msgSender() */\n      jump\t// in\n    tag_150:\n        /* \"erc721a/contracts/ERC721A.sol\":9529:9577  ApprovalForAll(_msgSender(), operator, approved) */\n      0xffffffffffffffffffffffffffffffffffffffff\n      and\n      0x17307eab39ab6107e8899845ad3d59bd9653f200f220920489ca2b5937696c31\n        /* \"erc721a/contracts/ERC721A.sol\":9568:9576  approved */\n      dup4\n        /* \"erc721a/contracts/ERC721A.sol\":9529:9577  ApprovalForAll(_msgSender(), operator, approved) */\n      mload(0x40)\n      tag_151\n      swap2\n      swap1\n      tag_26\n      jump\t// in\n    tag_151:\n      mload(0x40)\n      dup1\n      swap2\n      sub\n      swap1\n      log3\n        /* \"erc721a/contracts/ERC721A.sol\":9302:9584  function setApprovalForAll(address operator, bool approved) public virtual override {... */\n      pop\n      pop\n      jump\t// out\n        /* \"erc721a/contracts/ERC721A.sol\":10349:10708  function safeTransferFrom(... */\n    tag_85:\n        /* \"erc721a/contracts/ERC721A.sol\":10510:10538  _transfer(from, to, tokenId) */\n      tag_153\n        /* \"erc721a/contracts/ERC721A.sol\":10520:10524  from */\n      dup5\n        /* \"erc721a/contracts/ERC721A.sol\":10526:10528  to */\n      dup5\n        /* \"erc721a/contracts/ERC721A.sol\":10530:10537  tokenId */\n      dup5\n        /* \"erc721a/contracts/ERC721A.sol\":10510:10519  _transfer */\n      tag_129\n        /* \"erc721a/contracts/ERC721A.sol\":10510:10538  _transfer(from, to, tokenId) */\n      jump\t// in\n    tag_153:\n        /* \"erc721a/contracts/ERC721A.sol\":10552:10567  to.isContract() */\n      tag_154\n        /* \"erc721a/contracts/ERC721A.sol\":10552:10554  to */\n      dup4\n        /* \"erc721a/contracts/ERC721A.sol\":10552:10565  to.isContract */\n      0xffffffffffffffffffffffffffffffffffffffff\n      and\n      tag_155\n        /* \"erc721a/contracts/ERC721A.sol\":10552:10567  to.isContract() */\n      jump\t// in\n    tag_154:\n        /* \"erc721a/contracts/ERC721A.sol\":10552:10628  to.isContract() && !_checkContractOnERC721Received(from, to, tokenId, _data) */\n      dup1\n      iszero\n      tag_156\n      jumpi\n      pop\n        /* \"erc721a/contracts/ERC721A.sol\":10572:10628  _checkContractOnERC721Received(from, to, tokenId, _data) */\n      tag_157\n        /* \"erc721a/contracts/ERC721A.sol\":10603:10607  from */\n      dup5\n        /* \"erc721a/contracts/ERC721A.sol\":10609:10611  to */\n      dup5\n        /* \"erc721a/contracts/ERC721A.sol\":10613:10620  tokenId */\n      dup5\n        /* \"erc721a/contracts/ERC721A.sol\":10622:10627  _data */\n      dup5\n        /* \"erc721a/contracts/ERC721A.sol\":10572:10602  _checkContractOnERC721Received */\n      tag_158\n        /* \"erc721a/contracts/ERC721A.sol\":10572:10628  _checkContractOnERC721Received(from, to, tokenId, _data) */\n      jump\t// in\n    tag_157:\n        /* \"erc721a/contracts/ERC721A.sol\":10571:10628  !_checkContractOnERC721Received(from, to, tokenId, _data) */\n      iszero\n        /* \"erc721a/contracts/ERC721A.sol\":10552:10628  to.isContract() && !_checkContractOnERC721Received(from, to, tokenId, _data) */\n    tag_156:\n        /* \"erc721a/contracts/ERC721A.sol\":10548:10702  if (to.isContract() && !_checkContractOnERC721Received(from, to, tokenId, _data)) {... */\n      iszero\n      tag_159\n      jumpi\n        /* \"erc721a/contracts/ERC721A.sol\":10651:10691  TransferToNonERC721ReceiverImplementer() */\n      mload(0x40)\n      0xd1a57ed600000000000000000000000000000000000000000000000000000000\n      dup2\n      mstore\n      0x04\n      add\n      mload(0x40)\n      dup1\n      swap2\n      sub\n      swap1\n      revert\n        /* \"erc721a/contracts/ERC721A.sol\":10548:10702  if (to.isContract() && !_checkContractOnERC721Received(from, to, tokenId, _data)) {... */\n    tag_159:\n        /* \"erc721a/contracts/ERC721A.sol\":10349:10708  function safeTransferFrom(... */\n      pop\n      pop\n      pop\n      pop\n      jump\t// out\n        /* \"erc721a/contracts/ERC721A.sol\":7909:8222  function tokenURI(uint256 tokenId) public view virtual override returns (string memory) {... */\n    tag_89:\n        /* \"erc721a/contracts/ERC721A.sol\":7982:7995  string memory */\n      0x60\n        /* \"erc721a/contracts/ERC721A.sol\":8012:8028  _exists(tokenId) */\n      tag_161\n        /* \"erc721a/contracts/ERC721A.sol\":8020:8027  tokenId */\n      dup3\n        /* \"erc721a/contracts/ERC721A.sol\":8012:8019  _exists */\n      tag_111\n        /* \"erc721a/contracts/ERC721A.sol\":8012:8028  _exists(tokenId) */\n      jump\t// in\n    tag_161:\n        /* \"erc721a/contracts/ERC721A.sol\":8007:8066  if (!_exists(tokenId)) revert URIQueryForNonexistentToken() */\n      tag_162\n      jumpi\n        /* \"erc721a/contracts/ERC721A.sol\":8037:8066  URIQueryForNonexistentToken() */\n      mload(0x40)\n      0xa14c4b5000000000000000000000000000000000000000000000000000000000\n      dup2\n      mstore\n      0x04\n      add\n      mload(0x40)\n      dup1\n      swap2\n      sub\n      swap1\n      revert\n        /* \"erc721a/contracts/ERC721A.sol\":8007:8066  if (!_exists(tokenId)) revert URIQueryForNonexistentToken() */\n    tag_162:\n        /* \"erc721a/contracts/ERC721A.sol\":8077:8098  string memory baseURI */\n      0x00\n        /* \"erc721a/contracts/ERC721A.sol\":8101:8111  _baseURI() */\n      tag_163\n        /* \"erc721a/contracts/ERC721A.sol\":8101:8109  _baseURI */\n      tag_164\n        /* \"erc721a/contracts/ERC721A.sol\":8101:8111  _baseURI() */\n      jump\t// in\n    tag_163:\n        /* \"erc721a/contracts/ERC721A.sol\":8077:8111  string memory baseURI = _baseURI() */\n      swap1\n      pop\n        /* \"erc721a/contracts/ERC721A.sol\":8153:8154  0 */\n      0x00\n        /* \"erc721a/contracts/ERC721A.sol\":8134:8141  baseURI */\n      dup2\n        /* \"erc721a/contracts/ERC721A.sol\":8128:8149  bytes(baseURI).length */\n      mload\n        /* \"erc721a/contracts/ERC721A.sol\":8128:8154  bytes(baseURI).length != 0 */\n      eq\n      iszero\n        /* \"erc721a/contracts/ERC721A.sol\":8128:8215  bytes(baseURI).length != 0 ? string(abi.encodePacked(baseURI, tokenId.toString())) : '' */\n      tag_165\n      jumpi\n      mload(0x40)\n      dup1\n      0x20\n      add\n      0x40\n      mstore\n      dup1\n      0x00\n      dup2\n      mstore\n      pop\n      jump(tag_166)\n    tag_165:\n        /* \"erc721a/contracts/ERC721A.sol\":8181:8188  baseURI */\n      dup1\n        /* \"erc721a/contracts/ERC721A.sol\":8190:8208  tokenId.toString() */\n      tag_167\n        /* \"erc721a/contracts/ERC721A.sol\":8190:8197  tokenId */\n      dup5\n        /* \"erc721a/contracts/ERC721A.sol\":8190:8206  tokenId.toString */\n      tag_168\n        /* \"erc721a/contracts/ERC721A.sol\":8190:8208  tokenId.toString() */\n      jump\t// in\n    tag_167:\n        /* \"erc721a/contracts/ERC721A.sol\":8164:8209  abi.encodePacked(baseURI, tokenId.toString()) */\n      add(0x20, mload(0x40))\n      tag_169\n      swap3\n      swap2\n      swap1\n      tag_170\n      jump\t// in\n    tag_169:\n      mload(0x40)\n      0x20\n      dup2\n      dup4\n      sub\n      sub\n      dup2\n      mstore\n      swap1\n      0x40\n      mstore\n        /* \"erc721a/contracts/ERC721A.sol\":8128:8215  bytes(baseURI).length != 0 ? string(abi.encodePacked(baseURI, tokenId.toString())) : '' */\n    tag_166:\n        /* \"erc721a/contracts/ERC721A.sol\":8121:8215  return bytes(baseURI).length != 0 ? string(abi.encodePacked(baseURI, tokenId.toString())) : '' */\n      swap2\n      pop\n      pop\n        /* \"erc721a/contracts/ERC721A.sol\":7909:8222  function tokenURI(uint256 tokenId) public view virtual override returns (string memory) {... */\n      swap2\n      swap1\n      pop\n      jump\t// out\n        /* \"erc721a/contracts/ERC721A.sol\":9650:9812  function isApprovedForAll(address owner, address operator) public view virtual override returns (bool) {... */\n    tag_95:\n        /* \"erc721a/contracts/ERC721A.sol\":9747:9751  bool */\n      0x00\n        /* \"erc721a/contracts/ERC721A.sol\":9770:9788  _operatorApprovals */\n      0x07\n        /* \"erc721a/contracts/ERC721A.sol\":9770:9795  _operatorApprovals[owner] */\n      0x00\n        /* \"erc721a/contracts/ERC721A.sol\":9789:9794  owner */\n      dup5\n        /* \"erc721a/contracts/ERC721A.sol\":9770:9795  _operatorApprovals[owner] */\n      0xffffffffffffffffffffffffffffffffffffffff\n      and\n      0xffffffffffffffffffffffffffffffffffffffff\n      and\n      dup2\n      mstore\n      0x20\n      add\n      swap1\n      dup2\n      mstore\n      0x20\n      add\n      0x00\n      keccak256\n        /* \"erc721a/contracts/ERC721A.sol\":9770:9805  _operatorApprovals[owner][operator] */\n      0x00\n        /* \"erc721a/contracts/ERC721A.sol\":9796:9804  operator */\n      dup4\n        /* \"erc721a/contracts/ERC721A.sol\":9770:9805  _operatorApprovals[owner][operator] */\n      0xffffffffffffffffffffffffffffffffffffffff\n      and\n      0xffffffffffffffffffffffffffffffffffffffff\n      and\n      dup2\n      mstore\n      0x20\n      add\n      swap1\n      dup2\n      mstore\n      0x20\n      add\n      0x00\n      keccak256\n      0x00\n      swap1\n      sload\n      swap1\n      0x0100\n      exp\n      swap1\n      div\n      0xff\n      and\n        /* \"erc721a/contracts/ERC721A.sol\":9763:9805  return _operatorApprovals[owner][operator] */\n      swap1\n      pop\n        /* \"erc721a/contracts/ERC721A.sol\":9650:9812  function isApprovedForAll(address owner, address operator) public view virtual override returns (bool) {... */\n      swap3\n      swap2\n      pop\n      pop\n      jump\t// out\n        /* \"@openzeppelin/contracts/utils/introspection/ERC165.sol\":829:984  function supportsInterface(bytes4 interfaceId) public view virtual override returns (bool) {... */\n    tag_101:\n        /* \"@openzeppelin/contracts/utils/introspection/ERC165.sol\":914:918  bool */\n      0x00\n        /* \"@openzeppelin/contracts/utils/introspection/ERC165.sol\":952:977  type(IERC165).interfaceId */\n      0x01ffc9a700000000000000000000000000000000000000000000000000000000\n        /* \"@openzeppelin/contracts/utils/introspection/ERC165.sol\":937:977  interfaceId == type(IERC165).interfaceId */\n      not(0xffffffffffffffffffffffffffffffffffffffffffffffffffffffff)\n      and\n        /* \"@openzeppelin/contracts/utils/introspection/ERC165.sol\":937:948  interfaceId */\n      dup3\n        /* \"@openzeppelin/contracts/utils/introspection/ERC165.sol\":937:977  interfaceId == type(IERC165).interfaceId */\n      not(0xffffffffffffffffffffffffffffffffffffffffffffffffffffffff)\n      and\n      eq\n        /* \"@openzeppelin/contracts/utils/introspection/ERC165.sol\":930:977  return interfaceId == type(IERC165).interfaceId */\n      swap1\n      pop\n        /* \"@openzeppelin/contracts/utils/introspection/ERC165.sol\":829:984  function supportsInterface(bytes4 interfaceId) public view virtual override returns (bool) {... */\n      swap2\n      swap1\n      pop\n      jump\t// out\n        /* \"erc721a/contracts/ERC721A.sol\":10954:11138  function _exists(uint256 tokenId) internal view returns (bool) {... */\n    tag_111:\n        /* \"erc721a/contracts/ERC721A.sol\":11011:11015  bool */\n      0x00\n        /* \"erc721a/contracts/ERC721A.sol\":11053:11060  tokenId */\n      dup2\n        /* \"erc721a/contracts/ERC721A.sol\":11034:11049  _startTokenId() */\n      tag_174\n        /* \"erc721a/contracts/ERC721A.sol\":11034:11047  _startTokenId */\n      tag_126\n        /* \"erc721a/contracts/ERC721A.sol\":11034:11049  _startTokenId() */\n      jump\t// in\n    tag_174:\n        /* \"erc721a/contracts/ERC721A.sol\":11034:11060  _startTokenId() <= tokenId */\n      gt\n      iszero\n        /* \"erc721a/contracts/ERC721A.sol\":11034:11087  _startTokenId() <= tokenId && tokenId < _currentIndex */\n      dup1\n      iszero\n      tag_175\n      jumpi\n      pop\n        /* \"erc721a/contracts/ERC721A.sol\":11074:11087  _currentIndex */\n      sload(0x00)\n        /* \"erc721a/contracts/ERC721A.sol\":11064:11071  tokenId */\n      dup3\n        /* \"erc721a/contracts/ERC721A.sol\":11064:11087  tokenId < _currentIndex */\n      lt\n        /* \"erc721a/contracts/ERC721A.sol\":11034:11087  _startTokenId() <= tokenId && tokenId < _currentIndex */\n    tag_175:\n        /* \"erc721a/contracts/ERC721A.sol\":11034:11131  _startTokenId() <= tokenId && tokenId < _currentIndex &&... */\n      dup1\n      iszero\n      tag_176\n      jumpi\n      pop\n        /* \"erc721a/contracts/ERC721A.sol\":11104:11115  _ownerships */\n      0x04\n        /* \"erc721a/contracts/ERC721A.sol\":11104:11124  _ownerships[tokenId] */\n      0x00\n        /* \"erc721a/contracts/ERC721A.sol\":11116:11123  tokenId */\n      dup4\n        /* \"erc721a/contracts/ERC721A.sol\":11104:11124  _ownerships[tokenId] */\n      dup2\n      mstore\n      0x20\n      add\n      swap1\n      dup2\n      mstore\n      0x20\n      add\n      0x00\n      keccak256\n        /* \"erc721a/contracts/ERC721A.sol\":11104:11131  _ownerships[tokenId].burned */\n      0x00\n      add\n      0x1c\n      swap1\n      sload\n      swap1\n      0x0100\n      exp\n      swap1\n      div\n      0xff\n      and\n        /* \"erc721a/contracts/ERC721A.sol\":11103:11131  !_ownerships[tokenId].burned */\n      iszero\n        /* \"erc721a/contracts/ERC721A.sol\":11034:11131  _startTokenId() <= tokenId && tokenId < _currentIndex &&... */\n    tag_176:\n        /* \"erc721a/contracts/ERC721A.sol\":11027:11131  return _startTokenId() <= tokenId && tokenId < _currentIndex &&... */\n      swap1\n      pop\n        /* \"erc721a/contracts/ERC721A.sol\":10954:11138  function _exists(uint256 tokenId) internal view returns (bool) {... */\n      swap2\n      swap1\n      pop\n      jump\t// out\n        /* \"@openzeppelin/contracts/utils/Context.sol\":640:736  function _msgSender() internal view virtual returns (address) {... */\n    tag_117:\n        /* \"@openzeppelin/contracts/utils/Context.sol\":693:700  address */\n      0x00\n        /* \"@openzeppelin/contracts/utils/Context.sol\":719:729  msg.sender */\n      caller\n        /* \"@openzeppelin/contracts/utils/Context.sol\":712:729  return msg.sender */\n      swap1\n      pop\n        /* \"@openzeppelin/contracts/utils/Context.sol\":640:736  function _msgSender() internal view virtual returns (address) {... */\n      swap1\n      jump\t// out\n        /* \"erc721a/contracts/ERC721A.sol\":18906:19095  function _approve(... */\n    tag_123:\n        /* \"erc721a/contracts/ERC721A.sol\":19043:19045  to */\n      dup3\n        /* \"erc721a/contracts/ERC721A.sol\":19016:19031  _tokenApprovals */\n      0x06\n        /* \"erc721a/contracts/ERC721A.sol\":19016:19040  _tokenApprovals[tokenId] */\n      0x00\n        /* \"erc721a/contracts/ERC721A.sol\":19032:19039  tokenId */\n      dup5\n        /* \"erc721a/contracts/ERC721A.sol\":19016:19040  _tokenApprovals[tokenId] */\n      dup2\n      mstore\n      0x20\n      add\n      swap1\n      dup2\n      mstore\n      0x20\n      add\n      0x00\n      keccak256\n      0x00\n        /* \"erc721a/contracts/ERC721A.sol\":19016:19045  _tokenApprovals[tokenId] = to */\n      0x0100\n      exp\n      dup2\n      sload\n      dup2\n      0xffffffffffffffffffffffffffffffffffffffff\n      mul\n      not\n      and\n      swap1\n      dup4\n      0xffffffffffffffffffffffffffffffffffffffff\n      and\n      mul\n      or\n      swap1\n      sstore\n      pop\n        /* \"erc721a/contracts/ERC721A.sol\":19080:19087  tokenId */\n      dup2\n        /* \"erc721a/contracts/ERC721A.sol\":19076:19078  to */\n      dup4\n        /* \"erc721a/contracts/ERC721A.sol\":19060:19088  Approval(owner, to, tokenId) */\n      0xffffffffffffffffffffffffffffffffffffffff\n      and\n        /* \"erc721a/contracts/ERC721A.sol\":19069:19074  owner */\n      dup3\n        /* \"erc721a/contracts/ERC721A.sol\":19060:19088  Approval(owner, to, tokenId) */\n      0xffffffffffffffffffffffffffffffffffffffff\n      and\n      0x8c5be1e5ebec7d5bd14f71427d1e84f3dd0314c0f7b2291e5b200ac8c7c3b925\n      mload(0x40)\n      mload(0x40)\n      dup1\n      swap2\n      sub\n      swap1\n      log4\n        /* \"erc721a/contracts/ERC721A.sol\":18906:19095  function _approve(... */\n      pop\n      pop\n      pop\n      jump\t// out\n        /* \"erc721a/contracts/ERC721A.sol\":3603:3693  function _startTokenId() internal view virtual returns (uint256) {... */\n    tag_126:\n        /* \"erc721a/contracts/ERC721A.sol\":3659:3666  uint256 */\n      0x00\n        /* \"erc721a/contracts/ERC721A.sol\":3603:3693  function _startTokenId() internal view virtual returns (uint256) {... */\n      swap1\n      jump\t// out\n        /* \"erc721a/contracts/ERC721A.sol\":13976:16058  function _transfer(... */\n    tag_129:\n        /* \"erc721a/contracts/ERC721A.sol\":14086:14121  TokenOwnership memory prevOwnership */\n      0x00\n        /* \"erc721a/contracts/ERC721A.sol\":14124:14145  _ownershipOf(tokenId) */\n      tag_181\n        /* \"erc721a/contracts/ERC721A.sol\":14137:14144  tokenId */\n      dup3\n        /* \"erc721a/contracts/ERC721A.sol\":14124:14136  _ownershipOf */\n      tag_134\n        /* \"erc721a/contracts/ERC721A.sol\":14124:14145  _ownershipOf(tokenId) */\n      jump\t// in\n    tag_181:\n        /* \"erc721a/contracts/ERC721A.sol\":14086:14145  TokenOwnership memory prevOwnership = _ownershipOf(tokenId) */\n      swap1\n      pop\n        /* \"erc721a/contracts/ERC721A.sol\":14182:14186  from */\n      dup4\n        /* \"erc721a/contracts/ERC721A.sol\":14160:14186  prevOwnership.addr != from */\n      0xffffffffffffffffffffffffffffffffffffffff\n      and\n        /* \"erc721a/contracts/ERC721A.sol\":14160:14173  prevOwnership */\n      dup2\n        /* \"erc721a/contracts/ERC721A.sol\":14160:14178  prevOwnership.addr */\n      0x00\n      add\n      mload\n        /* \"erc721a/contracts/ERC721A.sol\":14160:14186  prevOwnership.addr != from */\n      0xffffffffffffffffffffffffffffffffffffffff\n      and\n      eq\n        /* \"erc721a/contracts/ERC721A.sol\":14156:14223  if (prevOwnership.addr != from) revert TransferFromIncorrectOwner() */\n      tag_182\n      jumpi\n        /* \"erc721a/contracts/ERC721A.sol\":14195:14223  TransferFromIncorrectOwner() */\n      mload(0x40)\n      0xa114810000000000000000000000000000000000000000000000000000000000\n      dup2\n      mstore\n      0x04\n      add\n      mload(0x40)\n      dup1\n      swap2\n      sub\n      swap1\n      revert\n        /* \"erc721a/contracts/ERC721A.sol\":14156:14223  if (prevOwnership.addr != from) revert TransferFromIncorrectOwner() */\n    tag_182:\n        /* \"erc721a/contracts/ERC721A.sol\":14234:14256  bool isApprovedOrOwner */\n      0x00\n        /* \"erc721a/contracts/ERC721A.sol\":14276:14280  from */\n      dup5\n        /* \"erc721a/contracts/ERC721A.sol\":14260:14280  _msgSender() == from */\n      0xffffffffffffffffffffffffffffffffffffffff\n      and\n        /* \"erc721a/contracts/ERC721A.sol\":14260:14272  _msgSender() */\n      tag_183\n        /* \"erc721a/contracts/ERC721A.sol\":14260:14270  _msgSender */\n      tag_117\n        /* \"erc721a/contracts/ERC721A.sol\":14260:14272  _msgSender() */\n      jump\t// in\n    tag_183:\n        /* \"erc721a/contracts/ERC721A.sol\":14260:14280  _msgSender() == from */\n      0xffffffffffffffffffffffffffffffffffffffff\n      and\n      eq\n        /* \"erc721a/contracts/ERC721A.sol\":14260:14332  _msgSender() == from ||... */\n      dup1\n      tag_184\n      jumpi\n      pop\n        /* \"erc721a/contracts/ERC721A.sol\":14296:14332  isApprovedForAll(from, _msgSender()) */\n      tag_185\n        /* \"erc721a/contracts/ERC721A.sol\":14313:14317  from */\n      dup6\n        /* \"erc721a/contracts/ERC721A.sol\":14319:14331  _msgSender() */\n      tag_186\n        /* \"erc721a/contracts/ERC721A.sol\":14319:14329  _msgSender */\n      tag_117\n        /* \"erc721a/contracts/ERC721A.sol\":14319:14331  _msgSender() */\n      jump\t// in\n    tag_186:\n        /* \"erc721a/contracts/ERC721A.sol\":14296:14312  isApprovedForAll */\n      tag_95\n        /* \"erc721a/contracts/ERC721A.sol\":14296:14332  isApprovedForAll(from, _msgSender()) */\n      jump\t// in\n    tag_185:\n        /* \"erc721a/contracts/ERC721A.sol\":14260:14332  _msgSender() == from ||... */\n    tag_184:\n        /* \"erc721a/contracts/ERC721A.sol\":14260:14384  _msgSender() == from ||... */\n      dup1\n      tag_187\n      jumpi\n      pop\n        /* \"erc721a/contracts/ERC721A.sol\":14372:14384  _msgSender() */\n      tag_188\n        /* \"erc721a/contracts/ERC721A.sol\":14372:14382  _msgSender */\n      tag_117\n        /* \"erc721a/contracts/ERC721A.sol\":14372:14384  _msgSender() */\n      jump\t// in\n    tag_188:\n        /* \"erc721a/contracts/ERC721A.sol\":14348:14384  getApproved(tokenId) == _msgSender() */\n      0xffffffffffffffffffffffffffffffffffffffff\n      and\n        /* \"erc721a/contracts/ERC721A.sol\":14348:14368  getApproved(tokenId) */\n      tag_189\n        /* \"erc721a/contracts/ERC721A.sol\":14360:14367  tokenId */\n      dup5\n        /* \"erc721a/contracts/ERC721A.sol\":14348:14359  getApproved */\n      tag_36\n        /* \"erc721a/contracts/ERC721A.sol\":14348:14368  getApproved(tokenId) */\n      jump\t// in\n    tag_189:\n        /* \"erc721a/contracts/ERC721A.sol\":14348:14384  getApproved(tokenId) == _msgSender() */\n      0xffffffffffffffffffffffffffffffffffffffff\n      and\n      eq\n        /* \"erc721a/contracts/ERC721A.sol\":14260:14384  _msgSender() == from ||... */\n    tag_187:\n        /* \"erc721a/contracts/ERC721A.sol\":14234:14385  bool isApprovedOrOwner = (_msgSender() == from ||... */\n      swap1\n      pop\n        /* \"erc721a/contracts/ERC721A.sol\":14401:14418  isApprovedOrOwner */\n      dup1\n        /* \"erc721a/contracts/ERC721A.sol\":14396:14462  if (!isApprovedOrOwner) revert TransferCallerNotOwnerNorApproved() */\n      tag_190\n      jumpi\n        /* \"erc721a/contracts/ERC721A.sol\":14427:14462  TransferCallerNotOwnerNorApproved() */\n      mload(0x40)\n      0x59c896be00000000000000000000000000000000000000000000000000000000\n      dup2\n      mstore\n      0x04\n      add\n      mload(0x40)\n      dup1\n      swap2\n      sub\n      swap1\n      revert\n        /* \"erc721a/contracts/ERC721A.sol\":14396:14462  if (!isApprovedOrOwner) revert TransferCallerNotOwnerNorApproved() */\n    tag_190:\n        /* \"erc721a/contracts/ERC721A.sol\":14490:14491  0 */\n      0x00\n        /* \"erc721a/contracts/ERC721A.sol\":14476:14492  to == address(0) */\n      0xffffffffffffffffffffffffffffffffffffffff\n      and\n        /* \"erc721a/contracts/ERC721A.sol\":14476:14478  to */\n      dup5\n        /* \"erc721a/contracts/ERC721A.sol\":14476:14492  to == address(0) */\n      0xffffffffffffffffffffffffffffffffffffffff\n      and\n      eq\n        /* \"erc721a/contracts/ERC721A.sol\":14472:14524  if (to == address(0)) revert TransferToZeroAddress() */\n      iszero\n      tag_191\n      jumpi\n        /* \"erc721a/contracts/ERC721A.sol\":14501:14524  TransferToZeroAddress() */\n      mload(0x40)\n      0xea553b3400000000000000000000000000000000000000000000000000000000\n      dup2\n      mstore\n      0x04\n      add\n      mload(0x40)\n      dup1\n      swap2\n      sub\n      swap1\n      revert\n        /* \"erc721a/contracts/ERC721A.sol\":14472:14524  if (to == address(0)) revert TransferToZeroAddress() */\n    tag_191:\n        /* \"erc721a/contracts/ERC721A.sol\":14535:14578  _beforeTokenTransfers(from, to, tokenId, 1) */\n      tag_192\n        /* \"erc721a/contracts/ERC721A.sol\":14557:14561  from */\n      dup6\n        /* \"erc721a/contracts/ERC721A.sol\":14563:14565  to */\n      dup6\n        /* \"erc721a/contracts/ERC721A.sol\":14567:14574  tokenId */\n      dup6\n        /* \"erc721a/contracts/ERC721A.sol\":14576:14577  1 */\n      0x01\n        /* \"erc721a/contracts/ERC721A.sol\":14535:14556  _beforeTokenTransfers */\n      tag_193\n        /* \"erc721a/contracts/ERC721A.sol\":14535:14578  _beforeTokenTransfers(from, to, tokenId, 1) */\n      jump\t// in\n    tag_192:\n        /* \"erc721a/contracts/ERC721A.sol\":14640:14675  _approve(address(0), tokenId, from) */\n      tag_194\n        /* \"erc721a/contracts/ERC721A.sol\":14657:14658  0 */\n      0x00\n        /* \"erc721a/contracts/ERC721A.sol\":14661:14668  tokenId */\n      dup5\n        /* \"erc721a/contracts/ERC721A.sol\":14670:14674  from */\n      dup8\n        /* \"erc721a/contracts/ERC721A.sol\":14640:14648  _approve */\n      tag_123\n        /* \"erc721a/contracts/ERC721A.sol\":14640:14675  _approve(address(0), tokenId, from) */\n      jump\t// in\n    tag_194:\n        /* \"erc721a/contracts/ERC721A.sol\":14995:14996  1 */\n      0x01\n        /* \"erc721a/contracts/ERC721A.sol\":14965:14977  _addressData */\n      0x05\n        /* \"erc721a/contracts/ERC721A.sol\":14965:14983  _addressData[from] */\n      0x00\n        /* \"erc721a/contracts/ERC721A.sol\":14978:14982  from */\n      dup8\n        /* \"erc721a/contracts/ERC721A.sol\":14965:14983  _addressData[from] */\n      0xffffffffffffffffffffffffffffffffffffffff\n      and\n      0xffffffffffffffffffffffffffffffffffffffff\n      and\n      dup2\n      mstore\n      0x20\n      add\n      swap1\n      dup2\n      mstore\n      0x20\n      add\n      0x00\n      keccak256\n        /* \"erc721a/contracts/ERC721A.sol\":14965:14991  _addressData[from].balance */\n      0x00\n      add\n      0x00\n        /* \"erc721a/contracts/ERC721A.sol\":14965:14996  _addressData[from].balance -= 1 */\n      dup3\n      dup3\n      dup3\n      swap1\n      sload\n      swap1\n      0x0100\n      exp\n      swap1\n      div\n      0xffffffffffffffff\n      and\n      sub\n      swap3\n      pop\n      0x0100\n      exp\n      dup2\n      sload\n      dup2\n      0xffffffffffffffff\n      mul\n      not\n      and\n      swap1\n      dup4\n      0xffffffffffffffff\n      and\n      mul\n      or\n      swap1\n      sstore\n      pop\n        /* \"erc721a/contracts/ERC721A.sol\":15038:15039  1 */\n      0x01\n        /* \"erc721a/contracts/ERC721A.sol\":15010:15022  _addressData */\n      0x05\n        /* \"erc721a/contracts/ERC721A.sol\":15010:15026  _addressData[to] */\n      0x00\n        /* \"erc721a/contracts/ERC721A.sol\":15023:15025  to */\n      dup7\n        /* \"erc721a/contracts/ERC721A.sol\":15010:15026  _addressData[to] */\n      0xffffffffffffffffffffffffffffffffffffffff\n      and\n      0xffffffffffffffffffffffffffffffffffffffff\n      and\n      dup2\n      mstore\n      0x20\n      add\n      swap1\n      dup2\n      mstore\n      0x20\n      add\n      0x00\n      keccak256\n        /* \"erc721a/contracts/ERC721A.sol\":15010:15034  _addressData[to].balance */\n      0x00\n      add\n      0x00\n        /* \"erc721a/contracts/ERC721A.sol\":15010:15039  _addressData[to].balance += 1 */\n      dup3\n      dup3\n      dup3\n      swap1\n      sload\n      swap1\n      0x0100\n      exp\n      swap1\n      div\n      0xffffffffffffffff\n      and\n      add\n      swap3\n      pop\n      0x0100\n      exp\n      dup2\n      sload\n      dup2\n      0xffffffffffffffff\n      mul\n      not\n      and\n      swap1\n      dup4\n      0xffffffffffffffff\n      and\n      mul\n      or\n      swap1\n      sstore\n      pop\n        /* \"erc721a/contracts/ERC721A.sol\":15054:15085  TokenOwnership storage currSlot */\n      0x00\n        /* \"erc721a/contracts/ERC721A.sol\":15088:15099  _ownerships */\n      0x04\n        /* \"erc721a/contracts/ERC721A.sol\":15088:15108  _ownerships[tokenId] */\n      0x00\n        /* \"erc721a/contracts/ERC721A.sol\":15100:15107  tokenId */\n      dup6\n        /* \"erc721a/contracts/ERC721A.sol\":15088:15108  _ownerships[tokenId] */\n      dup2\n      mstore\n      0x20\n      add\n      swap1\n      dup2\n      mstore\n      0x20\n      add\n      0x00\n      keccak256\n        /* \"erc721a/contracts/ERC721A.sol\":15054:15108  TokenOwnership storage currSlot = _ownerships[tokenId] */\n      swap1\n      pop\n        /* \"erc721a/contracts/ERC721A.sol\":15138:15140  to */\n      dup5\n        /* \"erc721a/contracts/ERC721A.sol\":15122:15130  currSlot */\n      dup2\n        /* \"erc721a/contracts/ERC721A.sol\":15122:15135  currSlot.addr */\n      0x00\n      add\n      0x00\n        /* \"erc721a/contracts/ERC721A.sol\":15122:15140  currSlot.addr = to */\n      0x0100\n      exp\n      dup2\n      sload\n      dup2\n      0xffffffffffffffffffffffffffffffffffffffff\n      mul\n      not\n      and\n      swap1\n      dup4\n      0xffffffffffffffffffffffffffffffffffffffff\n      and\n      mul\n      or\n      swap1\n      sstore\n      pop\n        /* \"erc721a/contracts/ERC721A.sol\":15187:15202  block.timestamp */\n      timestamp\n        /* \"erc721a/contracts/ERC721A.sol\":15154:15162  currSlot */\n      dup2\n        /* \"erc721a/contracts/ERC721A.sol\":15154:15177  currSlot.startTimestamp */\n      0x00\n      add\n      0x14\n        /* \"erc721a/contracts/ERC721A.sol\":15154:15203  currSlot.startTimestamp = uint64(block.timestamp) */\n      0x0100\n      exp\n      dup2\n      sload\n      dup2\n      0xffffffffffffffff\n      mul\n      not\n      and\n      swap1\n      dup4\n      0xffffffffffffffff\n      and\n      mul\n      or\n      swap1\n      sstore\n      pop\n        /* \"erc721a/contracts/ERC721A.sol\":15451:15470  uint256 nextTokenId */\n      0x00\n        /* \"erc721a/contracts/ERC721A.sol\":15483:15484  1 */\n      0x01\n        /* \"erc721a/contracts/ERC721A.sol\":15473:15480  tokenId */\n      dup6\n        /* \"erc721a/contracts/ERC721A.sol\":15473:15484  tokenId + 1 */\n      add\n        /* \"erc721a/contracts/ERC721A.sol\":15451:15484  uint256 nextTokenId = tokenId + 1 */\n      swap1\n      pop\n        /* \"erc721a/contracts/ERC721A.sol\":15498:15529  TokenOwnership storage nextSlot */\n      0x00\n        /* \"erc721a/contracts/ERC721A.sol\":15532:15543  _ownerships */\n      0x04\n        /* \"erc721a/contracts/ERC721A.sol\":15532:15556  _ownerships[nextTokenId] */\n      0x00\n        /* \"erc721a/contracts/ERC721A.sol\":15544:15555  nextTokenId */\n      dup4\n        /* \"erc721a/contracts/ERC721A.sol\":15532:15556  _ownerships[nextTokenId] */\n      dup2\n      mstore\n      0x20\n      add\n      swap1\n      dup2\n      mstore\n      0x20\n      add\n      0x00\n      keccak256\n        /* \"erc721a/contracts/ERC721A.sol\":15498:15556  TokenOwnership storage nextSlot = _ownerships[nextTokenId] */\n      swap1\n      pop\n        /* \"erc721a/contracts/ERC721A.sol\":15599:15600  0 */\n      0x00\n        /* \"erc721a/contracts/ERC721A.sol\":15574:15601  nextSlot.addr == address(0) */\n      0xffffffffffffffffffffffffffffffffffffffff\n      and\n        /* \"erc721a/contracts/ERC721A.sol\":15574:15582  nextSlot */\n      dup2\n        /* \"erc721a/contracts/ERC721A.sol\":15574:15587  nextSlot.addr */\n      0x00\n      add\n      0x00\n      swap1\n      sload\n      swap1\n      0x0100\n      exp\n      swap1\n      div\n      0xffffffffffffffffffffffffffffffffffffffff\n      and\n        /* \"erc721a/contracts/ERC721A.sol\":15574:15601  nextSlot.addr == address(0) */\n      0xffffffffffffffffffffffffffffffffffffffff\n      and\n      eq\n        /* \"erc721a/contracts/ERC721A.sol\":15570:15947  if (nextSlot.addr == address(0)) {... */\n      iszero\n      tag_195\n      jumpi\n        /* \"erc721a/contracts/ERC721A.sol\":15781:15794  _currentIndex */\n      sload(0x00)\n        /* \"erc721a/contracts/ERC721A.sol\":15766:15777  nextTokenId */\n      dup3\n        /* \"erc721a/contracts/ERC721A.sol\":15766:15794  nextTokenId != _currentIndex */\n      eq\n        /* \"erc721a/contracts/ERC721A.sol\":15762:15933  if (nextTokenId != _currentIndex) {... */\n      tag_196\n      jumpi\n        /* \"erc721a/contracts/ERC721A.sol\":15834:15838  from */\n      dup8\n        /* \"erc721a/contracts/ERC721A.sol\":15818:15826  nextSlot */\n      dup2\n        /* \"erc721a/contracts/ERC721A.sol\":15818:15831  nextSlot.addr */\n      0x00\n      add\n      0x00\n        /* \"erc721a/contracts/ERC721A.sol\":15818:15838  nextSlot.addr = from */\n      0x0100\n      exp\n      dup2\n      sload\n      dup2\n      0xffffffffffffffffffffffffffffffffffffffff\n      mul\n      not\n      and\n      swap1\n      dup4\n      0xffffffffffffffffffffffffffffffffffffffff\n      and\n      mul\n      or\n      swap1\n      sstore\n      pop\n        /* \"erc721a/contracts/ERC721A.sol\":15886:15899  prevOwnership */\n      dup5\n        /* \"erc721a/contracts/ERC721A.sol\":15886:15914  prevOwnership.startTimestamp */\n      0x20\n      add\n      mload\n        /* \"erc721a/contracts/ERC721A.sol\":15860:15868  nextSlot */\n      dup2\n        /* \"erc721a/contracts/ERC721A.sol\":15860:15883  nextSlot.startTimestamp */\n      0x00\n      add\n      0x14\n        /* \"erc721a/contracts/ERC721A.sol\":15860:15914  nextSlot.startTimestamp = prevOwnership.startTimestamp */\n      0x0100\n      exp\n      dup2\n      sload\n      dup2\n      0xffffffffffffffff\n      mul\n      not\n      and\n      swap1\n      dup4\n      0xffffffffffffffff\n      and\n      mul\n      or\n      swap1\n      sstore\n      pop\n        /* \"erc721a/contracts/ERC721A.sol\":15762:15933  if (nextTokenId != _currentIndex) {... */\n    tag_196:\n        /* \"erc721a/contracts/ERC721A.sol\":15570:15947  if (nextSlot.addr == address(0)) {... */\n    tag_195:\n        /* \"erc721a/contracts/ERC721A.sol\":14941:15957  unchecked {... */\n      pop\n      pop\n      pop\n        /* \"erc721a/contracts/ERC721A.sol\":15991:15998  tokenId */\n      dup3\n        /* \"erc721a/contracts/ERC721A.sol\":15987:15989  to */\n      dup5\n        /* \"erc721a/contracts/ERC721A.sol\":15972:15999  Transfer(from, to, tokenId) */\n      0xffffffffffffffffffffffffffffffffffffffff\n      and\n        /* \"erc721a/contracts/ERC721A.sol\":15981:15985  from */\n      dup7\n        /* \"erc721a/contracts/ERC721A.sol\":15972:15999  Transfer(from, to, tokenId) */\n      0xffffffffffffffffffffffffffffffffffffffff\n      and\n      0xddf252ad1be2c89b69c2b068fc378daa952ba7f163c4a11628f55a4df523b3ef\n      mload(0x40)\n      mload(0x40)\n      dup1\n      swap2\n      sub\n      swap1\n      log4\n        /* \"erc721a/contracts/ERC721A.sol\":16009:16051  _afterTokenTransfers(from, to, tokenId, 1) */\n      tag_197\n        /* \"erc721a/contracts/ERC721A.sol\":16030:16034  from */\n      dup6\n        /* \"erc721a/contracts/ERC721A.sol\":16036:16038  to */\n      dup6\n        /* \"erc721a/contracts/ERC721A.sol\":16040:16047  tokenId */\n      dup6\n        /* \"erc721a/contracts/ERC721A.sol\":16049:16050  1 */\n      0x01\n        /* \"erc721a/contracts/ERC721A.sol\":16009:16029  _afterTokenTransfers */\n      tag_198\n        /* \"erc721a/contracts/ERC721A.sol\":16009:16051  _afterTokenTransfers(from, to, tokenId, 1) */\n      jump\t// in\n    tag_197:\n        /* \"erc721a/contracts/ERC721A.sol\":14076:16058  {... */\n      pop\n      pop\n        /* \"erc721a/contracts/ERC721A.sol\":13976:16058  function _transfer(... */\n      pop\n      pop\n      pop\n      jump\t// out\n        /* \"erc721a/contracts/ERC721A.sol\":6253:7337  function _ownershipOf(uint256 tokenId) internal view returns (TokenOwnership memory) {... */\n    tag_134:\n        /* \"erc721a/contracts/ERC721A.sol\":6315:6336  TokenOwnership memory */\n      tag_199\n      tag_200\n      jump\t// in\n    tag_199:\n        /* \"erc721a/contracts/ERC721A.sol\":6348:6360  uint256 curr */\n      0x00\n        /* \"erc721a/contracts/ERC721A.sol\":6363:6370  tokenId */\n      dup3\n        /* \"erc721a/contracts/ERC721A.sol\":6348:6370  uint256 curr = tokenId */\n      swap1\n      pop\n        /* \"erc721a/contracts/ERC721A.sol\":6428:6432  curr */\n      dup1\n        /* \"erc721a/contracts/ERC721A.sol\":6409:6424  _startTokenId() */\n      tag_202\n        /* \"erc721a/contracts/ERC721A.sol\":6409:6422  _startTokenId */\n      tag_126\n        /* \"erc721a/contracts/ERC721A.sol\":6409:6424  _startTokenId() */\n      jump\t// in\n    tag_202:\n        /* \"erc721a/contracts/ERC721A.sol\":6409:6432  _startTokenId() <= curr */\n      gt\n      iszero\n        /* \"erc721a/contracts/ERC721A.sol\":6409:6456  _startTokenId() <= curr && curr < _currentIndex */\n      dup1\n      iszero\n      tag_203\n      jumpi\n      pop\n        /* \"erc721a/contracts/ERC721A.sol\":6443:6456  _currentIndex */\n      sload(0x00)\n        /* \"erc721a/contracts/ERC721A.sol\":6436:6440  curr */\n      dup2\n        /* \"erc721a/contracts/ERC721A.sol\":6436:6456  curr < _currentIndex */\n      lt\n        /* \"erc721a/contracts/ERC721A.sol\":6409:6456  _startTokenId() <= curr && curr < _currentIndex */\n    tag_203:\n        /* \"erc721a/contracts/ERC721A.sol\":6405:7273  if (_startTokenId() <= curr && curr < _currentIndex) {... */\n      iszero\n      tag_204\n      jumpi\n        /* \"erc721a/contracts/ERC721A.sol\":6476:6507  TokenOwnership memory ownership */\n      0x00\n        /* \"erc721a/contracts/ERC721A.sol\":6510:6521  _ownerships */\n      0x04\n        /* \"erc721a/contracts/ERC721A.sol\":6510:6527  _ownerships[curr] */\n      0x00\n        /* \"erc721a/contracts/ERC721A.sol\":6522:6526  curr */\n      dup4\n        /* \"erc721a/contracts/ERC721A.sol\":6510:6527  _ownerships[curr] */\n      dup2\n      mstore\n      0x20\n      add\n      swap1\n      dup2\n      mstore\n      0x20\n      add\n      0x00\n      keccak256\n        /* \"erc721a/contracts/ERC721A.sol\":6476:6527  TokenOwnership memory ownership = _ownerships[curr] */\n      mload(0x40)\n      dup1\n      0x60\n      add\n      0x40\n      mstore\n      swap1\n      dup2\n      0x00\n      dup3\n      add\n      0x00\n      swap1\n      sload\n      swap1\n      0x0100\n      exp\n      swap1\n      div\n      0xffffffffffffffffffffffffffffffffffffffff\n      and\n      0xffffffffffffffffffffffffffffffffffffffff\n      and\n      0xffffffffffffffffffffffffffffffffffffffff\n      and\n      dup2\n      mstore\n      0x20\n      add\n      0x00\n      dup3\n      add\n      0x14\n      swap1\n      sload\n      swap1\n      0x0100\n      exp\n      swap1\n      div\n      0xffffffffffffffff\n      and\n      0xffffffffffffffff\n      and\n      0xffffffffffffffff\n      and\n      dup2\n      mstore\n      0x20\n      add\n      0x00\n      dup3\n      add\n      0x1c\n      swap1\n      sload\n      swap1\n      0x0100\n      exp\n      swap1\n      div\n      0xff\n      and\n      iszero\n      iszero\n      iszero\n      iszero\n      dup2\n      mstore\n      pop\n      pop\n      swap1\n      pop\n        /* \"erc721a/contracts/ERC721A.sol\":6550:6559  ownership */\n      dup1\n        /* \"erc721a/contracts/ERC721A.sol\":6550:6566  ownership.burned */\n      0x40\n      add\n      mload\n        /* \"erc721a/contracts/ERC721A.sol\":6545:7259  if (!ownership.burned) {... */\n      tag_205\n      jumpi\n        /* \"erc721a/contracts/ERC721A.sol\":6620:6621  0 */\n      0x00\n        /* \"erc721a/contracts/ERC721A.sol\":6594:6622  ownership.addr != address(0) */\n      0xffffffffffffffffffffffffffffffffffffffff\n      and\n        /* \"erc721a/contracts/ERC721A.sol\":6594:6603  ownership */\n      dup2\n        /* \"erc721a/contracts/ERC721A.sol\":6594:6608  ownership.addr */\n      0x00\n      add\n      mload\n        /* \"erc721a/contracts/ERC721A.sol\":6594:6622  ownership.addr != address(0) */\n      0xffffffffffffffffffffffffffffffffffffffff\n      and\n      eq\n        /* \"erc721a/contracts/ERC721A.sol\":6590:6689  if (ownership.addr != address(0)) {... */\n      tag_206\n      jumpi\n        /* \"erc721a/contracts/ERC721A.sol\":6657:6666  ownership */\n      dup1\n        /* \"erc721a/contracts/ERC721A.sol\":6650:6666  return ownership */\n      swap3\n      pop\n      pop\n      pop\n      jump(tag_201)\n        /* \"erc721a/contracts/ERC721A.sol\":6590:6689  if (ownership.addr != address(0)) {... */\n    tag_206:\n        /* \"erc721a/contracts/ERC721A.sol\":6986:7241  while (true) {... */\n    tag_207:\n        /* \"erc721a/contracts/ERC721A.sol\":6993:6997  true */\n      0x01\n        /* \"erc721a/contracts/ERC721A.sol\":6986:7241  while (true) {... */\n      iszero\n      tag_208\n      jumpi\n        /* \"erc721a/contracts/ERC721A.sol\":7025:7031  curr-- */\n      dup2\n      dup1\n      0x01\n      swap1\n      sub\n      swap3\n      pop\n      pop\n        /* \"erc721a/contracts/ERC721A.sol\":7069:7080  _ownerships */\n      0x04\n        /* \"erc721a/contracts/ERC721A.sol\":7069:7086  _ownerships[curr] */\n      0x00\n        /* \"erc721a/contracts/ERC721A.sol\":7081:7085  curr */\n      dup4\n        /* \"erc721a/contracts/ERC721A.sol\":7069:7086  _ownerships[curr] */\n      dup2\n      mstore\n      0x20\n      add\n      swap1\n      dup2\n      mstore\n      0x20\n      add\n      0x00\n      keccak256\n        /* \"erc721a/contracts/ERC721A.sol\":7057:7086  ownership = _ownerships[curr] */\n      mload(0x40)\n      dup1\n      0x60\n      add\n      0x40\n      mstore\n      swap1\n      dup2\n      0x00\n      dup3\n      add\n      0x00\n      swap1\n      sload\n      swap1\n      0x0100\n      exp\n      swap1\n      div\n      0xffffffffffffffffffffffffffffffffffffffff\n      and\n      0xffffffffffffffffffffffffffffffffffffffff\n      and\n      0xffffffffffffffffffffffffffffffffffffffff\n      and\n      dup2\n      mstore\n      0x20\n      add\n      0x00\n      dup3\n      add\n      0x14\n      swap1\n      sload\n      swap1\n      0x0100\n      exp\n      swap1\n      div\n      0xffffffffffffffff\n      and\n      0xffffffffffffffff\n      and\n      0xffffffffffffffff\n      and\n      dup2\n      mstore\n      0x20\n      add\n      0x00\n      dup3\n      add\n      0x1c\n      swap1\n      sload\n      swap1\n      0x0100\n      exp\n      swap1\n      div\n      0xff\n      and\n      iszero\n      iszero\n      iszero\n      iszero\n      dup2\n      mstore\n      pop\n      pop\n      swap1\n      pop\n        /* \"erc721a/contracts/ERC721A.sol\":7142:7143  0 */\n      0x00\n        /* \"erc721a/contracts/ERC721A.sol\":7116:7144  ownership.addr != address(0) */\n      0xffffffffffffffffffffffffffffffffffffffff\n      and\n        /* \"erc721a/contracts/ERC721A.sol\":7116:7125  ownership */\n      dup2\n        /* \"erc721a/contracts/ERC721A.sol\":7116:7130  ownership.addr */\n      0x00\n      add\n      mload\n        /* \"erc721a/contracts/ERC721A.sol\":7116:7144  ownership.addr != address(0) */\n      0xffffffffffffffffffffffffffffffffffffffff\n      and\n      eq\n        /* \"erc721a/contracts/ERC721A.sol\":7112:7219  if (ownership.addr != address(0)) {... */\n      tag_209\n      jumpi\n        /* \"erc721a/contracts/ERC721A.sol\":7183:7192  ownership */\n      dup1\n        /* \"erc721a/contracts/ERC721A.sol\":7176:7192  return ownership */\n      swap3\n      pop\n      pop\n      pop\n      jump(tag_201)\n        /* \"erc721a/contracts/ERC721A.sol\":7112:7219  if (ownership.addr != address(0)) {... */\n    tag_209:\n        /* \"erc721a/contracts/ERC721A.sol\":6986:7241  while (true) {... */\n      jump(tag_207)\n    tag_208:\n        /* \"erc721a/contracts/ERC721A.sol\":6545:7259  if (!ownership.burned) {... */\n    tag_205:\n        /* \"erc721a/contracts/ERC721A.sol\":6458:7273  {... */\n      pop\n        /* \"erc721a/contracts/ERC721A.sol\":6405:7273  if (_startTokenId() <= curr && curr < _currentIndex) {... */\n    tag_204:\n        /* \"erc721a/contracts/ERC721A.sol\":7299:7330  OwnerQueryForNonexistentToken() */\n      mload(0x40)\n      0xdf2d9b4200000000000000000000000000000000000000000000000000000000\n      dup2\n      mstore\n      0x04\n      add\n      mload(0x40)\n      dup1\n      swap2\n      sub\n      swap1\n      revert\n        /* \"erc721a/contracts/ERC721A.sol\":6253:7337  function _ownershipOf(uint256 tokenId) internal view returns (TokenOwnership memory) {... */\n    tag_201:\n      swap2\n      swap1\n      pop\n      jump\t// out\n        /* \"erc721a/contracts/ERC721A.sol\":11144:11246  function _safeMint(address to, uint256 quantity) internal {... */\n    tag_145:\n        /* \"erc721a/contracts/ERC721A.sol\":11212:11239  _safeMint(to, quantity, '') */\n      tag_211\n        /* \"erc721a/contracts/ERC721A.sol\":11222:11224  to */\n      dup3\n        /* \"erc721a/contracts/ERC721A.sol\":11226:11234  quantity */\n      dup3\n        /* \"erc721a/contracts/ERC721A.sol\":11212:11239  _safeMint(to, quantity, '') */\n      mload(0x40)\n      dup1\n      0x20\n      add\n      0x40\n      mstore\n      dup1\n      0x00\n      dup2\n      mstore\n      pop\n        /* \"erc721a/contracts/ERC721A.sol\":11212:11221  _safeMint */\n      tag_212\n        /* \"erc721a/contracts/ERC721A.sol\":11212:11239  _safeMint(to, quantity, '') */\n      jump\t// in\n    tag_211:\n        /* \"erc721a/contracts/ERC721A.sol\":11144:11246  function _safeMint(address to, uint256 quantity) internal {... */\n      pop\n      pop\n      jump\t// out\n        /* \"@openzeppelin/contracts/utils/Address.sol\":1175:1495  function isContract(address account) internal view returns (bool) {... */\n    tag_155:\n        /* \"@openzeppelin/contracts/utils/Address.sol\":1235:1239  bool */\n      0x00\n        /* \"@openzeppelin/contracts/utils/Address.sol\":1487:1488  0 */\n      dup1\n        /* \"@openzeppelin/contracts/utils/Address.sol\":1465:1472  account */\n      dup3\n        /* \"@openzeppelin/contracts/utils/Address.sol\":1465:1484  account.code.length */\n      0xffffffffffffffffffffffffffffffffffffffff\n      and\n      extcodesize\n        /* \"@openzeppelin/contracts/utils/Address.sol\":1465:1488  account.code.length > 0 */\n      gt\n        /* \"@openzeppelin/contracts/utils/Address.sol\":1458:1488  return account.code.length > 0 */\n      swap1\n      pop\n        /* \"@openzeppelin/contracts/utils/Address.sol\":1175:1495  function isContract(address account) internal view returns (bool) {... */\n      swap2\n      swap1\n      pop\n      jump\t// out\n        /* \"erc721a/contracts/ERC721A.sol\":19576:20226  function _checkContractOnERC721Received(... */\n    tag_158:\n        /* \"erc721a/contracts/ERC721A.sol\":19734:19738  bool */\n      0x00\n        /* \"erc721a/contracts/ERC721A.sol\":19770:19772  to */\n      dup4\n        /* \"erc721a/contracts/ERC721A.sol\":19754:19790  IERC721Receiver(to).onERC721Received */\n      0xffffffffffffffffffffffffffffffffffffffff\n      and\n      0x150b7a02\n        /* \"erc721a/contracts/ERC721A.sol\":19791:19803  _msgSender() */\n      tag_215\n        /* \"erc721a/contracts/ERC721A.sol\":19791:19801  _msgSender */\n      tag_117\n        /* \"erc721a/contracts/ERC721A.sol\":19791:19803  _msgSender() */\n      jump\t// in\n    tag_215:\n        /* \"erc721a/contracts/ERC721A.sol\":19805:19809  from */\n      dup8\n        /* \"erc721a/contracts/ERC721A.sol\":19811:19818  tokenId */\n      dup7\n        /* \"erc721a/contracts/ERC721A.sol\":19820:19825  _data */\n      dup7\n        /* \"erc721a/contracts/ERC721A.sol\":19754:19826  IERC721Receiver(to).onERC721Received(_msgSender(), from, tokenId, _data) */\n      mload(0x40)\n      dup6\n      0xffffffff\n      and\n      0xe0\n      shl\n      dup2\n      mstore\n      0x04\n      add\n      tag_216\n      swap5\n      swap4\n      swap3\n      swap2\n      swap1\n      tag_217\n      jump\t// in\n    tag_216:\n      0x20\n      mload(0x40)\n      dup1\n      dup4\n      sub\n      dup2\n      0x00\n      dup8\n      dup1\n      extcodesize\n      iszero\n      dup1\n      iszero\n      tag_218\n      jumpi\n      0x00\n      dup1\n      revert\n    tag_218:\n      pop\n      gas\n      call\n      swap3\n      pop\n      pop\n      pop\n      dup1\n      iszero\n      tag_219\n      jumpi\n      pop\n      mload(0x40)\n      returndatasize\n      not(0x1f)\n      0x1f\n      dup3\n      add\n      and\n      dup3\n      add\n      dup1\n      0x40\n      mstore\n      pop\n      dup2\n      add\n      swap1\n      tag_220\n      swap2\n      swap1\n      tag_221\n      jump\t// in\n    tag_220:\n      0x01\n    tag_219:\n        /* \"erc721a/contracts/ERC721A.sol\":19750:20220  try IERC721Receiver(to).onERC721Received(_msgSender(), from, tokenId, _data) returns (bytes4 retval) {... */\n      tag_222\n      jumpi\n      returndatasize\n      dup1\n      0x00\n      dup2\n      eq\n      tag_227\n      jumpi\n      mload(0x40)\n      swap2\n      pop\n      and(add(returndatasize, 0x3f), not(0x1f))\n      dup3\n      add\n      0x40\n      mstore\n      returndatasize\n      dup3\n      mstore\n      returndatasize\n      0x00\n      0x20\n      dup5\n      add\n      returndatacopy\n      jump(tag_226)\n    tag_227:\n      0x60\n      swap2\n      pop\n    tag_226:\n      pop\n        /* \"erc721a/contracts/ERC721A.sol\":20002:20003  0 */\n      0x00\n        /* \"erc721a/contracts/ERC721A.sol\":19985:19991  reason */\n      dup2\n        /* \"erc721a/contracts/ERC721A.sol\":19985:19998  reason.length */\n      mload\n        /* \"erc721a/contracts/ERC721A.sol\":19985:20003  reason.length == 0 */\n      eq\n        /* \"erc721a/contracts/ERC721A.sol\":19981:20210  if (reason.length == 0) {... */\n      iszero\n      tag_228\n      jumpi\n        /* \"erc721a/contracts/ERC721A.sol\":20030:20070  TransferToNonERC721ReceiverImplementer() */\n      mload(0x40)\n      0xd1a57ed600000000000000000000000000000000000000000000000000000000\n      dup2\n      mstore\n      0x04\n      add\n      mload(0x40)\n      dup1\n      swap2\n      sub\n      swap1\n      revert\n        /* \"erc721a/contracts/ERC721A.sol\":19981:20210  if (reason.length == 0) {... */\n    tag_228:\n        /* \"erc721a/contracts/ERC721A.sol\":20170:20176  reason */\n      dup1\n        /* \"erc721a/contracts/ERC721A.sol\":20164:20177  mload(reason) */\n      mload\n        /* \"erc721a/contracts/ERC721A.sol\":20155:20161  reason */\n      dup2\n        /* \"erc721a/contracts/ERC721A.sol\":20151:20153  32 */\n      0x20\n        /* \"erc721a/contracts/ERC721A.sol\":20147:20162  add(32, reason) */\n      add\n        /* \"erc721a/contracts/ERC721A.sol\":20140:20178  revert(add(32, reason), mload(reason)) */\n      revert\n        /* \"erc721a/contracts/ERC721A.sol\":19750:20220  try IERC721Receiver(to).onERC721Received(_msgSender(), from, tokenId, _data) returns (bytes4 retval) {... */\n    tag_222:\n        /* \"erc721a/contracts/ERC721A.sol\":19882:19927  IERC721Receiver(to).onERC721Received.selector */\n      shl(0xe0, 0x150b7a02)\n        /* \"erc721a/contracts/ERC721A.sol\":19872:19927  retval == IERC721Receiver(to).onERC721Received.selector */\n      not(0xffffffffffffffffffffffffffffffffffffffffffffffffffffffff)\n      and\n        /* \"erc721a/contracts/ERC721A.sol\":19872:19878  retval */\n      dup2\n        /* \"erc721a/contracts/ERC721A.sol\":19872:19927  retval == IERC721Receiver(to).onERC721Received.selector */\n      not(0xffffffffffffffffffffffffffffffffffffffffffffffffffffffff)\n      and\n      eq\n        /* \"erc721a/contracts/ERC721A.sol\":19865:19927  return retval == IERC721Receiver(to).onERC721Received.selector */\n      swap2\n      pop\n      pop\n        /* \"erc721a/contracts/ERC721A.sol\":19576:20226  function _checkContractOnERC721Received(... */\n      swap5\n      swap4\n      pop\n      pop\n      pop\n      pop\n      jump\t// out\n        /* \"erc721a/contracts/ERC721A.sol\":8463:8555  function _baseURI() internal view virtual returns (string memory) {... */\n    tag_164:\n        /* \"erc721a/contracts/ERC721A.sol\":8514:8527  string memory */\n      0x60\n        /* \"erc721a/contracts/ERC721A.sol\":8539:8548  return '' */\n      mload(0x40)\n      dup1\n      0x20\n      add\n      0x40\n      mstore\n      dup1\n      0x00\n      dup2\n      mstore\n      pop\n      swap1\n      pop\n        /* \"erc721a/contracts/ERC721A.sol\":8463:8555  function _baseURI() internal view virtual returns (string memory) {... */\n      swap1\n      jump\t// out\n        /* \"@openzeppelin/contracts/utils/Strings.sol\":328:1031  function toString(uint256 value) internal pure returns (string memory) {... */\n    tag_168:\n        /* \"@openzeppelin/contracts/utils/Strings.sol\":384:397  string memory */\n      0x60\n        /* \"@openzeppelin/contracts/utils/Strings.sol\":610:611  0 */\n      0x00\n        /* \"@openzeppelin/contracts/utils/Strings.sol\":601:606  value */\n      dup3\n        /* \"@openzeppelin/contracts/utils/Strings.sol\":601:611  value == 0 */\n      eq\n        /* \"@openzeppelin/contracts/utils/Strings.sol\":597:648  if (value == 0) {... */\n      iszero\n      tag_233\n      jumpi\n        /* \"@openzeppelin/contracts/utils/Strings.sol\":627:637  return \"0\" */\n      mload(0x40)\n      dup1\n      0x40\n      add\n      0x40\n      mstore\n      dup1\n      0x01\n      dup2\n      mstore\n      0x20\n      add\n      0x3000000000000000000000000000000000000000000000000000000000000000\n      dup2\n      mstore\n      pop\n      swap1\n      pop\n      jump(tag_232)\n        /* \"@openzeppelin/contracts/utils/Strings.sol\":597:648  if (value == 0) {... */\n    tag_233:\n        /* \"@openzeppelin/contracts/utils/Strings.sol\":657:669  uint256 temp */\n      0x00\n        /* \"@openzeppelin/contracts/utils/Strings.sol\":672:677  value */\n      dup3\n        /* \"@openzeppelin/contracts/utils/Strings.sol\":657:677  uint256 temp = value */\n      swap1\n      pop\n        /* \"@openzeppelin/contracts/utils/Strings.sol\":687:701  uint256 digits */\n      0x00\n        /* \"@openzeppelin/contracts/utils/Strings.sol\":711:786  while (temp != 0) {... */\n    tag_234:\n        /* \"@openzeppelin/contracts/utils/Strings.sol\":726:727  0 */\n      0x00\n        /* \"@openzeppelin/contracts/utils/Strings.sol\":718:722  temp */\n      dup3\n        /* \"@openzeppelin/contracts/utils/Strings.sol\":718:727  temp != 0 */\n      eq\n        /* \"@openzeppelin/contracts/utils/Strings.sol\":711:786  while (temp != 0) {... */\n      tag_235\n      jumpi\n        /* \"@openzeppelin/contracts/utils/Strings.sol\":743:751  digits++ */\n      dup1\n      dup1\n      tag_236\n      swap1\n      tag_237\n      jump\t// in\n    tag_236:\n      swap2\n      pop\n      pop\n        /* \"@openzeppelin/contracts/utils/Strings.sol\":773:775  10 */\n      0x0a\n        /* \"@openzeppelin/contracts/utils/Strings.sol\":765:775  temp /= 10 */\n      dup3\n      tag_238\n      swap2\n      swap1\n      tag_239\n      jump\t// in\n    tag_238:\n      swap2\n      pop\n        /* \"@openzeppelin/contracts/utils/Strings.sol\":711:786  while (temp != 0) {... */\n      jump(tag_234)\n    tag_235:\n        /* \"@openzeppelin/contracts/utils/Strings.sol\":795:814  bytes memory buffer */\n      0x00\n        /* \"@openzeppelin/contracts/utils/Strings.sol\":827:833  digits */\n      dup2\n        /* \"@openzeppelin/contracts/utils/Strings.sol\":817:834  new bytes(digits) */\n      0xffffffffffffffff\n      dup2\n      gt\n      iszero\n      tag_240\n      jumpi\n      tag_241\n      tag_242\n      jump\t// in\n    tag_241:\n    tag_240:\n      mload(0x40)\n      swap1\n      dup1\n      dup3\n      mstore\n      dup1\n      0x1f\n      add\n      not(0x1f)\n      and\n      0x20\n      add\n      dup3\n      add\n      0x40\n      mstore\n      dup1\n      iszero\n      tag_243\n      jumpi\n      dup2\n      0x20\n      add\n      0x01\n      dup3\n      mul\n      dup1\n      calldatasize\n      dup4\n      calldatacopy\n      dup1\n      dup3\n      add\n      swap2\n      pop\n      pop\n      swap1\n      pop\n    tag_243:\n      pop\n        /* \"@openzeppelin/contracts/utils/Strings.sol\":795:834  bytes memory buffer = new bytes(digits) */\n      swap1\n      pop\n        /* \"@openzeppelin/contracts/utils/Strings.sol\":844:994  while (value != 0) {... */\n    tag_244:\n        /* \"@openzeppelin/contracts/utils/Strings.sol\":860:861  0 */\n      0x00\n        /* \"@openzeppelin/contracts/utils/Strings.sol\":851:856  value */\n      dup6\n        /* \"@openzeppelin/contracts/utils/Strings.sol\":851:861  value != 0 */\n      eq\n        /* \"@openzeppelin/contracts/utils/Strings.sol\":844:994  while (value != 0) {... */\n      tag_245\n      jumpi\n        /* \"@openzeppelin/contracts/utils/Strings.sol\":887:888  1 */\n      0x01\n        /* \"@openzeppelin/contracts/utils/Strings.sol\":877:888  digits -= 1 */\n      dup3\n      tag_246\n      swap2\n      swap1\n      tag_247\n      jump\t// in\n    tag_246:\n      swap2\n      pop\n        /* \"@openzeppelin/contracts/utils/Strings.sol\":953:955  10 */\n      0x0a\n        /* \"@openzeppelin/contracts/utils/Strings.sol\":945:950  value */\n      dup6\n        /* \"@openzeppelin/contracts/utils/Strings.sol\":945:955  value % 10 */\n      tag_248\n      swap2\n      swap1\n      tag_249\n      jump\t// in\n    tag_248:\n        /* \"@openzeppelin/contracts/utils/Strings.sol\":932:934  48 */\n      0x30\n        /* \"@openzeppelin/contracts/utils/Strings.sol\":932:956  48 + uint256(value % 10) */\n      tag_250\n      swap2\n      swap1\n      tag_251\n      jump\t// in\n    tag_250:\n        /* \"@openzeppelin/contracts/utils/Strings.sol\":919:958  bytes1(uint8(48 + uint256(value % 10))) */\n      0xf8\n      shl\n        /* \"@openzeppelin/contracts/utils/Strings.sol\":902:908  buffer */\n      dup2\n        /* \"@openzeppelin/contracts/utils/Strings.sol\":909:915  digits */\n      dup4\n        /* \"@openzeppelin/contracts/utils/Strings.sol\":902:916  buffer[digits] */\n      dup2\n      mload\n      dup2\n      lt\n      tag_252\n      jumpi\n      tag_253\n      tag_254\n      jump\t// in\n    tag_253:\n    tag_252:\n      0x20\n      add\n      add\n        /* \"@openzeppelin/contracts/utils/Strings.sol\":902:958  buffer[digits] = bytes1(uint8(48 + uint256(value % 10))) */\n      swap1\n      not(0xffffffffffffffffffffffffffffffffffffffffffffffffffffffffffffff)\n      and\n      swap1\n      dup2\n      0x00\n      byte\n      swap1\n      mstore8\n      pop\n        /* \"@openzeppelin/contracts/utils/Strings.sol\":981:983  10 */\n      0x0a\n        /* \"@openzeppelin/contracts/utils/Strings.sol\":972:983  value /= 10 */\n      dup6\n      tag_255\n      swap2\n      swap1\n      tag_239\n      jump\t// in\n    tag_255:\n      swap5\n      pop\n        /* \"@openzeppelin/contracts/utils/Strings.sol\":844:994  while (value != 0) {... */\n      jump(tag_244)\n    tag_245:\n        /* \"@openzeppelin/contracts/utils/Strings.sol\":1017:1023  buffer */\n      dup1\n        /* \"@openzeppelin/contracts/utils/Strings.sol\":1003:1024  return string(buffer) */\n      swap4\n      pop\n      pop\n      pop\n      pop\n        /* \"@openzeppelin/contracts/utils/Strings.sol\":328:1031  function toString(uint256 value) internal pure returns (string memory) {... */\n    tag_232:\n      swap2\n      swap1\n      pop\n      jump\t// out\n        /* \"erc721a/contracts/ERC721A.sol\":20857:21011  function _beforeTokenTransfers(... */\n    tag_193:\n      pop\n      pop\n      pop\n      pop\n      jump\t// out\n        /* \"erc721a/contracts/ERC721A.sol\":21652:21805  function _afterTokenTransfers(... */\n    tag_198:\n      pop\n      pop\n      pop\n      pop\n      jump\t// out\n        /* \"erc721a/contracts/ERC721A.sol\":11597:11754  function _safeMint(... */\n    tag_212:\n        /* \"erc721a/contracts/ERC721A.sol\":11715:11747  _mint(to, quantity, _data, true) */\n      tag_259\n        /* \"erc721a/contracts/ERC721A.sol\":11721:11723  to */\n      dup4\n        /* \"erc721a/contracts/ERC721A.sol\":11725:11733  quantity */\n      dup4\n        /* \"erc721a/contracts/ERC721A.sol\":11735:11740  _data */\n      dup4\n        /* \"erc721a/contracts/ERC721A.sol\":11742:11746  true */\n      0x01\n        /* \"erc721a/contracts/ERC721A.sol\":11715:11720  _mint */\n      tag_260\n        /* \"erc721a/contracts/ERC721A.sol\":11715:11747  _mint(to, quantity, _data, true) */\n      jump\t// in\n    tag_259:\n        /* \"erc721a/contracts/ERC721A.sol\":11597:11754  function _safeMint(... */\n      pop\n      pop\n      pop\n      jump\t// out\n        /* \"erc721a/contracts/ERC721A.sol\":12001:13734  function _mint(... */\n    tag_260:\n        /* \"erc721a/contracts/ERC721A.sol\":12134:12154  uint256 startTokenId */\n      0x00\n        /* \"erc721a/contracts/ERC721A.sol\":12157:12170  _currentIndex */\n      dup1\n      sload\n        /* \"erc721a/contracts/ERC721A.sol\":12134:12170  uint256 startTokenId = _currentIndex */\n      swap1\n      pop\n        /* \"erc721a/contracts/ERC721A.sol\":12198:12199  0 */\n      0x00\n        /* \"erc721a/contracts/ERC721A.sol\":12184:12200  to == address(0) */\n      0xffffffffffffffffffffffffffffffffffffffff\n      and\n        /* \"erc721a/contracts/ERC721A.sol\":12184:12186  to */\n      dup6\n        /* \"erc721a/contracts/ERC721A.sol\":12184:12200  to == address(0) */\n      0xffffffffffffffffffffffffffffffffffffffff\n      and\n      eq\n        /* \"erc721a/contracts/ERC721A.sol\":12180:12228  if (to == address(0)) revert MintToZeroAddress() */\n      iszero\n      tag_262\n      jumpi\n        /* \"erc721a/contracts/ERC721A.sol\":12209:12228  MintToZeroAddress() */\n      mload(0x40)\n      0x2e07630000000000000000000000000000000000000000000000000000000000\n      dup2\n      mstore\n      0x04\n      add\n      mload(0x40)\n      dup1\n      swap2\n      sub\n      swap1\n      revert\n        /* \"erc721a/contracts/ERC721A.sol\":12180:12228  if (to == address(0)) revert MintToZeroAddress() */\n    tag_262:\n        /* \"erc721a/contracts/ERC721A.sol\":12254:12255  0 */\n      0x00\n        /* \"erc721a/contracts/ERC721A.sol\":12242:12250  quantity */\n      dup5\n        /* \"erc721a/contracts/ERC721A.sol\":12242:12255  quantity == 0 */\n      eq\n        /* \"erc721a/contracts/ERC721A.sol\":12238:12282  if (quantity == 0) revert MintZeroQuantity() */\n      iszero\n      tag_263\n      jumpi\n        /* \"erc721a/contracts/ERC721A.sol\":12264:12282  MintZeroQuantity() */\n      mload(0x40)\n      0xb562e8dd00000000000000000000000000000000000000000000000000000000\n      dup2\n      mstore\n      0x04\n      add\n      mload(0x40)\n      dup1\n      swap2\n      sub\n      swap1\n      revert\n        /* \"erc721a/contracts/ERC721A.sol\":12238:12282  if (quantity == 0) revert MintZeroQuantity() */\n    tag_263:\n        /* \"erc721a/contracts/ERC721A.sol\":12293:12354  _beforeTokenTransfers(address(0), to, startTokenId, quantity) */\n      tag_264\n        /* \"erc721a/contracts/ERC721A.sol\":12323:12324  0 */\n      0x00\n        /* \"erc721a/contracts/ERC721A.sol\":12327:12329  to */\n      dup7\n        /* \"erc721a/contracts/ERC721A.sol\":12331:12343  startTokenId */\n      dup4\n        /* \"erc721a/contracts/ERC721A.sol\":12345:12353  quantity */\n      dup8\n        /* \"erc721a/contracts/ERC721A.sol\":12293:12314  _beforeTokenTransfers */\n      tag_193\n        /* \"erc721a/contracts/ERC721A.sol\":12293:12354  _beforeTokenTransfers(address(0), to, startTokenId, quantity) */\n      jump\t// in\n    tag_264:\n        /* \"erc721a/contracts/ERC721A.sol\":12660:12668  quantity */\n      dup4\n        /* \"erc721a/contracts/ERC721A.sol\":12625:12637  _addressData */\n      0x05\n        /* \"erc721a/contracts/ERC721A.sol\":12625:12641  _addressData[to] */\n      0x00\n        /* \"erc721a/contracts/ERC721A.sol\":12638:12640  to */\n      dup8\n        /* \"erc721a/contracts/ERC721A.sol\":12625:12641  _addressData[to] */\n      0xffffffffffffffffffffffffffffffffffffffff\n      and\n      0xffffffffffffffffffffffffffffffffffffffff\n      and\n      dup2\n      mstore\n      0x20\n      add\n      swap1\n      dup2\n      mstore\n      0x20\n      add\n      0x00\n      keccak256\n        /* \"erc721a/contracts/ERC721A.sol\":12625:12649  _addressData[to].balance */\n      0x00\n      add\n      0x00\n        /* \"erc721a/contracts/ERC721A.sol\":12625:12669  _addressData[to].balance += uint64(quantity) */\n      dup3\n      dup3\n      dup3\n      swap1\n      sload\n      swap1\n      0x0100\n      exp\n      swap1\n      div\n      0xffffffffffffffff\n      and\n      add\n      swap3\n      pop\n      0x0100\n      exp\n      dup2\n      sload\n      dup2\n      0xffffffffffffffff\n      mul\n      not\n      and\n      swap1\n      dup4\n      0xffffffffffffffff\n      and\n      mul\n      or\n      swap1\n      sstore\n      pop\n        /* \"erc721a/contracts/ERC721A.sol\":12723:12731  quantity */\n      dup4\n        /* \"erc721a/contracts/ERC721A.sol\":12683:12695  _addressData */\n      0x05\n        /* \"erc721a/contracts/ERC721A.sol\":12683:12699  _addressData[to] */\n      0x00\n        /* \"erc721a/contracts/ERC721A.sol\":12696:12698  to */\n      dup8\n        /* \"erc721a/contracts/ERC721A.sol\":12683:12699  _addressData[to] */\n      0xffffffffffffffffffffffffffffffffffffffff\n      and\n      0xffffffffffffffffffffffffffffffffffffffff\n      and\n      dup2\n      mstore\n      0x20\n      add\n      swap1\n      dup2\n      mstore\n      0x20\n      add\n      0x00\n      keccak256\n        /* \"erc721a/contracts/ERC721A.sol\":12683:12712  _addressData[to].numberMinted */\n      0x00\n      add\n      0x08\n        /* \"erc721a/contracts/ERC721A.sol\":12683:12732  _addressData[to].numberMinted += uint64(quantity) */\n      dup3\n      dup3\n      dup3\n      swap1\n      sload\n      swap1\n      0x0100\n      exp\n      swap1\n      div\n      0xffffffffffffffff\n      and\n      add\n      swap3\n      pop\n      0x0100\n      exp\n      dup2\n      sload\n      dup2\n      0xffffffffffffffff\n      mul\n      not\n      and\n      swap1\n      dup4\n      0xffffffffffffffff\n      and\n      mul\n      or\n      swap1\n      sstore\n      pop\n        /* \"erc721a/contracts/ERC721A.sol\":12780:12782  to */\n      dup5\n        /* \"erc721a/contracts/ERC721A.sol\":12747:12758  _ownerships */\n      0x04\n        /* \"erc721a/contracts/ERC721A.sol\":12747:12772  _ownerships[startTokenId] */\n      0x00\n        /* \"erc721a/contracts/ERC721A.sol\":12759:12771  startTokenId */\n      dup4\n        /* \"erc721a/contracts/ERC721A.sol\":12747:12772  _ownerships[startTokenId] */\n      dup2\n      mstore\n      0x20\n      add\n      swap1\n      dup2\n      mstore\n      0x20\n      add\n      0x00\n      keccak256\n        /* \"erc721a/contracts/ERC721A.sol\":12747:12777  _ownerships[startTokenId].addr */\n      0x00\n      add\n      0x00\n        /* \"erc721a/contracts/ERC721A.sol\":12747:12782  _ownerships[startTokenId].addr = to */\n      0x0100\n      exp\n      dup2\n      sload\n      dup2\n      0xffffffffffffffffffffffffffffffffffffffff\n      mul\n      not\n      and\n      swap1\n      dup4\n      0xffffffffffffffffffffffffffffffffffffffff\n      and\n      mul\n      or\n      swap1\n      sstore\n      pop\n        /* \"erc721a/contracts/ERC721A.sol\":12846:12861  block.timestamp */\n      timestamp\n        /* \"erc721a/contracts/ERC721A.sol\":12796:12807  _ownerships */\n      0x04\n        /* \"erc721a/contracts/ERC721A.sol\":12796:12821  _ownerships[startTokenId] */\n      0x00\n        /* \"erc721a/contracts/ERC721A.sol\":12808:12820  startTokenId */\n      dup4\n        /* \"erc721a/contracts/ERC721A.sol\":12796:12821  _ownerships[startTokenId] */\n      dup2\n      mstore\n      0x20\n      add\n      swap1\n      dup2\n      mstore\n      0x20\n      add\n      0x00\n      keccak256\n        /* \"erc721a/contracts/ERC721A.sol\":12796:12836  _ownerships[startTokenId].startTimestamp */\n      0x00\n      add\n      0x14\n        /* \"erc721a/contracts/ERC721A.sol\":12796:12862  _ownerships[startTokenId].startTimestamp = uint64(block.timestamp) */\n      0x0100\n      exp\n      dup2\n      sload\n      dup2\n      0xffffffffffffffff\n      mul\n      not\n      and\n      swap1\n      dup4\n      0xffffffffffffffff\n      and\n      mul\n      or\n      swap1\n      sstore\n      pop\n        /* \"erc721a/contracts/ERC721A.sol\":12877:12897  uint256 updatedIndex */\n      0x00\n        /* \"erc721a/contracts/ERC721A.sol\":12900:12912  startTokenId */\n      dup2\n        /* \"erc721a/contracts/ERC721A.sol\":12877:12912  uint256 updatedIndex = startTokenId */\n      swap1\n      pop\n        /* \"erc721a/contracts/ERC721A.sol\":12926:12937  uint256 end */\n      0x00\n        /* \"erc721a/contracts/ERC721A.sol\":12955:12963  quantity */\n      dup6\n        /* \"erc721a/contracts/ERC721A.sol\":12940:12952  updatedIndex */\n      dup3\n        /* \"erc721a/contracts/ERC721A.sol\":12940:12963  updatedIndex + quantity */\n      add\n        /* \"erc721a/contracts/ERC721A.sol\":12926:12963  uint256 end = updatedIndex + quantity */\n      swap1\n      pop\n        /* \"erc721a/contracts/ERC721A.sol\":12982:12986  safe */\n      dup4\n        /* \"erc721a/contracts/ERC721A.sol\":12982:13005  safe && to.isContract() */\n      dup1\n      iszero\n      tag_265\n      jumpi\n      pop\n        /* \"erc721a/contracts/ERC721A.sol\":12990:13005  to.isContract() */\n      tag_266\n        /* \"erc721a/contracts/ERC721A.sol\":12990:12992  to */\n      dup8\n        /* \"erc721a/contracts/ERC721A.sol\":12990:13003  to.isContract */\n      0xffffffffffffffffffffffffffffffffffffffff\n      and\n      tag_155\n        /* \"erc721a/contracts/ERC721A.sol\":12990:13005  to.isContract() */\n      jump\t// in\n    tag_266:\n        /* \"erc721a/contracts/ERC721A.sol\":12982:13005  safe && to.isContract() */\n    tag_265:\n        /* \"erc721a/contracts/ERC721A.sol\":12978:13606  if (safe && to.isContract()) {... */\n      iszero\n      tag_267\n      jumpi\n        /* \"erc721a/contracts/ERC721A.sol\":13025:13334  do {... */\n    tag_268:\n        /* \"erc721a/contracts/ERC721A.sol\":13080:13092  updatedIndex */\n      dup2\n        /* \"erc721a/contracts/ERC721A.sol\":13076:13078  to */\n      dup8\n        /* \"erc721a/contracts/ERC721A.sol\":13055:13093  Transfer(address(0), to, updatedIndex) */\n      0xffffffffffffffffffffffffffffffffffffffff\n      and\n        /* \"erc721a/contracts/ERC721A.sol\":13072:13073  0 */\n      0x00\n        /* \"erc721a/contracts/ERC721A.sol\":13055:13093  Transfer(address(0), to, updatedIndex) */\n      0xffffffffffffffffffffffffffffffffffffffff\n      and\n      0xddf252ad1be2c89b69c2b068fc378daa952ba7f163c4a11628f55a4df523b3ef\n      mload(0x40)\n      mload(0x40)\n      dup1\n      swap2\n      sub\n      swap1\n      log4\n        /* \"erc721a/contracts/ERC721A.sol\":13120:13189  _checkContractOnERC721Received(address(0), to, updatedIndex++, _data) */\n      tag_271\n        /* \"erc721a/contracts/ERC721A.sol\":13159:13160  0 */\n      0x00\n        /* \"erc721a/contracts/ERC721A.sol\":13163:13165  to */\n      dup9\n        /* \"erc721a/contracts/ERC721A.sol\":13167:13181  updatedIndex++ */\n      dup5\n      dup1\n      0x01\n      add\n      swap6\n      pop\n        /* \"erc721a/contracts/ERC721A.sol\":13183:13188  _data */\n      dup9\n        /* \"erc721a/contracts/ERC721A.sol\":13120:13150  _checkContractOnERC721Received */\n      tag_158\n        /* \"erc721a/contracts/ERC721A.sol\":13120:13189  _checkContractOnERC721Received(address(0), to, updatedIndex++, _data) */\n      jump\t// in\n    tag_271:\n        /* \"erc721a/contracts/ERC721A.sol\":13115:13287  if (!_checkContractOnERC721Received(address(0), to, updatedIndex++, _data)) {... */\n      tag_272\n      jumpi\n        /* \"erc721a/contracts/ERC721A.sol\":13224:13264  TransferToNonERC721ReceiverImplementer() */\n      mload(0x40)\n      0xd1a57ed600000000000000000000000000000000000000000000000000000000\n      dup2\n      mstore\n      0x04\n      add\n      mload(0x40)\n      dup1\n      swap2\n      sub\n      swap1\n      revert\n        /* \"erc721a/contracts/ERC721A.sol\":13115:13287  if (!_checkContractOnERC721Received(address(0), to, updatedIndex++, _data)) {... */\n    tag_272:\n        /* \"erc721a/contracts/ERC721A.sol\":13329:13332  end */\n      dup1\n        /* \"erc721a/contracts/ERC721A.sol\":13313:13325  updatedIndex */\n      dup3\n        /* \"erc721a/contracts/ERC721A.sol\":13313:13332  updatedIndex != end */\n      eq\n      iszero\n        /* \"erc721a/contracts/ERC721A.sol\":13025:13334  do {... */\n      tag_268\n      jumpi\n        /* \"erc721a/contracts/ERC721A.sol\":13413:13425  startTokenId */\n      dup3\n        /* \"erc721a/contracts/ERC721A.sol\":13396:13409  _currentIndex */\n      sload(0x00)\n        /* \"erc721a/contracts/ERC721A.sol\":13396:13425  _currentIndex != startTokenId */\n      eq\n        /* \"erc721a/contracts/ERC721A.sol\":13392:13435  if (_currentIndex != startTokenId) revert() */\n      tag_273\n      jumpi\n        /* \"erc721a/contracts/ERC721A.sol\":13427:13435  revert() */\n      0x00\n      dup1\n      revert\n        /* \"erc721a/contracts/ERC721A.sol\":13392:13435  if (_currentIndex != startTokenId) revert() */\n    tag_273:\n        /* \"erc721a/contracts/ERC721A.sol\":12978:13606  if (safe && to.isContract()) {... */\n      jump(tag_274)\n    tag_267:\n        /* \"erc721a/contracts/ERC721A.sol\":13474:13592  do {... */\n    tag_275:\n        /* \"erc721a/contracts/ERC721A.sol\":13529:13543  updatedIndex++ */\n      dup2\n      dup1\n      0x01\n      add\n      swap3\n      pop\n        /* \"erc721a/contracts/ERC721A.sol\":13525:13527  to */\n      dup8\n        /* \"erc721a/contracts/ERC721A.sol\":13504:13544  Transfer(address(0), to, updatedIndex++) */\n      0xffffffffffffffffffffffffffffffffffffffff\n      and\n        /* \"erc721a/contracts/ERC721A.sol\":13521:13522  0 */\n      0x00\n        /* \"erc721a/contracts/ERC721A.sol\":13504:13544  Transfer(address(0), to, updatedIndex++) */\n      0xffffffffffffffffffffffffffffffffffffffff\n      and\n      0xddf252ad1be2c89b69c2b068fc378daa952ba7f163c4a11628f55a4df523b3ef\n      mload(0x40)\n      mload(0x40)\n      dup1\n      swap2\n      sub\n      swap1\n      log4\n        /* \"erc721a/contracts/ERC721A.sol\":13587:13590  end */\n      dup1\n        /* \"erc721a/contracts/ERC721A.sol\":13571:13583  updatedIndex */\n      dup3\n        /* \"erc721a/contracts/ERC721A.sol\":13571:13590  updatedIndex != end */\n      eq\n      iszero\n        /* \"erc721a/contracts/ERC721A.sol\":13474:13592  do {... */\n      tag_275\n      jumpi\n        /* \"erc721a/contracts/ERC721A.sol\":12978:13606  if (safe && to.isContract()) {... */\n    tag_274:\n        /* \"erc721a/contracts/ERC721A.sol\":13635:13647  updatedIndex */\n      dup2\n        /* \"erc721a/contracts/ERC721A.sol\":13619:13632  _currentIndex */\n      0x00\n        /* \"erc721a/contracts/ERC721A.sol\":13619:13647  _currentIndex = updatedIndex */\n      dup2\n      swap1\n      sstore\n      pop\n        /* \"erc721a/contracts/ERC721A.sol\":12601:13658  unchecked {... */\n      pop\n      pop\n        /* \"erc721a/contracts/ERC721A.sol\":13667:13727  _afterTokenTransfers(address(0), to, startTokenId, quantity) */\n      tag_278\n        /* \"erc721a/contracts/ERC721A.sol\":13696:13697  0 */\n      0x00\n        /* \"erc721a/contracts/ERC721A.sol\":13700:13702  to */\n      dup7\n        /* \"erc721a/contracts/ERC721A.sol\":13704:13716  startTokenId */\n      dup4\n        /* \"erc721a/contracts/ERC721A.sol\":13718:13726  quantity */\n      dup8\n        /* \"erc721a/contracts/ERC721A.sol\":13667:13687  _afterTokenTransfers */\n      tag_198\n        /* \"erc721a/contracts/ERC721A.sol\":13667:13727  _afterTokenTransfers(address(0), to, startTokenId, quantity) */\n      jump\t// in\n    tag_278:\n        /* \"erc721a/contracts/ERC721A.sol\":12124:13734  {... */\n      pop\n        /* \"erc721a/contracts/ERC721A.sol\":12001:13734  function _mint(... */\n      pop\n      pop\n      pop\n      pop\n      jump\t// out\n    tag_200:\n      mload(0x40)\n      dup1\n      0x60\n      add\n      0x40\n      mstore\n      dup1\n      and(0xffffffffffffffffffffffffffffffffffffffff, 0x00)\n      dup2\n      mstore\n      0x20\n      add\n      and(0xffffffffffffffff, 0x00)\n      dup2\n      mstore\n      0x20\n      add\n      iszero(iszero(0x00))\n      dup2\n      mstore\n      pop\n      swap1\n      jump\t// out\n        /* \"#utility.yul\":7:417   */\n    tag_280:\n        /* \"#utility.yul\":84:89   */\n      0x00\n        /* \"#utility.yul\":109:174   */\n      tag_282\n        /* \"#utility.yul\":125:173   */\n      tag_283\n        /* \"#utility.yul\":166:172   */\n      dup5\n        /* \"#utility.yul\":125:173   */\n      tag_284\n      jump\t// in\n    tag_283:\n        /* \"#utility.yul\":109:174   */\n      tag_285\n      jump\t// in\n    tag_282:\n        /* \"#utility.yul\":100:174   */\n      swap1\n      pop\n        /* \"#utility.yul\":197:203   */\n      dup3\n        /* \"#utility.yul\":190:195   */\n      dup2\n        /* \"#utility.yul\":183:204   */\n      mstore\n        /* \"#utility.yul\":235:239   */\n      0x20\n        /* \"#utility.yul\":228:233   */\n      dup2\n        /* \"#utility.yul\":224:240   */\n      add\n        /* \"#utility.yul\":273:276   */\n      dup5\n        /* \"#utility.yul\":264:270   */\n      dup5\n        /* \"#utility.yul\":259:262   */\n      dup5\n        /* \"#utility.yul\":255:271   */\n      add\n        /* \"#utility.yul\":252:277   */\n      gt\n        /* \"#utility.yul\":249:361   */\n      iszero\n      tag_286\n      jumpi\n        /* \"#utility.yul\":280:359   */\n      tag_287\n      tag_288\n      jump\t// in\n    tag_287:\n        /* \"#utility.yul\":249:361   */\n    tag_286:\n        /* \"#utility.yul\":370:411   */\n      tag_289\n        /* \"#utility.yul\":404:410   */\n      dup5\n        /* \"#utility.yul\":399:402   */\n      dup3\n        /* \"#utility.yul\":394:397   */\n      dup6\n        /* \"#utility.yul\":370:411   */\n      tag_290\n      jump\t// in\n    tag_289:\n        /* \"#utility.yul\":90:417   */\n      pop\n        /* \"#utility.yul\":7:417   */\n      swap4\n      swap3\n      pop\n      pop\n      pop\n      jump\t// out\n        /* \"#utility.yul\":423:562   */\n    tag_291:\n        /* \"#utility.yul\":469:474   */\n      0x00\n        /* \"#utility.yul\":507:513   */\n      dup2\n        /* \"#utility.yul\":494:514   */\n      calldataload\n        /* \"#utility.yul\":485:514   */\n      swap1\n      pop\n        /* \"#utility.yul\":523:556   */\n      tag_293\n        /* \"#utility.yul\":550:555   */\n      dup2\n        /* \"#utility.yul\":523:556   */\n      tag_294\n      jump\t// in\n    tag_293:\n        /* \"#utility.yul\":423:562   */\n      swap3\n      swap2\n      pop\n      pop\n      jump\t// out\n        /* \"#utility.yul\":568:701   */\n    tag_295:\n        /* \"#utility.yul\":611:616   */\n      0x00\n        /* \"#utility.yul\":649:655   */\n      dup2\n        /* \"#utility.yul\":636:656   */\n      calldataload\n        /* \"#utility.yul\":627:656   */\n      swap1\n      pop\n        /* \"#utility.yul\":665:695   */\n      tag_297\n        /* \"#utility.yul\":689:694   */\n      dup2\n        /* \"#utility.yul\":665:695   */\n      tag_298\n      jump\t// in\n    tag_297:\n        /* \"#utility.yul\":568:701   */\n      swap3\n      swap2\n      pop\n      pop\n      jump\t// out\n        /* \"#utility.yul\":707:844   */\n    tag_299:\n        /* \"#utility.yul\":752:757   */\n      0x00\n        /* \"#utility.yul\":790:796   */\n      dup2\n        /* \"#utility.yul\":777:797   */\n      calldataload\n        /* \"#utility.yul\":768:797   */\n      swap1\n      pop\n        /* \"#utility.yul\":806:838   */\n      tag_301\n        /* \"#utility.yul\":832:837   */\n      dup2\n        /* \"#utility.yul\":806:838   */\n      tag_302\n      jump\t// in\n    tag_301:\n        /* \"#utility.yul\":707:844   */\n      swap3\n      swap2\n      pop\n      pop\n      jump\t// out\n        /* \"#utility.yul\":850:991   */\n    tag_303:\n        /* \"#utility.yul\":906:911   */\n      0x00\n        /* \"#utility.yul\":937:943   */\n      dup2\n        /* \"#utility.yul\":931:944   */\n      mload\n        /* \"#utility.yul\":922:944   */\n      swap1\n      pop\n        /* \"#utility.yul\":953:985   */\n      tag_305\n        /* \"#utility.yul\":979:984   */\n      dup2\n        /* \"#utility.yul\":953:985   */\n      tag_302\n      jump\t// in\n    tag_305:\n        /* \"#utility.yul\":850:991   */\n      swap3\n      swap2\n      pop\n      pop\n      jump\t// out\n        /* \"#utility.yul\":1010:1348   */\n    tag_306:\n        /* \"#utility.yul\":1065:1070   */\n      0x00\n        /* \"#utility.yul\":1114:1117   */\n      dup3\n        /* \"#utility.yul\":1107:1111   */\n      0x1f\n        /* \"#utility.yul\":1099:1105   */\n      dup4\n        /* \"#utility.yul\":1095:1112   */\n      add\n        /* \"#utility.yul\":1091:1118   */\n      slt\n        /* \"#utility.yul\":1081:1203   */\n      tag_308\n      jumpi\n        /* \"#utility.yul\":1122:1201   */\n      tag_309\n      tag_310\n      jump\t// in\n    tag_309:\n        /* \"#utility.yul\":1081:1203   */\n    tag_308:\n        /* \"#utility.yul\":1239:1245   */\n      dup2\n        /* \"#utility.yul\":1226:1246   */\n      calldataload\n        /* \"#utility.yul\":1264:1342   */\n      tag_311\n        /* \"#utility.yul\":1338:1341   */\n      dup5\n        /* \"#utility.yul\":1330:1336   */\n      dup3\n        /* \"#utility.yul\":1323:1327   */\n      0x20\n        /* \"#utility.yul\":1315:1321   */\n      dup7\n        /* \"#utility.yul\":1311:1328   */\n      add\n        /* \"#utility.yul\":1264:1342   */\n      tag_280\n      jump\t// in\n    tag_311:\n        /* \"#utility.yul\":1255:1342   */\n      swap2\n      pop\n        /* \"#utility.yul\":1071:1348   */\n      pop\n        /* \"#utility.yul\":1010:1348   */\n      swap3\n      swap2\n      pop\n      pop\n      jump\t// out\n        /* \"#utility.yul\":1354:1493   */\n    tag_312:\n        /* \"#utility.yul\":1400:1405   */\n      0x00\n        /* \"#utility.yul\":1438:1444   */\n      dup2\n        /* \"#utility.yul\":1425:1445   */\n      calldataload\n        /* \"#utility.yul\":1416:1445   */\n      swap1\n      pop\n        /* \"#utility.yul\":1454:1487   */\n      tag_314\n        /* \"#utility.yul\":1481:1486   */\n      dup2\n        /* \"#utility.yul\":1454:1487   */\n      tag_315\n      jump\t// in\n    tag_314:\n        /* \"#utility.yul\":1354:1493   */\n      swap3\n      swap2\n      pop\n      pop\n      jump\t// out\n        /* \"#utility.yul\":1499:1828   */\n    tag_66:\n        /* \"#utility.yul\":1558:1564   */\n      0x00\n        /* \"#utility.yul\":1607:1609   */\n      0x20\n        /* \"#utility.yul\":1595:1604   */\n      dup3\n        /* \"#utility.yul\":1586:1593   */\n      dup5\n        /* \"#utility.yul\":1582:1605   */\n      sub\n        /* \"#utility.yul\":1578:1610   */\n      slt\n        /* \"#utility.yul\":1575:1694   */\n      iszero\n      tag_317\n      jumpi\n        /* \"#utility.yul\":1613:1692   */\n      tag_318\n      tag_319\n      jump\t// in\n    tag_318:\n        /* \"#utility.yul\":1575:1694   */\n    tag_317:\n        /* \"#utility.yul\":1733:1734   */\n      0x00\n        /* \"#utility.yul\":1758:1811   */\n      tag_320\n        /* \"#utility.yul\":1803:1810   */\n      dup5\n        /* \"#utility.yul\":1794:1800   */\n      dup3\n        /* \"#utility.yul\":1783:1792   */\n      dup6\n        /* \"#utility.yul\":1779:1801   */\n      add\n        /* \"#utility.yul\":1758:1811   */\n      tag_291\n      jump\t// in\n    tag_320:\n        /* \"#utility.yul\":1748:1811   */\n      swap2\n      pop\n        /* \"#utility.yul\":1704:1821   */\n      pop\n        /* \"#utility.yul\":1499:1828   */\n      swap3\n      swap2\n      pop\n      pop\n      jump\t// out\n        /* \"#utility.yul\":1834:2308   */\n    tag_94:\n        /* \"#utility.yul\":1902:1908   */\n      0x00\n        /* \"#utility.yul\":1910:1916   */\n      dup1\n        /* \"#utility.yul\":1959:1961   */\n      0x40\n        /* \"#utility.yul\":1947:1956   */\n      dup4\n        /* \"#utility.yul\":1938:1945   */\n      dup6\n        /* \"#utility.yul\":1934:1957   */\n      sub\n        /* \"#utility.yul\":1930:1962   */\n      slt\n        /* \"#utility.yul\":1927:2046   */\n      iszero\n      tag_322\n      jumpi\n        /* \"#utility.yul\":1965:2044   */\n      tag_323\n      tag_319\n      jump\t// in\n    tag_323:\n        /* \"#utility.yul\":1927:2046   */\n    tag_322:\n        /* \"#utility.yul\":2085:2086   */\n      0x00\n        /* \"#utility.yul\":2110:2163   */\n      tag_324\n        /* \"#utility.yul\":2155:2162   */\n      dup6\n        /* \"#utility.yul\":2146:2152   */\n      dup3\n        /* \"#utility.yul\":2135:2144   */\n      dup7\n        /* \"#utility.yul\":2131:2153   */\n      add\n        /* \"#utility.yul\":2110:2163   */\n      tag_291\n      jump\t// in\n    tag_324:\n        /* \"#utility.yul\":2100:2163   */\n      swap3\n      pop\n        /* \"#utility.yul\":2056:2173   */\n      pop\n        /* \"#utility.yul\":2212:2214   */\n      0x20\n        /* \"#utility.yul\":2238:2291   */\n      tag_325\n        /* \"#utility.yul\":2283:2290   */\n      dup6\n        /* \"#utility.yul\":2274:2280   */\n      dup3\n        /* \"#utility.yul\":2263:2272   */\n      dup7\n        /* \"#utility.yul\":2259:2281   */\n      add\n        /* \"#utility.yul\":2238:2291   */\n      tag_291\n      jump\t// in\n    tag_325:\n        /* \"#utility.yul\":2228:2291   */\n      swap2\n      pop\n        /* \"#utility.yul\":2183:2301   */\n      pop\n        /* \"#utility.yul\":1834:2308   */\n      swap3\n      pop\n      swap3\n      swap1\n      pop\n      jump\t// out\n        /* \"#utility.yul\":2314:2933   */\n    tag_52:\n        /* \"#utility.yul\":2391:2397   */\n      0x00\n        /* \"#utility.yul\":2399:2405   */\n      dup1\n        /* \"#utility.yul\":2407:2413   */\n      0x00\n        /* \"#utility.yul\":2456:2458   */\n      0x60\n        /* \"#utility.yul\":2444:2453   */\n      dup5\n        /* \"#utility.yul\":2435:2442   */\n      dup7\n        /* \"#utility.yul\":2431:2454   */\n      sub\n        /* \"#utility.yul\":2427:2459   */\n      slt\n        /* \"#utility.yul\":2424:2543   */\n      iszero\n      tag_327\n      jumpi\n        /* \"#utility.yul\":2462:2541   */\n      tag_328\n      tag_319\n      jump\t// in\n    tag_328:\n        /* \"#utility.yul\":2424:2543   */\n    tag_327:\n        /* \"#utility.yul\":2582:2583   */\n      0x00\n        /* \"#utility.yul\":2607:2660   */\n      tag_329\n        /* \"#utility.yul\":2652:2659   */\n      dup7\n        /* \"#utility.yul\":2643:2649   */\n      dup3\n        /* \"#utility.yul\":2632:2641   */\n      dup8\n        /* \"#utility.yul\":2628:2650   */\n      add\n        /* \"#utility.yul\":2607:2660   */\n      tag_291\n      jump\t// in\n    tag_329:\n        /* \"#utility.yul\":2597:2660   */\n      swap4\n      pop\n        /* \"#utility.yul\":2553:2670   */\n      pop\n        /* \"#utility.yul\":2709:2711   */\n      0x20\n        /* \"#utility.yul\":2735:2788   */\n      tag_330\n        /* \"#utility.yul\":2780:2787   */\n      dup7\n        /* \"#utility.yul\":2771:2777   */\n      dup3\n        /* \"#utility.yul\":2760:2769   */\n      dup8\n        /* \"#utility.yul\":2756:2778   */\n      add\n        /* \"#utility.yul\":2735:2788   */\n      tag_291\n      jump\t// in\n    tag_330:\n        /* \"#utility.yul\":2725:2788   */\n      swap3\n      pop\n        /* \"#utility.yul\":2680:2798   */\n      pop\n        /* \"#utility.yul\":2837:2839   */\n      0x40\n        /* \"#utility.yul\":2863:2916   */\n      tag_331\n        /* \"#utility.yul\":2908:2915   */\n      dup7\n        /* \"#utility.yul\":2899:2905   */\n      dup3\n        /* \"#utility.yul\":2888:2897   */\n      dup8\n        /* \"#utility.yul\":2884:2906   */\n      add\n        /* \"#utility.yul\":2863:2916   */\n      tag_312\n      jump\t// in\n    tag_331:\n        /* \"#utility.yul\":2853:2916   */\n      swap2\n      pop\n        /* \"#utility.yul\":2808:2926   */\n      pop\n        /* \"#utility.yul\":2314:2933   */\n      swap3\n      pop\n      swap3\n      pop\n      swap3\n      jump\t// out\n        /* \"#utility.yul\":2939:3882   */\n    tag_84:\n        /* \"#utility.yul\":3034:3040   */\n      0x00\n        /* \"#utility.yul\":3042:3048   */\n      dup1\n        /* \"#utility.yul\":3050:3056   */\n      0x00\n        /* \"#utility.yul\":3058:3064   */\n      dup1\n        /* \"#utility.yul\":3107:3110   */\n      0x80\n        /* \"#utility.yul\":3095:3104   */\n      dup6\n        /* \"#utility.yul\":3086:3093   */\n      dup8\n        /* \"#utility.yul\":3082:3105   */\n      sub\n        /* \"#utility.yul\":3078:3111   */\n      slt\n        /* \"#utility.yul\":3075:3195   */\n      iszero\n      tag_333\n      jumpi\n        /* \"#utility.yul\":3114:3193   */\n      tag_334\n      tag_319\n      jump\t// in\n    tag_334:\n        /* \"#utility.yul\":3075:3195   */\n    tag_333:\n        /* \"#utility.yul\":3234:3235   */\n      0x00\n        /* \"#utility.yul\":3259:3312   */\n      tag_335\n        /* \"#utility.yul\":3304:3311   */\n      dup8\n        /* \"#utility.yul\":3295:3301   */\n      dup3\n        /* \"#utility.yul\":3284:3293   */\n      dup9\n        /* \"#utility.yul\":3280:3302   */\n      add\n        /* \"#utility.yul\":3259:3312   */\n      tag_291\n      jump\t// in\n    tag_335:\n        /* \"#utility.yul\":3249:3312   */\n      swap5\n      pop\n        /* \"#utility.yul\":3205:3322   */\n      pop\n        /* \"#utility.yul\":3361:3363   */\n      0x20\n        /* \"#utility.yul\":3387:3440   */\n      tag_336\n        /* \"#utility.yul\":3432:3439   */\n      dup8\n        /* \"#utility.yul\":3423:3429   */\n      dup3\n        /* \"#utility.yul\":3412:3421   */\n      dup9\n        /* \"#utility.yul\":3408:3430   */\n      add\n        /* \"#utility.yul\":3387:3440   */\n      tag_291\n      jump\t// in\n    tag_336:\n        /* \"#utility.yul\":3377:3440   */\n      swap4\n      pop\n        /* \"#utility.yul\":3332:3450   */\n      pop\n        /* \"#utility.yul\":3489:3491   */\n      0x40\n        /* \"#utility.yul\":3515:3568   */\n      tag_337\n        /* \"#utility.yul\":3560:3567   */\n      dup8\n        /* \"#utility.yul\":3551:3557   */\n      dup3\n        /* \"#utility.yul\":3540:3549   */\n      dup9\n        /* \"#utility.yul\":3536:3558   */\n      add\n        /* \"#utility.yul\":3515:3568   */\n      tag_312\n      jump\t// in\n    tag_337:\n        /* \"#utility.yul\":3505:3568   */\n      swap3\n      pop\n        /* \"#utility.yul\":3460:3578   */\n      pop\n        /* \"#utility.yul\":3645:3647   */\n      0x60\n        /* \"#utility.yul\":3634:3643   */\n      dup6\n        /* \"#utility.yul\":3630:3648   */\n      add\n        /* \"#utility.yul\":3617:3649   */\n      calldataload\n        /* \"#utility.yul\":3676:3694   */\n      0xffffffffffffffff\n        /* \"#utility.yul\":3668:3674   */\n      dup2\n        /* \"#utility.yul\":3665:3695   */\n      gt\n        /* \"#utility.yul\":3662:3779   */\n      iszero\n      tag_338\n      jumpi\n        /* \"#utility.yul\":3698:3777   */\n      tag_339\n      tag_340\n      jump\t// in\n    tag_339:\n        /* \"#utility.yul\":3662:3779   */\n    tag_338:\n        /* \"#utility.yul\":3803:3865   */\n      tag_341\n        /* \"#utility.yul\":3857:3864   */\n      dup8\n        /* \"#utility.yul\":3848:3854   */\n      dup3\n        /* \"#utility.yul\":3837:3846   */\n      dup9\n        /* \"#utility.yul\":3833:3855   */\n      add\n        /* \"#utility.yul\":3803:3865   */\n      tag_306\n      jump\t// in\n    tag_341:\n        /* \"#utility.yul\":3793:3865   */\n      swap2\n      pop\n        /* \"#utility.yul\":3588:3875   */\n      pop\n        /* \"#utility.yul\":2939:3882   */\n      swap3\n      swap6\n      swap2\n      swap5\n      pop\n      swap3\n      pop\n      jump\t// out\n        /* \"#utility.yul\":3888:4356   */\n    tag_79:\n        /* \"#utility.yul\":3953:3959   */\n      0x00\n        /* \"#utility.yul\":3961:3967   */\n      dup1\n        /* \"#utility.yul\":4010:4012   */\n      0x40\n        /* \"#utility.yul\":3998:4007   */\n      dup4\n        /* \"#utility.yul\":3989:3996   */\n      dup6\n        /* \"#utility.yul\":3985:4008   */\n      sub\n        /* \"#utility.yul\":3981:4013   */\n      slt\n        /* \"#utility.yul\":3978:4097   */\n      iszero\n      tag_343\n      jumpi\n        /* \"#utility.yul\":4016:4095   */\n      tag_344\n      tag_319\n      jump\t// in\n    tag_344:\n        /* \"#utility.yul\":3978:4097   */\n    tag_343:\n        /* \"#utility.yul\":4136:4137   */\n      0x00\n        /* \"#utility.yul\":4161:4214   */\n      tag_345\n        /* \"#utility.yul\":4206:4213   */\n      dup6\n        /* \"#utility.yul\":4197:4203   */\n      dup3\n        /* \"#utility.yul\":4186:4195   */\n      dup7\n        /* \"#utility.yul\":4182:4204   */\n      add\n        /* \"#utility.yul\":4161:4214   */\n      tag_291\n      jump\t// in\n    tag_345:\n        /* \"#utility.yul\":4151:4214   */\n      swap3\n      pop\n        /* \"#utility.yul\":4107:4224   */\n      pop\n        /* \"#utility.yul\":4263:4265   */\n      0x20\n        /* \"#utility.yul\":4289:4339   */\n      tag_346\n        /* \"#utility.yul\":4331:4338   */\n      dup6\n        /* \"#utility.yul\":4322:4328   */\n      dup3\n        /* \"#utility.yul\":4311:4320   */\n      dup7\n        /* \"#utility.yul\":4307:4329   */\n      add\n        /* \"#utility.yul\":4289:4339   */\n      tag_295\n      jump\t// in\n    tag_346:\n        /* \"#utility.yul\":4279:4339   */\n      swap2\n      pop\n        /* \"#utility.yul\":4234:4349   */\n      pop\n        /* \"#utility.yul\":3888:4356   */\n      swap3\n      pop\n      swap3\n      swap1\n      pop\n      jump\t// out\n        /* \"#utility.yul\":4362:4836   */\n    tag_42:\n        /* \"#utility.yul\":4430:4436   */\n      0x00\n        /* \"#utility.yul\":4438:4444   */\n      dup1\n        /* \"#utility.yul\":4487:4489   */\n      0x40\n        /* \"#utility.yul\":4475:4484   */\n      dup4\n        /* \"#utility.yul\":4466:4473   */\n      dup6\n        /* \"#utility.yul\":4462:4485   */\n      sub\n        /* \"#utility.yul\":4458:4490   */\n      slt\n        /* \"#utility.yul\":4455:4574   */\n      iszero\n      tag_348\n      jumpi\n        /* \"#utility.yul\":4493:4572   */\n      tag_349\n      tag_319\n      jump\t// in\n    tag_349:\n        /* \"#utility.yul\":4455:4574   */\n    tag_348:\n        /* \"#utility.yul\":4613:4614   */\n      0x00\n        /* \"#utility.yul\":4638:4691   */\n      tag_350\n        /* \"#utility.yul\":4683:4690   */\n      dup6\n        /* \"#utility.yul\":4674:4680   */\n      dup3\n        /* \"#utility.yul\":4663:4672   */\n      dup7\n        /* \"#utility.yul\":4659:4681   */\n      add\n        /* \"#utility.yul\":4638:4691   */\n      tag_291\n      jump\t// in\n    tag_350:\n        /* \"#utility.yul\":4628:4691   */\n      swap3\n      pop\n        /* \"#utility.yul\":4584:4701   */\n      pop\n        /* \"#utility.yul\":4740:4742   */\n      0x20\n        /* \"#utility.yul\":4766:4819   */\n      tag_351\n        /* \"#utility.yul\":4811:4818   */\n      dup6\n        /* \"#utility.yul\":4802:4808   */\n      dup3\n        /* \"#utility.yul\":4791:4800   */\n      dup7\n        /* \"#utility.yul\":4787:4809   */\n      add\n        /* \"#utility.yul\":4766:4819   */\n      tag_312\n      jump\t// in\n    tag_351:\n        /* \"#utility.yul\":4756:4819   */\n      swap2\n      pop\n        /* \"#utility.yul\":4711:4829   */\n      pop\n        /* \"#utility.yul\":4362:4836   */\n      swap3\n      pop\n      swap3\n      swap1\n      pop\n      jump\t// out\n        /* \"#utility.yul\":4842:5169   */\n    tag_23:\n        /* \"#utility.yul\":4900:4906   */\n      0x00\n        /* \"#utility.yul\":4949:4951   */\n      0x20\n        /* \"#utility.yul\":4937:4946   */\n      dup3\n        /* \"#utility.yul\":4928:4935   */\n      dup5\n        /* \"#utility.yul\":4924:4947   */\n      sub\n        /* \"#utility.yul\":4920:4952   */\n      slt\n        /* \"#utility.yul\":4917:5036   */\n      iszero\n      tag_353\n      jumpi\n        /* \"#utility.yul\":4955:5034   */\n      tag_354\n      tag_319\n      jump\t// in\n    tag_354:\n        /* \"#utility.yul\":4917:5036   */\n    tag_353:\n        /* \"#utility.yul\":5075:5076   */\n      0x00\n        /* \"#utility.yul\":5100:5152   */\n      tag_355\n        /* \"#utility.yul\":5144:5151   */\n      dup5\n        /* \"#utility.yul\":5135:5141   */\n      dup3\n        /* \"#utility.yul\":5124:5133   */\n      dup6\n        /* \"#utility.yul\":5120:5142   */\n      add\n        /* \"#utility.yul\":5100:5152   */\n      tag_299\n      jump\t// in\n    tag_355:\n        /* \"#utility.yul\":5090:5152   */\n      swap2\n      pop\n        /* \"#utility.yul\":5046:5162   */\n      pop\n        /* \"#utility.yul\":4842:5169   */\n      swap3\n      swap2\n      pop\n      pop\n      jump\t// out\n        /* \"#utility.yul\":5175:5524   */\n    tag_221:\n        /* \"#utility.yul\":5244:5250   */\n      0x00\n        /* \"#utility.yul\":5293:5295   */\n      0x20\n        /* \"#utility.yul\":5281:5290   */\n      dup3\n        /* \"#utility.yul\":5272:5279   */\n      dup5\n        /* \"#utility.yul\":5268:5291   */\n      sub\n        /* \"#utility.yul\":5264:5296   */\n      slt\n        /* \"#utility.yul\":5261:5380   */\n      iszero\n      tag_357\n      jumpi\n        /* \"#utility.yul\":5299:5378   */\n      tag_358\n      tag_319\n      jump\t// in\n    tag_358:\n        /* \"#utility.yul\":5261:5380   */\n    tag_357:\n        /* \"#utility.yul\":5419:5420   */\n      0x00\n        /* \"#utility.yul\":5444:5507   */\n      tag_359\n        /* \"#utility.yul\":5499:5506   */\n      dup5\n        /* \"#utility.yul\":5490:5496   */\n      dup3\n        /* \"#utility.yul\":5479:5488   */\n      dup6\n        /* \"#utility.yul\":5475:5497   */\n      add\n        /* \"#utility.yul\":5444:5507   */\n      tag_303\n      jump\t// in\n    tag_359:\n        /* \"#utility.yul\":5434:5507   */\n      swap2\n      pop\n        /* \"#utility.yul\":5390:5517   */\n      pop\n        /* \"#utility.yul\":5175:5524   */\n      swap3\n      swap2\n      pop\n      pop\n      jump\t// out\n        /* \"#utility.yul\":5530:5859   */\n    tag_35:\n        /* \"#utility.yul\":5589:5595   */\n      0x00\n        /* \"#utility.yul\":5638:5640   */\n      0x20\n        /* \"#utility.yul\":5626:5635   */\n      dup3\n        /* \"#utility.yul\":5617:5624   */\n      dup5\n        /* \"#utility.yul\":5613:5636   */\n      sub\n        /* \"#utility.yul\":5609:5641   */\n      slt\n        /* \"#utility.yul\":5606:5725   */\n      iszero\n      tag_361\n      jumpi\n        /* \"#utility.yul\":5644:5723   */\n      tag_362\n      tag_319\n      jump\t// in\n    tag_362:\n        /* \"#utility.yul\":5606:5725   */\n    tag_361:\n        /* \"#utility.yul\":5764:5765   */\n      0x00\n        /* \"#utility.yul\":5789:5842   */\n      tag_363\n        /* \"#utility.yul\":5834:5841   */\n      dup5\n        /* \"#utility.yul\":5825:5831   */\n      dup3\n        /* \"#utility.yul\":5814:5823   */\n      dup6\n        /* \"#utility.yul\":5810:5832   */\n      add\n        /* \"#utility.yul\":5789:5842   */\n      tag_312\n      jump\t// in\n    tag_363:\n        /* \"#utility.yul\":5779:5842   */\n      swap2\n      pop\n        /* \"#utility.yul\":5735:5852   */\n      pop\n        /* \"#utility.yul\":5530:5859   */\n      swap3\n      swap2\n      pop\n      pop\n      jump\t// out\n        /* \"#utility.yul\":5865:5983   */\n    tag_364:\n        /* \"#utility.yul\":5952:5976   */\n      tag_366\n        /* \"#utility.yul\":5970:5975   */\n      dup2\n        /* \"#utility.yul\":5952:5976   */\n      tag_367\n      jump\t// in\n    tag_366:\n        /* \"#utility.yul\":5947:5950   */\n      dup3\n        /* \"#utility.yul\":5940:5977   */\n      mstore\n        /* \"#utility.yul\":5865:5983   */\n      pop\n      pop\n      jump\t// out\n        /* \"#utility.yul\":5989:6098   */\n    tag_368:\n        /* \"#utility.yul\":6070:6091   */\n      tag_370\n        /* \"#utility.yul\":6085:6090   */\n      dup2\n        /* \"#utility.yul\":6070:6091   */\n      tag_371\n      jump\t// in\n    tag_370:\n        /* \"#utility.yul\":6065:6068   */\n      dup3\n        /* \"#utility.yul\":6058:6092   */\n      mstore\n        /* \"#utility.yul\":5989:6098   */\n      pop\n      pop\n      jump\t// out\n        /* \"#utility.yul\":6104:6464   */\n    tag_372:\n        /* \"#utility.yul\":6190:6193   */\n      0x00\n        /* \"#utility.yul\":6218:6256   */\n      tag_374\n        /* \"#utility.yul\":6250:6255   */\n      dup3\n        /* \"#utility.yul\":6218:6256   */\n      tag_375\n      jump\t// in\n    tag_374:\n        /* \"#utility.yul\":6272:6342   */\n      tag_376\n        /* \"#utility.yul\":6335:6341   */\n      dup2\n        /* \"#utility.yul\":6330:6333   */\n      dup6\n        /* \"#utility.yul\":6272:6342   */\n      tag_377\n      jump\t// in\n    tag_376:\n        /* \"#utility.yul\":6265:6342   */\n      swap4\n      pop\n        /* \"#utility.yul\":6351:6403   */\n      tag_378\n        /* \"#utility.yul\":6396:6402   */\n      dup2\n        /* \"#utility.yul\":6391:6394   */\n      dup6\n        /* \"#utility.yul\":6384:6388   */\n      0x20\n        /* \"#utility.yul\":6377:6382   */\n      dup7\n        /* \"#utility.yul\":6373:6389   */\n      add\n        /* \"#utility.yul\":6351:6403   */\n      tag_379\n      jump\t// in\n    tag_378:\n        /* \"#utility.yul\":6428:6457   */\n      tag_380\n        /* \"#utility.yul\":6450:6456   */\n      dup2\n        /* \"#utility.yul\":6428:6457   */\n      tag_381\n      jump\t// in\n    tag_380:\n        /* \"#utility.yul\":6423:6426   */\n      dup5\n        /* \"#utility.yul\":6419:6458   */\n      add\n        /* \"#utility.yul\":6412:6458   */\n      swap2\n      pop\n        /* \"#utility.yul\":6194:6464   */\n      pop\n        /* \"#utility.yul\":6104:6464   */\n      swap3\n      swap2\n      pop\n      pop\n      jump\t// out\n        /* \"#utility.yul\":6470:6834   */\n    tag_382:\n        /* \"#utility.yul\":6558:6561   */\n      0x00\n        /* \"#utility.yul\":6586:6625   */\n      tag_384\n        /* \"#utility.yul\":6619:6624   */\n      dup3\n        /* \"#utility.yul\":6586:6625   */\n      tag_385\n      jump\t// in\n    tag_384:\n        /* \"#utility.yul\":6641:6712   */\n      tag_386\n        /* \"#utility.yul\":6705:6711   */\n      dup2\n        /* \"#utility.yul\":6700:6703   */\n      dup6\n        /* \"#utility.yul\":6641:6712   */\n      tag_387\n      jump\t// in\n    tag_386:\n        /* \"#utility.yul\":6634:6712   */\n      swap4\n      pop\n        /* \"#utility.yul\":6721:6773   */\n      tag_388\n        /* \"#utility.yul\":6766:6772   */\n      dup2\n        /* \"#utility.yul\":6761:6764   */\n      dup6\n        /* \"#utility.yul\":6754:6758   */\n      0x20\n        /* \"#utility.yul\":6747:6752   */\n      dup7\n        /* \"#utility.yul\":6743:6759   */\n      add\n        /* \"#utility.yul\":6721:6773   */\n      tag_379\n      jump\t// in\n    tag_388:\n        /* \"#utility.yul\":6798:6827   */\n      tag_389\n        /* \"#utility.yul\":6820:6826   */\n      dup2\n        /* \"#utility.yul\":6798:6827   */\n      tag_381\n      jump\t// in\n    tag_389:\n        /* \"#utility.yul\":6793:6796   */\n      dup5\n        /* \"#utility.yul\":6789:6828   */\n      add\n        /* \"#utility.yul\":6782:6828   */\n      swap2\n      pop\n        /* \"#utility.yul\":6562:6834   */\n      pop\n        /* \"#utility.yul\":6470:6834   */\n      swap3\n      swap2\n      pop\n      pop\n      jump\t// out\n        /* \"#utility.yul\":6840:7217   */\n    tag_390:\n        /* \"#utility.yul\":6946:6949   */\n      0x00\n        /* \"#utility.yul\":6974:7013   */\n      tag_392\n        /* \"#utility.yul\":7007:7012   */\n      dup3\n        /* \"#utility.yul\":6974:7013   */\n      tag_385\n      jump\t// in\n    tag_392:\n        /* \"#utility.yul\":7029:7118   */\n      tag_393\n        /* \"#utility.yul\":7111:7117   */\n      dup2\n        /* \"#utility.yul\":7106:7109   */\n      dup6\n        /* \"#utility.yul\":7029:7118   */\n      tag_394\n      jump\t// in\n    tag_393:\n        /* \"#utility.yul\":7022:7118   */\n      swap4\n      pop\n        /* \"#utility.yul\":7127:7179   */\n      tag_395\n        /* \"#utility.yul\":7172:7178   */\n      dup2\n        /* \"#utility.yul\":7167:7170   */\n      dup6\n        /* \"#utility.yul\":7160:7164   */\n      0x20\n        /* \"#utility.yul\":7153:7158   */\n      dup7\n        /* \"#utility.yul\":7149:7165   */\n      add\n        /* \"#utility.yul\":7127:7179   */\n      tag_379\n      jump\t// in\n    tag_395:\n        /* \"#utility.yul\":7204:7210   */\n      dup1\n        /* \"#utility.yul\":7199:7202   */\n      dup5\n        /* \"#utility.yul\":7195:7211   */\n      add\n        /* \"#utility.yul\":7188:7211   */\n      swap2\n      pop\n        /* \"#utility.yul\":6950:7217   */\n      pop\n        /* \"#utility.yul\":6840:7217   */\n      swap3\n      swap2\n      pop\n      pop\n      jump\t// out\n        /* \"#utility.yul\":7223:7341   */\n    tag_396:\n        /* \"#utility.yul\":7310:7334   */\n      tag_398\n        /* \"#utility.yul\":7328:7333   */\n      dup2\n        /* \"#utility.yul\":7310:7334   */\n      tag_399\n      jump\t// in\n    tag_398:\n        /* \"#utility.yul\":7305:7308   */\n      dup3\n        /* \"#utility.yul\":7298:7335   */\n      mstore\n        /* \"#utility.yul\":7223:7341   */\n      pop\n      pop\n      jump\t// out\n        /* \"#utility.yul\":7347:7782   */\n    tag_170:\n        /* \"#utility.yul\":7527:7530   */\n      0x00\n        /* \"#utility.yul\":7549:7644   */\n      tag_401\n        /* \"#utility.yul\":7640:7643   */\n      dup3\n        /* \"#utility.yul\":7631:7637   */\n      dup6\n        /* \"#utility.yul\":7549:7644   */\n      tag_390\n      jump\t// in\n    tag_401:\n        /* \"#utility.yul\":7542:7644   */\n      swap2\n      pop\n        /* \"#utility.yul\":7661:7756   */\n      tag_402\n        /* \"#utility.yul\":7752:7755   */\n      dup3\n        /* \"#utility.yul\":7743:7749   */\n      dup5\n        /* \"#utility.yul\":7661:7756   */\n      tag_390\n      jump\t// in\n    tag_402:\n        /* \"#utility.yul\":7654:7756   */\n      swap2\n      pop\n        /* \"#utility.yul\":7773:7776   */\n      dup2\n        /* \"#utility.yul\":7766:7776   */\n      swap1\n      pop\n        /* \"#utility.yul\":7347:7782   */\n      swap4\n      swap3\n      pop\n      pop\n      pop\n      jump\t// out\n        /* \"#utility.yul\":7788:8010   */\n    tag_38:\n        /* \"#utility.yul\":7881:7885   */\n      0x00\n        /* \"#utility.yul\":7919:7921   */\n      0x20\n        /* \"#utility.yul\":7908:7917   */\n      dup3\n        /* \"#utility.yul\":7904:7922   */\n      add\n        /* \"#utility.yul\":7896:7922   */\n      swap1\n      pop\n        /* \"#utility.yul\":7932:8003   */\n      tag_404\n        /* \"#utility.yul\":8000:8001   */\n      0x00\n        /* \"#utility.yul\":7989:7998   */\n      dup4\n        /* \"#utility.yul\":7985:8002   */\n      add\n        /* \"#utility.yul\":7976:7982   */\n      dup5\n        /* \"#utility.yul\":7932:8003   */\n      tag_364\n      jump\t// in\n    tag_404:\n        /* \"#utility.yul\":7788:8010   */\n      swap3\n      swap2\n      pop\n      pop\n      jump\t// out\n        /* \"#utility.yul\":8016:8656   */\n    tag_217:\n        /* \"#utility.yul\":8211:8215   */\n      0x00\n        /* \"#utility.yul\":8249:8252   */\n      0x80\n        /* \"#utility.yul\":8238:8247   */\n      dup3\n        /* \"#utility.yul\":8234:8253   */\n      add\n        /* \"#utility.yul\":8226:8253   */\n      swap1\n      pop\n        /* \"#utility.yul\":8263:8334   */\n      tag_406\n        /* \"#utility.yul\":8331:8332   */\n      0x00\n        /* \"#utility.yul\":8320:8329   */\n      dup4\n        /* \"#utility.yul\":8316:8333   */\n      add\n        /* \"#utility.yul\":8307:8313   */\n      dup8\n        /* \"#utility.yul\":8263:8334   */\n      tag_364\n      jump\t// in\n    tag_406:\n        /* \"#utility.yul\":8344:8416   */\n      tag_407\n        /* \"#utility.yul\":8412:8414   */\n      0x20\n        /* \"#utility.yul\":8401:8410   */\n      dup4\n        /* \"#utility.yul\":8397:8415   */\n      add\n        /* \"#utility.yul\":8388:8394   */\n      dup7\n        /* \"#utility.yul\":8344:8416   */\n      tag_364\n      jump\t// in\n    tag_407:\n        /* \"#utility.yul\":8426:8498   */\n      tag_408\n        /* \"#utility.yul\":8494:8496   */\n      0x40\n        /* \"#utility.yul\":8483:8492   */\n      dup4\n        /* \"#utility.yul\":8479:8497   */\n      add\n        /* \"#utility.yul\":8470:8476   */\n      dup6\n        /* \"#utility.yul\":8426:8498   */\n      tag_396\n      jump\t// in\n    tag_408:\n        /* \"#utility.yul\":8545:8554   */\n      dup2\n        /* \"#utility.yul\":8539:8543   */\n      dup2\n        /* \"#utility.yul\":8535:8555   */\n      sub\n        /* \"#utility.yul\":8530:8532   */\n      0x60\n        /* \"#utility.yul\":8519:8528   */\n      dup4\n        /* \"#utility.yul\":8515:8533   */\n      add\n        /* \"#utility.yul\":8508:8556   */\n      mstore\n        /* \"#utility.yul\":8573:8649   */\n      tag_409\n        /* \"#utility.yul\":8644:8648   */\n      dup2\n        /* \"#utility.yul\":8635:8641   */\n      dup5\n        /* \"#utility.yul\":8573:8649   */\n      tag_372\n      jump\t// in\n    tag_409:\n        /* \"#utility.yul\":8565:8649   */\n      swap1\n      pop\n        /* \"#utility.yul\":8016:8656   */\n      swap6\n      swap5\n      pop\n      pop\n      pop\n      pop\n      pop\n      jump\t// out\n        /* \"#utility.yul\":8662:8872   */\n    tag_26:\n        /* \"#utility.yul\":8749:8753   */\n      0x00\n        /* \"#utility.yul\":8787:8789   */\n      0x20\n        /* \"#utility.yul\":8776:8785   */\n      dup3\n        /* \"#utility.yul\":8772:8790   */\n      add\n        /* \"#utility.yul\":8764:8790   */\n      swap1\n      pop\n        /* \"#utility.yul\":8800:8865   */\n      tag_411\n        /* \"#utility.yul\":8862:8863   */\n      0x00\n        /* \"#utility.yul\":8851:8860   */\n      dup4\n        /* \"#utility.yul\":8847:8864   */\n      add\n        /* \"#utility.yul\":8838:8844   */\n      dup5\n        /* \"#utility.yul\":8800:8865   */\n      tag_368\n      jump\t// in\n    tag_411:\n        /* \"#utility.yul\":8662:8872   */\n      swap3\n      swap2\n      pop\n      pop\n      jump\t// out\n        /* \"#utility.yul\":8878:9191   */\n    tag_31:\n        /* \"#utility.yul\":8991:8995   */\n      0x00\n        /* \"#utility.yul\":9029:9031   */\n      0x20\n        /* \"#utility.yul\":9018:9027   */\n      dup3\n        /* \"#utility.yul\":9014:9032   */\n      add\n        /* \"#utility.yul\":9006:9032   */\n      swap1\n      pop\n        /* \"#utility.yul\":9078:9087   */\n      dup2\n        /* \"#utility.yul\":9072:9076   */\n      dup2\n        /* \"#utility.yul\":9068:9088   */\n      sub\n        /* \"#utility.yul\":9064:9065   */\n      0x00\n        /* \"#utility.yul\":9053:9062   */\n      dup4\n        /* \"#utility.yul\":9049:9066   */\n      add\n        /* \"#utility.yul\":9042:9089   */\n      mstore\n        /* \"#utility.yul\":9106:9184   */\n      tag_413\n        /* \"#utility.yul\":9179:9183   */\n      dup2\n        /* \"#utility.yul\":9170:9176   */\n      dup5\n        /* \"#utility.yul\":9106:9184   */\n      tag_382\n      jump\t// in\n    tag_413:\n        /* \"#utility.yul\":9098:9184   */\n      swap1\n      pop\n        /* \"#utility.yul\":8878:9191   */\n      swap3\n      swap2\n      pop\n      pop\n      jump\t// out\n        /* \"#utility.yul\":9197:9419   */\n    tag_48:\n        /* \"#utility.yul\":9290:9294   */\n      0x00\n        /* \"#utility.yul\":9328:9330   */\n      0x20\n        /* \"#utility.yul\":9317:9326   */\n      dup3\n        /* \"#utility.yul\":9313:9331   */\n      add\n        /* \"#utility.yul\":9305:9331   */\n      swap1\n      pop\n        /* \"#utility.yul\":9341:9412   */\n      tag_415\n        /* \"#utility.yul\":9409:9410   */\n      0x00\n        /* \"#utility.yul\":9398:9407   */\n      dup4\n        /* \"#utility.yul\":9394:9411   */\n      add\n        /* \"#utility.yul\":9385:9391   */\n      dup5\n        /* \"#utility.yul\":9341:9412   */\n      tag_396\n      jump\t// in\n    tag_415:\n        /* \"#utility.yul\":9197:9419   */\n      swap3\n      swap2\n      pop\n      pop\n      jump\t// out\n        /* \"#utility.yul\":9425:9554   */\n    tag_285:\n        /* \"#utility.yul\":9459:9465   */\n      0x00\n        /* \"#utility.yul\":9486:9506   */\n      tag_417\n      tag_418\n      jump\t// in\n    tag_417:\n        /* \"#utility.yul\":9476:9506   */\n      swap1\n      pop\n        /* \"#utility.yul\":9515:9548   */\n      tag_419\n        /* \"#utility.yul\":9543:9547   */\n      dup3\n        /* \"#utility.yul\":9535:9541   */\n      dup3\n        /* \"#utility.yul\":9515:9548   */\n      tag_420\n      jump\t// in\n    tag_419:\n        /* \"#utility.yul\":9425:9554   */\n      swap2\n      swap1\n      pop\n      jump\t// out\n        /* \"#utility.yul\":9560:9635   */\n    tag_418:\n        /* \"#utility.yul\":9593:9599   */\n      0x00\n        /* \"#utility.yul\":9626:9628   */\n      0x40\n        /* \"#utility.yul\":9620:9629   */\n      mload\n        /* \"#utility.yul\":9610:9629   */\n      swap1\n      pop\n        /* \"#utility.yul\":9560:9635   */\n      swap1\n      jump\t// out\n        /* \"#utility.yul\":9641:9948   */\n    tag_284:\n        /* \"#utility.yul\":9702:9706   */\n      0x00\n        /* \"#utility.yul\":9792:9810   */\n      0xffffffffffffffff\n        /* \"#utility.yul\":9784:9790   */\n      dup3\n        /* \"#utility.yul\":9781:9811   */\n      gt\n        /* \"#utility.yul\":9778:9834   */\n      iszero\n      tag_423\n      jumpi\n        /* \"#utility.yul\":9814:9832   */\n      tag_424\n      tag_242\n      jump\t// in\n    tag_424:\n        /* \"#utility.yul\":9778:9834   */\n    tag_423:\n        /* \"#utility.yul\":9852:9881   */\n      tag_425\n        /* \"#utility.yul\":9874:9880   */\n      dup3\n        /* \"#utility.yul\":9852:9881   */\n      tag_381\n      jump\t// in\n    tag_425:\n        /* \"#utility.yul\":9844:9881   */\n      swap1\n      pop\n        /* \"#utility.yul\":9936:9940   */\n      0x20\n        /* \"#utility.yul\":9930:9934   */\n      dup2\n        /* \"#utility.yul\":9926:9941   */\n      add\n        /* \"#utility.yul\":9918:9941   */\n      swap1\n      pop\n        /* \"#utility.yul\":9641:9948   */\n      swap2\n      swap1\n      pop\n      jump\t// out\n        /* \"#utility.yul\":9954:10052   */\n    tag_375:\n        /* \"#utility.yul\":10005:10011   */\n      0x00\n        /* \"#utility.yul\":10039:10044   */\n      dup2\n        /* \"#utility.yul\":10033:10045   */\n      mload\n        /* \"#utility.yul\":10023:10045   */\n      swap1\n      pop\n        /* \"#utility.yul\":9954:10052   */\n      swap2\n      swap1\n      pop\n      jump\t// out\n        /* \"#utility.yul\":10058:10157   */\n    tag_385:\n        /* \"#utility.yul\":10110:10116   */\n      0x00\n        /* \"#utility.yul\":10144:10149   */\n      dup2\n        /* \"#utility.yul\":10138:10150   */\n      mload\n        /* \"#utility.yul\":10128:10150   */\n      swap1\n      pop\n        /* \"#utility.yul\":10058:10157   */\n      swap2\n      swap1\n      pop\n      jump\t// out\n        /* \"#utility.yul\":10163:10331   */\n    tag_377:\n        /* \"#utility.yul\":10246:10257   */\n      0x00\n        /* \"#utility.yul\":10280:10286   */\n      dup3\n        /* \"#utility.yul\":10275:10278   */\n      dup3\n        /* \"#utility.yul\":10268:10287   */\n      mstore\n        /* \"#utility.yul\":10320:10324   */\n      0x20\n        /* \"#utility.yul\":10315:10318   */\n      dup3\n        /* \"#utility.yul\":10311:10325   */\n      add\n        /* \"#utility.yul\":10296:10325   */\n      swap1\n      pop\n        /* \"#utility.yul\":10163:10331   */\n      swap3\n      swap2\n      pop\n      pop\n      jump\t// out\n        /* \"#utility.yul\":10337:10506   */\n    tag_387:\n        /* \"#utility.yul\":10421:10432   */\n      0x00\n        /* \"#utility.yul\":10455:10461   */\n      dup3\n        /* \"#utility.yul\":10450:10453   */\n      dup3\n        /* \"#utility.yul\":10443:10462   */\n      mstore\n        /* \"#utility.yul\":10495:10499   */\n      0x20\n        /* \"#utility.yul\":10490:10493   */\n      dup3\n        /* \"#utility.yul\":10486:10500   */\n      add\n        /* \"#utility.yul\":10471:10500   */\n      swap1\n      pop\n        /* \"#utility.yul\":10337:10506   */\n      swap3\n      swap2\n      pop\n      pop\n      jump\t// out\n        /* \"#utility.yul\":10512:10660   */\n    tag_394:\n        /* \"#utility.yul\":10614:10625   */\n      0x00\n        /* \"#utility.yul\":10651:10654   */\n      dup2\n        /* \"#utility.yul\":10636:10654   */\n      swap1\n      pop\n        /* \"#utility.yul\":10512:10660   */\n      swap3\n      swap2\n      pop\n      pop\n      jump\t// out\n        /* \"#utility.yul\":10666:10971   */\n    tag_251:\n        /* \"#utility.yul\":10706:10709   */\n      0x00\n        /* \"#utility.yul\":10725:10745   */\n      tag_432\n        /* \"#utility.yul\":10743:10744   */\n      dup3\n        /* \"#utility.yul\":10725:10745   */\n      tag_399\n      jump\t// in\n    tag_432:\n        /* \"#utility.yul\":10720:10745   */\n      swap2\n      pop\n        /* \"#utility.yul\":10759:10779   */\n      tag_433\n        /* \"#utility.yul\":10777:10778   */\n      dup4\n        /* \"#utility.yul\":10759:10779   */\n      tag_399\n      jump\t// in\n    tag_433:\n        /* \"#utility.yul\":10754:10779   */\n      swap3\n      pop\n        /* \"#utility.yul\":10913:10914   */\n      dup3\n        /* \"#utility.yul\":10845:10911   */\n      0xffffffffffffffffffffffffffffffffffffffffffffffffffffffffffffffff\n        /* \"#utility.yul\":10841:10915   */\n      sub\n        /* \"#utility.yul\":10838:10839   */\n      dup3\n        /* \"#utility.yul\":10835:10916   */\n      gt\n        /* \"#utility.yul\":10832:10939   */\n      iszero\n      tag_434\n      jumpi\n        /* \"#utility.yul\":10919:10937   */\n      tag_435\n      tag_436\n      jump\t// in\n    tag_435:\n        /* \"#utility.yul\":10832:10939   */\n    tag_434:\n        /* \"#utility.yul\":10963:10964   */\n      dup3\n        /* \"#utility.yul\":10960:10961   */\n      dup3\n        /* \"#utility.yul\":10956:10965   */\n      add\n        /* \"#utility.yul\":10949:10965   */\n      swap1\n      pop\n        /* \"#utility.yul\":10666:10971   */\n      swap3\n      swap2\n      pop\n      pop\n      jump\t// out\n        /* \"#utility.yul\":10977:11162   */\n    tag_239:\n        /* \"#utility.yul\":11017:11018   */\n      0x00\n        /* \"#utility.yul\":11034:11054   */\n      tag_438\n        /* \"#utility.yul\":11052:11053   */\n      dup3\n        /* \"#utility.yul\":11034:11054   */\n      tag_399\n      jump\t// in\n    tag_438:\n        /* \"#utility.yul\":11029:11054   */\n      swap2\n      pop\n        /* \"#utility.yul\":11068:11088   */\n      tag_439\n        /* \"#utility.yul\":11086:11087   */\n      dup4\n        /* \"#utility.yul\":11068:11088   */\n      tag_399\n      jump\t// in\n    tag_439:\n        /* \"#utility.yul\":11063:11088   */\n      swap3\n      pop\n        /* \"#utility.yul\":11107:11108   */\n      dup3\n        /* \"#utility.yul\":11097:11132   */\n      tag_440\n      jumpi\n        /* \"#utility.yul\":11112:11130   */\n      tag_441\n      tag_442\n      jump\t// in\n    tag_441:\n        /* \"#utility.yul\":11097:11132   */\n    tag_440:\n        /* \"#utility.yul\":11154:11155   */\n      dup3\n        /* \"#utility.yul\":11151:11152   */\n      dup3\n        /* \"#utility.yul\":11147:11156   */\n      div\n        /* \"#utility.yul\":11142:11156   */\n      swap1\n      pop\n        /* \"#utility.yul\":10977:11162   */\n      swap3\n      swap2\n      pop\n      pop\n      jump\t// out\n        /* \"#utility.yul\":11168:11359   */\n    tag_247:\n        /* \"#utility.yul\":11208:11212   */\n      0x00\n        /* \"#utility.yul\":11228:11248   */\n      tag_444\n        /* \"#utility.yul\":11246:11247   */\n      dup3\n        /* \"#utility.yul\":11228:11248   */\n      tag_399\n      jump\t// in\n    tag_444:\n        /* \"#utility.yul\":11223:11248   */\n      swap2\n      pop\n        /* \"#utility.yul\":11262:11282   */\n      tag_445\n        /* \"#utility.yul\":11280:11281   */\n      dup4\n        /* \"#utility.yul\":11262:11282   */\n      tag_399\n      jump\t// in\n    tag_445:\n        /* \"#utility.yul\":11257:11282   */\n      swap3\n      pop\n        /* \"#utility.yul\":11301:11302   */\n      dup3\n        /* \"#utility.yul\":11298:11299   */\n      dup3\n        /* \"#utility.yul\":11295:11303   */\n      lt\n        /* \"#utility.yul\":11292:11326   */\n      iszero\n      tag_446\n      jumpi\n        /* \"#utility.yul\":11306:11324   */\n      tag_447\n      tag_436\n      jump\t// in\n    tag_447:\n        /* \"#utility.yul\":11292:11326   */\n    tag_446:\n        /* \"#utility.yul\":11351:11352   */\n      dup3\n        /* \"#utility.yul\":11348:11349   */\n      dup3\n        /* \"#utility.yul\":11344:11353   */\n      sub\n        /* \"#utility.yul\":11336:11353   */\n      swap1\n      pop\n        /* \"#utility.yul\":11168:11359   */\n      swap3\n      swap2\n      pop\n      pop\n      jump\t// out\n        /* \"#utility.yul\":11365:11461   */\n    tag_367:\n        /* \"#utility.yul\":11402:11409   */\n      0x00\n        /* \"#utility.yul\":11431:11455   */\n      tag_449\n        /* \"#utility.yul\":11449:11454   */\n      dup3\n        /* \"#utility.yul\":11431:11455   */\n      tag_450\n      jump\t// in\n    tag_449:\n        /* \"#utility.yul\":11420:11455   */\n      swap1\n      pop\n        /* \"#utility.yul\":11365:11461   */\n      swap2\n      swap1\n      pop\n      jump\t// out\n        /* \"#utility.yul\":11467:11557   */\n    tag_371:\n        /* \"#utility.yul\":11501:11508   */\n      0x00\n        /* \"#utility.yul\":11544:11549   */\n      dup2\n        /* \"#utility.yul\":11537:11550   */\n      iszero\n        /* \"#utility.yul\":11530:11551   */\n      iszero\n        /* \"#utility.yul\":11519:11551   */\n      swap1\n      pop\n        /* \"#utility.yul\":11467:11557   */\n      swap2\n      swap1\n      pop\n      jump\t// out\n        /* \"#utility.yul\":11563:11712   */\n    tag_452:\n        /* \"#utility.yul\":11599:11606   */\n      0x00\n        /* \"#utility.yul\":11639:11705   */\n      0xffffffff00000000000000000000000000000000000000000000000000000000\n        /* \"#utility.yul\":11632:11637   */\n      dup3\n        /* \"#utility.yul\":11628:11706   */\n      and\n        /* \"#utility.yul\":11617:11706   */\n      swap1\n      pop\n        /* \"#utility.yul\":11563:11712   */\n      swap2\n      swap1\n      pop\n      jump\t// out\n        /* \"#utility.yul\":11718:11844   */\n    tag_450:\n        /* \"#utility.yul\":11755:11762   */\n      0x00\n        /* \"#utility.yul\":11795:11837   */\n      0xffffffffffffffffffffffffffffffffffffffff\n        /* \"#utility.yul\":11788:11793   */\n      dup3\n        /* \"#utility.yul\":11784:11838   */\n      and\n        /* \"#utility.yul\":11773:11838   */\n      swap1\n      pop\n        /* \"#utility.yul\":11718:11844   */\n      swap2\n      swap1\n      pop\n      jump\t// out\n        /* \"#utility.yul\":11850:11927   */\n    tag_399:\n        /* \"#utility.yul\":11887:11894   */\n      0x00\n        /* \"#utility.yul\":11916:11921   */\n      dup2\n        /* \"#utility.yul\":11905:11921   */\n      swap1\n      pop\n        /* \"#utility.yul\":11850:11927   */\n      swap2\n      swap1\n      pop\n      jump\t// out\n        /* \"#utility.yul\":11933:12087   */\n    tag_290:\n        /* \"#utility.yul\":12017:12023   */\n      dup3\n        /* \"#utility.yul\":12012:12015   */\n      dup2\n        /* \"#utility.yul\":12007:12010   */\n      dup4\n        /* \"#utility.yul\":11994:12024   */\n      calldatacopy\n        /* \"#utility.yul\":12079:12080   */\n      0x00\n        /* \"#utility.yul\":12070:12076   */\n      dup4\n        /* \"#utility.yul\":12065:12068   */\n      dup4\n        /* \"#utility.yul\":12061:12077   */\n      add\n        /* \"#utility.yul\":12054:12081   */\n      mstore\n        /* \"#utility.yul\":11933:12087   */\n      pop\n      pop\n      pop\n      jump\t// out\n        /* \"#utility.yul\":12093:12400   */\n    tag_379:\n        /* \"#utility.yul\":12161:12162   */\n      0x00\n        /* \"#utility.yul\":12171:12284   */\n    tag_458:\n        /* \"#utility.yul\":12185:12191   */\n      dup4\n        /* \"#utility.yul\":12182:12183   */\n      dup2\n        /* \"#utility.yul\":12179:12192   */\n      lt\n        /* \"#utility.yul\":12171:12284   */\n      iszero\n      tag_460\n      jumpi\n        /* \"#utility.yul\":12270:12271   */\n      dup1\n        /* \"#utility.yul\":12265:12268   */\n      dup3\n        /* \"#utility.yul\":12261:12272   */\n      add\n        /* \"#utility.yul\":12255:12273   */\n      mload\n        /* \"#utility.yul\":12251:12252   */\n      dup2\n        /* \"#utility.yul\":12246:12249   */\n      dup5\n        /* \"#utility.yul\":12242:12253   */\n      add\n        /* \"#utility.yul\":12235:12274   */\n      mstore\n        /* \"#utility.yul\":12207:12209   */\n      0x20\n        /* \"#utility.yul\":12204:12205   */\n      dup2\n        /* \"#utility.yul\":12200:12210   */\n      add\n        /* \"#utility.yul\":12195:12210   */\n      swap1\n      pop\n        /* \"#utility.yul\":12171:12284   */\n      jump(tag_458)\n    tag_460:\n        /* \"#utility.yul\":12302:12308   */\n      dup4\n        /* \"#utility.yul\":12299:12300   */\n      dup2\n        /* \"#utility.yul\":12296:12309   */\n      gt\n        /* \"#utility.yul\":12293:12394   */\n      iszero\n      tag_461\n      jumpi\n        /* \"#utility.yul\":12382:12383   */\n      0x00\n        /* \"#utility.yul\":12373:12379   */\n      dup5\n        /* \"#utility.yul\":12368:12371   */\n      dup5\n        /* \"#utility.yul\":12364:12380   */\n      add\n        /* \"#utility.yul\":12357:12384   */\n      mstore\n        /* \"#utility.yul\":12293:12394   */\n    tag_461:\n        /* \"#utility.yul\":12142:12400   */\n      pop\n        /* \"#utility.yul\":12093:12400   */\n      pop\n      pop\n      pop\n      jump\t// out\n        /* \"#utility.yul\":12406:12726   */\n    tag_104:\n        /* \"#utility.yul\":12450:12456   */\n      0x00\n        /* \"#utility.yul\":12487:12488   */\n      0x02\n        /* \"#utility.yul\":12481:12485   */\n      dup3\n        /* \"#utility.yul\":12477:12489   */\n      div\n        /* \"#utility.yul\":12467:12489   */\n      swap1\n      pop\n        /* \"#utility.yul\":12534:12535   */\n      0x01\n        /* \"#utility.yul\":12528:12532   */\n      dup3\n        /* \"#utility.yul\":12524:12536   */\n      and\n        /* \"#utility.yul\":12555:12573   */\n      dup1\n        /* \"#utility.yul\":12545:12626   */\n      tag_463\n      jumpi\n        /* \"#utility.yul\":12611:12615   */\n      0x7f\n        /* \"#utility.yul\":12603:12609   */\n      dup3\n        /* \"#utility.yul\":12599:12616   */\n      and\n        /* \"#utility.yul\":12589:12616   */\n      swap2\n      pop\n        /* \"#utility.yul\":12545:12626   */\n    tag_463:\n        /* \"#utility.yul\":12673:12675   */\n      0x20\n        /* \"#utility.yul\":12665:12671   */\n      dup3\n        /* \"#utility.yul\":12662:12676   */\n      lt\n        /* \"#utility.yul\":12642:12660   */\n      dup2\n        /* \"#utility.yul\":12639:12677   */\n      eq\n        /* \"#utility.yul\":12636:12720   */\n      iszero\n      tag_464\n      jumpi\n        /* \"#utility.yul\":12692:12710   */\n      tag_465\n      tag_466\n      jump\t// in\n    tag_465:\n        /* \"#utility.yul\":12636:12720   */\n    tag_464:\n        /* \"#utility.yul\":12457:12726   */\n      pop\n        /* \"#utility.yul\":12406:12726   */\n      swap2\n      swap1\n      pop\n      jump\t// out\n        /* \"#utility.yul\":12732:13013   */\n    tag_420:\n        /* \"#utility.yul\":12815:12842   */\n      tag_468\n        /* \"#utility.yul\":12837:12841   */\n      dup3\n        /* \"#utility.yul\":12815:12842   */\n      tag_381\n      jump\t// in\n    tag_468:\n        /* \"#utility.yul\":12807:12813   */\n      dup2\n        /* \"#utility.yul\":12803:12843   */\n      add\n        /* \"#utility.yul\":12945:12951   */\n      dup2\n        /* \"#utility.yul\":12933:12943   */\n      dup2\n        /* \"#utility.yul\":12930:12952   */\n      lt\n        /* \"#utility.yul\":12909:12927   */\n      0xffffffffffffffff\n        /* \"#utility.yul\":12897:12907   */\n      dup3\n        /* \"#utility.yul\":12894:12928   */\n      gt\n        /* \"#utility.yul\":12891:12953   */\n      or\n        /* \"#utility.yul\":12888:12976   */\n      iszero\n      tag_469\n      jumpi\n        /* \"#utility.yul\":12956:12974   */\n      tag_470\n      tag_242\n      jump\t// in\n    tag_470:\n        /* \"#utility.yul\":12888:12976   */\n    tag_469:\n        /* \"#utility.yul\":12996:13006   */\n      dup1\n        /* \"#utility.yul\":12992:12994   */\n      0x40\n        /* \"#utility.yul\":12985:13007   */\n      mstore\n        /* \"#utility.yul\":12775:13013   */\n      pop\n        /* \"#utility.yul\":12732:13013   */\n      pop\n      pop\n      jump\t// out\n        /* \"#utility.yul\":13019:13252   */\n    tag_237:\n        /* \"#utility.yul\":13058:13061   */\n      0x00\n        /* \"#utility.yul\":13081:13105   */\n      tag_472\n        /* \"#utility.yul\":13099:13104   */\n      dup3\n        /* \"#utility.yul\":13081:13105   */\n      tag_399\n      jump\t// in\n    tag_472:\n        /* \"#utility.yul\":13072:13105   */\n      swap2\n      pop\n        /* \"#utility.yul\":13127:13193   */\n      0xffffffffffffffffffffffffffffffffffffffffffffffffffffffffffffffff\n        /* \"#utility.yul\":13120:13125   */\n      dup3\n        /* \"#utility.yul\":13117:13194   */\n      eq\n        /* \"#utility.yul\":13114:13217   */\n      iszero\n      tag_473\n      jumpi\n        /* \"#utility.yul\":13197:13215   */\n      tag_474\n      tag_436\n      jump\t// in\n    tag_474:\n        /* \"#utility.yul\":13114:13217   */\n    tag_473:\n        /* \"#utility.yul\":13244:13245   */\n      0x01\n        /* \"#utility.yul\":13237:13242   */\n      dup3\n        /* \"#utility.yul\":13233:13246   */\n      add\n        /* \"#utility.yul\":13226:13246   */\n      swap1\n      pop\n        /* \"#utility.yul\":13019:13252   */\n      swap2\n      swap1\n      pop\n      jump\t// out\n        /* \"#utility.yul\":13258:13434   */\n    tag_249:\n        /* \"#utility.yul\":13290:13291   */\n      0x00\n        /* \"#utility.yul\":13307:13327   */\n      tag_476\n        /* \"#utility.yul\":13325:13326   */\n      dup3\n        /* \"#utility.yul\":13307:13327   */\n      tag_399\n      jump\t// in\n    tag_476:\n        /* \"#utility.yul\":13302:13327   */\n      swap2\n      pop\n        /* \"#utility.yul\":13341:13361   */\n      tag_477\n        /* \"#utility.yul\":13359:13360   */\n      dup4\n        /* \"#utility.yul\":13341:13361   */\n      tag_399\n      jump\t// in\n    tag_477:\n        /* \"#utility.yul\":13336:13361   */\n      swap3\n      pop\n        /* \"#utility.yul\":13380:13381   */\n      dup3\n        /* \"#utility.yul\":13370:13405   */\n      tag_478\n      jumpi\n        /* \"#utility.yul\":13385:13403   */\n      tag_479\n      tag_442\n      jump\t// in\n    tag_479:\n        /* \"#utility.yul\":13370:13405   */\n    tag_478:\n        /* \"#utility.yul\":13426:13427   */\n      dup3\n        /* \"#utility.yul\":13423:13424   */\n      dup3\n        /* \"#utility.yul\":13419:13428   */\n      mod\n        /* \"#utility.yul\":13414:13428   */\n      swap1\n      pop\n        /* \"#utility.yul\":13258:13434   */\n      swap3\n      swap2\n      pop\n      pop\n      jump\t// out\n        /* \"#utility.yul\":13440:13620   */\n    tag_436:\n        /* \"#utility.yul\":13488:13565   */\n      0x4e487b7100000000000000000000000000000000000000000000000000000000\n        /* \"#utility.yul\":13485:13486   */\n      0x00\n        /* \"#utility.yul\":13478:13566   */\n      mstore\n        /* \"#utility.yul\":13585:13589   */\n      0x11\n        /* \"#utility.yul\":13582:13583   */\n      0x04\n        /* \"#utility.yul\":13575:13590   */\n      mstore\n        /* \"#utility.yul\":13609:13613   */\n      0x24\n        /* \"#utility.yul\":13606:13607   */\n      0x00\n        /* \"#utility.yul\":13599:13614   */\n      revert\n        /* \"#utility.yul\":13626:13806   */\n    tag_442:\n        /* \"#utility.yul\":13674:13751   */\n      0x4e487b7100000000000000000000000000000000000000000000000000000000\n        /* \"#utility.yul\":13671:13672   */\n      0x00\n        /* \"#utility.yul\":13664:13752   */\n      mstore\n        /* \"#utility.yul\":13771:13775   */\n      0x12\n        /* \"#utility.yul\":13768:13769   */\n      0x04\n        /* \"#utility.yul\":13761:13776   */\n      mstore\n        /* \"#utility.yul\":13795:13799   */\n      0x24\n        /* \"#utility.yul\":13792:13793   */\n      0x00\n        /* \"#utility.yul\":13785:13800   */\n      revert\n        /* \"#utility.yul\":13812:13992   */\n    tag_466:\n        /* \"#utility.yul\":13860:13937   */\n      0x4e487b7100000000000000000000000000000000000000000000000000000000\n        /* \"#utility.yul\":13857:13858   */\n      0x00\n        /* \"#utility.yul\":13850:13938   */\n      mstore\n        /* \"#utility.yul\":13957:13961   */\n      0x22\n        /* \"#utility.yul\":13954:13955   */\n      0x04\n        /* \"#utility.yul\":13947:13962   */\n      mstore\n        /* \"#utility.yul\":13981:13985   */\n      0x24\n        /* \"#utility.yul\":13978:13979   */\n      0x00\n        /* \"#utility.yul\":13971:13986   */\n      revert\n        /* \"#utility.yul\":13998:14178   */\n    tag_254:\n        /* \"#utility.yul\":14046:14123   */\n      0x4e487b7100000000000000000000000000000000000000000000000000000000\n        /* \"#utility.yul\":14043:14044   */\n      0x00\n        /* \"#utility.yul\":14036:14124   */\n      mstore\n        /* \"#utility.yul\":14143:14147   */\n      0x32\n        /* \"#utility.yul\":14140:14141   */\n      0x04\n        /* \"#utility.yul\":14133:14148   */\n      mstore\n        /* \"#utility.yul\":14167:14171   */\n      0x24\n        /* \"#utility.yul\":14164:14165   */\n      0x00\n        /* \"#utility.yul\":14157:14172   */\n      revert\n        /* \"#utility.yul\":14184:14364   */\n    tag_242:\n        /* \"#utility.yul\":14232:14309   */\n      0x4e487b7100000000000000000000000000000000000000000000000000000000\n        /* \"#utility.yul\":14229:14230   */\n      0x00\n        /* \"#utility.yul\":14222:14310   */\n      mstore\n        /* \"#utility.yul\":14329:14333   */\n      0x41\n        /* \"#utility.yul\":14326:14327   */\n      0x04\n        /* \"#utility.yul\":14319:14334   */\n      mstore\n        /* \"#utility.yul\":14353:14357   */\n      0x24\n        /* \"#utility.yul\":14350:14351   */\n      0x00\n        /* \"#utility.yul\":14343:14358   */\n      revert\n        /* \"#utility.yul\":14370:14487   */\n    tag_310:\n        /* \"#utility.yul\":14479:14480   */\n      0x00\n        /* \"#utility.yul\":14476:14477   */\n      dup1\n        /* \"#utility.yul\":14469:14481   */\n      revert\n        /* \"#utility.yul\":14493:14610   */\n    tag_288:\n        /* \"#utility.yul\":14602:14603   */\n      0x00\n        /* \"#utility.yul\":14599:14600   */\n      dup1\n        /* \"#utility.yul\":14592:14604   */\n      revert\n        /* \"#utility.yul\":14616:14733   */\n    tag_340:\n        /* \"#utility.yul\":14725:14726   */\n      0x00\n        /* \"#utility.yul\":14722:14723   */\n      dup1\n        /* \"#utility.yul\":14715:14727   */\n      revert\n        /* \"#utility.yul\":14739:14856   */\n    tag_319:\n        /* \"#utility.yul\":14848:14849   */\n      0x00\n        /* \"#utility.yul\":14845:14846   */\n      dup1\n        /* \"#utility.yul\":14838:14850   */\n      revert\n        /* \"#utility.yul\":14862:14964   */\n    tag_381:\n        /* \"#utility.yul\":14903:14909   */\n      0x00\n        /* \"#utility.yul\":14954:14956   */\n      0x1f\n        /* \"#utility.yul\":14950:14957   */\n      not\n        /* \"#utility.yul\":14945:14947   */\n      0x1f\n        /* \"#utility.yul\":14938:14943   */\n      dup4\n        /* \"#utility.yul\":14934:14948   */\n      add\n        /* \"#utility.yul\":14930:14958   */\n      and\n        /* \"#utility.yul\":14920:14958   */\n      swap1\n      pop\n        /* \"#utility.yul\":14862:14964   */\n      swap2\n      swap1\n      pop\n      jump\t// out\n        /* \"#utility.yul\":14970:15092   */\n    tag_294:\n        /* \"#utility.yul\":15043:15067   */\n      tag_491\n        /* \"#utility.yul\":15061:15066   */\n      dup2\n        /* \"#utility.yul\":15043:15067   */\n      tag_367\n      jump\t// in\n    tag_491:\n        /* \"#utility.yul\":15036:15041   */\n      dup2\n        /* \"#utility.yul\":15033:15068   */\n      eq\n        /* \"#utility.yul\":15023:15086   */\n      tag_492\n      jumpi\n        /* \"#utility.yul\":15082:15083   */\n      0x00\n        /* \"#utility.yul\":15079:15080   */\n      dup1\n        /* \"#utility.yul\":15072:15084   */\n      revert\n        /* \"#utility.yul\":15023:15086   */\n    tag_492:\n        /* \"#utility.yul\":14970:15092   */\n      pop\n      jump\t// out\n        /* \"#utility.yul\":15098:15214   */\n    tag_298:\n        /* \"#utility.yul\":15168:15189   */\n      tag_494\n        /* \"#utility.yul\":15183:15188   */\n      dup2\n        /* \"#utility.yul\":15168:15189   */\n      tag_371\n      jump\t// in\n    tag_494:\n        /* \"#utility.yul\":15161:15166   */\n      dup2\n        /* \"#utility.yul\":15158:15190   */\n      eq\n        /* \"#utility.yul\":15148:15208   */\n      tag_495\n      jumpi\n        /* \"#utility.yul\":15204:15205   */\n      0x00\n        /* \"#utility.yul\":15201:15202   */\n      dup1\n        /* \"#utility.yul\":15194:15206   */\n      revert\n        /* \"#utility.yul\":15148:15208   */\n    tag_495:\n        /* \"#utility.yul\":15098:15214   */\n      pop\n      jump\t// out\n        /* \"#utility.yul\":15220:15340   */\n    tag_302:\n        /* \"#utility.yul\":15292:15315   */\n      tag_497\n        /* \"#utility.yul\":15309:15314   */\n      dup2\n        /* \"#utility.yul\":15292:15315   */\n      tag_452\n      jump\t// in\n    tag_497:\n        /* \"#utility.yul\":15285:15290   */\n      dup2\n        /* \"#utility.yul\":15282:15316   */\n      eq\n        /* \"#utility.yul\":15272:15334   */\n      tag_498\n      jumpi\n        /* \"#utility.yul\":15330:15331   */\n      0x00\n        /* \"#utility.yul\":15327:15328   */\n      dup1\n        /* \"#utility.yul\":15320:15332   */\n      revert\n        /* \"#utility.yul\":15272:15334   */\n    tag_498:\n        /* \"#utility.yul\":15220:15340   */\n      pop\n      jump\t// out\n        /* \"#utility.yul\":15346:15468   */\n    tag_315:\n        /* \"#utility.yul\":15419:15443   */\n      tag_500\n        /* \"#utility.yul\":15437:15442   */\n      dup2\n        /* \"#utility.yul\":15419:15443   */\n      tag_399\n      jump\t// in\n    tag_500:\n        /* \"#utility.yul\":15412:15417   */\n      dup2\n        /* \"#utility.yul\":15409:15444   */\n      eq\n        /* \"#utility.yul\":15399:15462   */\n      tag_501\n      jumpi\n        /* \"#utility.yul\":15458:15459   */\n      0x00\n        /* \"#utility.yul\":15455:15456   */\n      dup1\n        /* \"#utility.yul\":15448:15460   */\n      revert\n        /* \"#utility.yul\":15399:15462   */\n    tag_501:\n        /* \"#utility.yul\":15346:15468   */\n      pop\n      jump\t// out\n\n    auxdata: 0xa264697066735822122065f9f2e6d0b69004b36aa5b621b128f81c793b60971c59c4b79db00d3744ff2b64736f6c63430008070033\n}\n",
				"bytecode": {
					"linkReferences": {},
					"object": "60806040523480156200001157600080fd5b506040518060400160405280600581526020017f417a756b690000000000000000000000000000000000000000000000000000008152506040518060400160405280600581526020017f415a554b49000000000000000000000000000000000000000000000000000000815250816002908051906020019062000096929190620000d3565b508060039080519060200190620000af929190620000d3565b50620000c0620000ce60201b60201c565b6000819055505050620001e8565b600090565b828054620000e19062000183565b90600052602060002090601f01602090048101928262000105576000855562000151565b82601f106200012057805160ff191683800117855562000151565b8280016001018555821562000151579182015b828111156200015057825182559160200191906001019062000133565b5b50905062000160919062000164565b5090565b5b808211156200017f57600081600090555060010162000165565b5090565b600060028204905060018216806200019c57607f821691505b60208210811415620001b357620001b2620001b9565b5b50919050565b7f4e487b7100000000000000000000000000000000000000000000000000000000600052602260045260246000fd5b61251680620001f86000396000f3fe6080604052600436106100e85760003560e01c80636352211e1161008a578063a22cb46511610059578063a22cb465146102f9578063b88d4fde14610322578063c87b56dd1461034b578063e985e9c514610388576100e8565b80636352211e1461023857806370a082311461027557806395d89b41146102b2578063a0712d68146102dd576100e8565b8063095ea7b3116100c6578063095ea7b31461019257806318160ddd146101bb57806323b872dd146101e657806342842e0e1461020f576100e8565b806301ffc9a7146100ed57806306fdde031461012a578063081812fc14610155575b600080fd5b3480156100f957600080fd5b50610114600480360381019061010f9190611e53565b6103c5565b6040516101219190612035565b60405180910390f35b34801561013657600080fd5b5061013f6104a7565b60405161014c9190612050565b60405180910390f35b34801561016157600080fd5b5061017c60048036038101906101779190611ead565b610539565b6040516101899190611fce565b60405180910390f35b34801561019e57600080fd5b506101b960048036038101906101b49190611e13565b6105b5565b005b3480156101c757600080fd5b506101d06106c0565b6040516101dd9190612072565b60405180910390f35b3480156101f257600080fd5b5061020d60048036038101906102089190611cfd565b6106d7565b005b34801561021b57600080fd5b5061023660048036038101906102319190611cfd565b6106e7565b005b34801561024457600080fd5b5061025f600480360381019061025a9190611ead565b610707565b60405161026c9190611fce565b60405180910390f35b34801561028157600080fd5b5061029c60048036038101906102979190611c90565b61071d565b6040516102a99190612072565b60405180910390f35b3480156102be57600080fd5b506102c76107ed565b6040516102d49190612050565b60405180910390f35b6102f760048036038101906102f29190611ead565b61087f565b005b34801561030557600080fd5b50610320600480360381019061031b9190611dd3565b61088c565b005b34801561032e57600080fd5b5061034960048036038101906103449190611d50565b610a04565b005b34801561035757600080fd5b50610372600480360381019061036d9190611ead565b610a80565b60405161037f9190612050565b60405180910390f35b34801561039457600080fd5b506103af60048036038101906103aa9190611cbd565b610b1f565b6040516103bc9190612035565b60405180910390f35b60007f80ac58cd000000000000000000000000000000000000000000000000000000007bffffffffffffffffffffffffffffffffffffffffffffffffffffffff1916827bffffffffffffffffffffffffffffffffffffffffffffffffffffffff1916148061049057507f5b5e139f000000000000000000000000000000000000000000000000000000007bffffffffffffffffffffffffffffffffffffffffffffffffffffffff1916827bffffffffffffffffffffffffffffffffffffffffffffffffffffffff1916145b806104a0575061049f82610bb3565b5b9050919050565b6060600280546104b690612297565b80601f01602080910402602001604051908101604052809291908181526020018280546104e290612297565b801561052f5780601f106105045761010080835404028352916020019161052f565b820191906000526020600020905b81548152906001019060200180831161051257829003601f168201915b5050505050905090565b600061054482610c1d565b61057a576040517fcf4700e400000000000000000000000000000000000000000000000000000000815260040160405180910390fd5b6006600083815260200190815260200160002060009054906101000a900473ffffffffffffffffffffffffffffffffffffffff169050919050565b60006105c082610707565b90508073ffffffffffffffffffffffffffffffffffffffff168373ffffffffffffffffffffffffffffffffffffffff161415610628576040517f943f7b8c00000000000000000000000000000000000000000000000000000000815260040160405180910390fd5b8073ffffffffffffffffffffffffffffffffffffffff16610647610c6b565b73ffffffffffffffffffffffffffffffffffffffff1614158015610679575061067781610672610c6b565b610b1f565b155b156106b0576040517fcfb3b94200000000000000000000000000000000000000000000000000000000815260040160405180910390fd5b6106bb838383610c73565b505050565b60006106ca610d25565b6001546000540303905090565b6106e2838383610d2a565b505050565b61070283838360405180602001604052806000815250610a04565b505050565b6000610712826111e0565b600001519050919050565b60008073ffffffffffffffffffffffffffffffffffffffff168273ffffffffffffffffffffffffffffffffffffffff161415610785576040517f8f4eb60400000000000000000000000000000000000000000000000000000000815260040160405180910390fd5b600560008373ffffffffffffffffffffffffffffffffffffffff1673ffffffffffffffffffffffffffffffffffffffff16815260200190815260200160002060000160009054906101000a900467ffffffffffffffff1667ffffffffffffffff169050919050565b6060600380546107fc90612297565b80601f016020809104026020016040519081016040528092919081815260200182805461082890612297565b80156108755780601f1061084a57610100808354040283529160200191610875565b820191906000526020600020905b81548152906001019060200180831161085857829003601f168201915b5050505050905090565b610889338261146f565b50565b610894610c6b565b73ffffffffffffffffffffffffffffffffffffffff168273ffffffffffffffffffffffffffffffffffffffff1614156108f9576040517fb06307db00000000000000000000000000000000000000000000000000000000815260040160405180910390fd5b8060076000610906610c6b565b73ffffffffffffffffffffffffffffffffffffffff1673ffffffffffffffffffffffffffffffffffffffff16815260200190815260200160002060008473ffffffffffffffffffffffffffffffffffffffff1673ffffffffffffffffffffffffffffffffffffffff16815260200190815260200160002060006101000a81548160ff0219169083151502179055508173ffffffffffffffffffffffffffffffffffffffff166109b3610c6b565b73ffffffffffffffffffffffffffffffffffffffff167f17307eab39ab6107e8899845ad3d59bd9653f200f220920489ca2b5937696c31836040516109f89190612035565b60405180910390a35050565b610a0f848484610d2a565b610a2e8373ffffffffffffffffffffffffffffffffffffffff1661148d565b8015610a435750610a41848484846114b0565b155b15610a7a576040517fd1a57ed600000000000000000000000000000000000000000000000000000000815260040160405180910390fd5b50505050565b6060610a8b82610c1d565b610ac1576040517fa14c4b5000000000000000000000000000000000000000000000000000000000815260040160405180910390fd5b6000610acb611610565b9050600081511415610aec5760405180602001604052806000815250610b17565b80610af684611627565b604051602001610b07929190611faa565b6040516020818303038152906040525b915050919050565b6000600760008473ffffffffffffffffffffffffffffffffffffffff1673ffffffffffffffffffffffffffffffffffffffff16815260200190815260200160002060008373ffffffffffffffffffffffffffffffffffffffff1673ffffffffffffffffffffffffffffffffffffffff16815260200190815260200160002060009054906101000a900460ff16905092915050565b60007f01ffc9a7000000000000000000000000000000000000000000000000000000007bffffffffffffffffffffffffffffffffffffffffffffffffffffffff1916827bffffffffffffffffffffffffffffffffffffffffffffffffffffffff1916149050919050565b600081610c28610d25565b11158015610c37575060005482105b8015610c64575060046000838152602001908152602001600020600001601c9054906101000a900460ff16155b9050919050565b600033905090565b826006600084815260200190815260200160002060006101000a81548173ffffffffffffffffffffffffffffffffffffffff021916908373ffffffffffffffffffffffffffffffffffffffff160217905550818373ffffffffffffffffffffffffffffffffffffffff168273ffffffffffffffffffffffffffffffffffffffff167f8c5be1e5ebec7d5bd14f71427d1e84f3dd0314c0f7b2291e5b200ac8c7c3b92560405160405180910390a4505050565b600090565b6000610d35826111e0565b90508373ffffffffffffffffffffffffffffffffffffffff16816000015173ffffffffffffffffffffffffffffffffffffffff1614610da0576040517fa114810000000000000000000000000000000000000000000000000000000000815260040160405180910390fd5b60008473ffffffffffffffffffffffffffffffffffffffff16610dc1610c6b565b73ffffffffffffffffffffffffffffffffffffffff161480610df05750610def85610dea610c6b565b610b1f565b5b80610e355750610dfe610c6b565b73ffffffffffffffffffffffffffffffffffffffff16610e1d84610539565b73ffffffffffffffffffffffffffffffffffffffff16145b905080610e6e576040517f59c896be00000000000000000000000000000000000000000000000000000000815260040160405180910390fd5b600073ffffffffffffffffffffffffffffffffffffffff168473ffffffffffffffffffffffffffffffffffffffff161415610ed5576040517fea553b3400000000000000000000000000000000000000000000000000000000815260040160405180910390fd5b610ee28585856001611788565b610eee60008487610c73565b6001600560008773ffffffffffffffffffffffffffffffffffffffff1673ffffffffffffffffffffffffffffffffffffffff16815260200190815260200160002060000160008282829054906101000a900467ffffffffffffffff160392506101000a81548167ffffffffffffffff021916908367ffffffffffffffff1602179055506001600560008673ffffffffffffffffffffffffffffffffffffffff1673ffffffffffffffffffffffffffffffffffffffff16815260200190815260200160002060000160008282829054906101000a900467ffffffffffffffff160192506101000a81548167ffffffffffffffff021916908367ffffffffffffffff1602179055506000600460008581526020019081526020016000209050848160000160006101000a81548173ffffffffffffffffffffffffffffffffffffffff021916908373ffffffffffffffffffffffffffffffffffffffff160217905550428160000160146101000a81548167ffffffffffffffff021916908367ffffffffffffffff16021790555060006001850190506000600460008381526020019081526020016000209050600073ffffffffffffffffffffffffffffffffffffffff168160000160009054906101000a900473ffffffffffffffffffffffffffffffffffffffff1673ffffffffffffffffffffffffffffffffffffffff16141561116e57600054821461116d57878160000160006101000a81548173ffffffffffffffffffffffffffffffffffffffff021916908373ffffffffffffffffffffffffffffffffffffffff16021790555084602001518160000160146101000a81548167ffffffffffffffff021916908367ffffffffffffffff1602179055505b5b505050828473ffffffffffffffffffffffffffffffffffffffff168673ffffffffffffffffffffffffffffffffffffffff167fddf252ad1be2c89b69c2b068fc378daa952ba7f163c4a11628f55a4df523b3ef60405160405180910390a46111d9858585600161178e565b5050505050565b6111e8611b74565b6000829050806111f6610d25565b11158015611205575060005481105b15611438576000600460008381526020019081526020016000206040518060600160405290816000820160009054906101000a900473ffffffffffffffffffffffffffffffffffffffff1673ffffffffffffffffffffffffffffffffffffffff1673ffffffffffffffffffffffffffffffffffffffff1681526020016000820160149054906101000a900467ffffffffffffffff1667ffffffffffffffff1667ffffffffffffffff16815260200160008201601c9054906101000a900460ff1615151515815250509050806040015161143657600073ffffffffffffffffffffffffffffffffffffffff16816000015173ffffffffffffffffffffffffffffffffffffffff161461131a57809250505061146a565b5b60011561143557818060019003925050600460008381526020019081526020016000206040518060600160405290816000820160009054906101000a900473ffffffffffffffffffffffffffffffffffffffff1673ffffffffffffffffffffffffffffffffffffffff1673ffffffffffffffffffffffffffffffffffffffff1681526020016000820160149054906101000a900467ffffffffffffffff1667ffffffffffffffff1667ffffffffffffffff16815260200160008201601c9054906101000a900460ff1615151515815250509050600073ffffffffffffffffffffffffffffffffffffffff16816000015173ffffffffffffffffffffffffffffffffffffffff161461143057809250505061146a565b61131b565b5b505b6040517fdf2d9b4200000000000000000000000000000000000000000000000000000000815260040160405180910390fd5b919050565b611489828260405180602001604052806000815250611794565b5050565b6000808273ffffffffffffffffffffffffffffffffffffffff163b119050919050565b60008373ffffffffffffffffffffffffffffffffffffffff1663150b7a026114d6610c6b565b8786866040518563ffffffff1660e01b81526004016114f89493929190611fe9565b602060405180830381600087803b15801561151257600080fd5b505af192505050801561154357506040513d601f19601f820116820180604052508101906115409190611e80565b60015b6115bd573d8060008114611573576040519150601f19603f3d011682016040523d82523d6000602084013e611578565b606091505b506000815114156115b5576040517fd1a57ed600000000000000000000000000000000000000000000000000000000815260040160405180910390fd5b805181602001fd5b63150b7a0260e01b7bffffffffffffffffffffffffffffffffffffffffffffffffffffffff1916817bffffffffffffffffffffffffffffffffffffffffffffffffffffffff191614915050949350505050565b606060405180602001604052806000815250905090565b6060600082141561166f576040518060400160405280600181526020017f30000000000000000000000000000000000000000000000000000000000000008152509050611783565b600082905060005b600082146116a157808061168a906122fa565b915050600a8261169a919061217c565b9150611677565b60008167ffffffffffffffff8111156116bd576116bc612430565b5b6040519080825280601f01601f1916602001820160405280156116ef5781602001600182028036833780820191505090505b5090505b6000851461177c5760018261170891906121ad565b9150600a856117179190612343565b60306117239190612126565b60f81b81838151811061173957611738612401565b5b60200101907effffffffffffffffffffffffffffffffffffffffffffffffffffffffffffff1916908160001a905350600a85611775919061217c565b94506116f3565b8093505050505b919050565b50505050565b50505050565b6117a183838360016117a6565b505050565b600080549050600073ffffffffffffffffffffffffffffffffffffffff168573ffffffffffffffffffffffffffffffffffffffff161415611813576040517f2e07630000000000000000000000000000000000000000000000000000000000815260040160405180910390fd5b600084141561184e576040517fb562e8dd00000000000000000000000000000000000000000000000000000000815260040160405180910390fd5b61185b6000868387611788565b83600560008773ffffffffffffffffffffffffffffffffffffffff1673ffffffffffffffffffffffffffffffffffffffff16815260200190815260200160002060000160008282829054906101000a900467ffffffffffffffff160192506101000a81548167ffffffffffffffff021916908367ffffffffffffffff16021790555083600560008773ffffffffffffffffffffffffffffffffffffffff1673ffffffffffffffffffffffffffffffffffffffff16815260200190815260200160002060000160088282829054906101000a900467ffffffffffffffff160192506101000a81548167ffffffffffffffff021916908367ffffffffffffffff160217905550846004600083815260200190815260200160002060000160006101000a81548173ffffffffffffffffffffffffffffffffffffffff021916908373ffffffffffffffffffffffffffffffffffffffff160217905550426004600083815260200190815260200160002060000160146101000a81548167ffffffffffffffff021916908367ffffffffffffffff160217905550600081905060008582019050838015611a255750611a248773ffffffffffffffffffffffffffffffffffffffff1661148d565b5b15611aeb575b818773ffffffffffffffffffffffffffffffffffffffff16600073ffffffffffffffffffffffffffffffffffffffff167fddf252ad1be2c89b69c2b068fc378daa952ba7f163c4a11628f55a4df523b3ef60405160405180910390a4611a9a60008884806001019550886114b0565b611ad0576040517fd1a57ed600000000000000000000000000000000000000000000000000000000815260040160405180910390fd5b80821415611a2b578260005414611ae657600080fd5b611b57565b5b818060010192508773ffffffffffffffffffffffffffffffffffffffff16600073ffffffffffffffffffffffffffffffffffffffff167fddf252ad1be2c89b69c2b068fc378daa952ba7f163c4a11628f55a4df523b3ef60405160405180910390a480821415611aec575b816000819055505050611b6d600086838761178e565b5050505050565b6040518060600160405280600073ffffffffffffffffffffffffffffffffffffffff168152602001600067ffffffffffffffff1681526020016000151581525090565b6000611bca611bc5846120b2565b61208d565b905082815260208101848484011115611be657611be5612464565b5b611bf1848285612255565b509392505050565b600081359050611c0881612484565b92915050565b600081359050611c1d8161249b565b92915050565b600081359050611c32816124b2565b92915050565b600081519050611c47816124b2565b92915050565b600082601f830112611c6257611c6161245f565b5b8135611c72848260208601611bb7565b91505092915050565b600081359050611c8a816124c9565b92915050565b600060208284031215611ca657611ca561246e565b5b6000611cb484828501611bf9565b91505092915050565b60008060408385031215611cd457611cd361246e565b5b6000611ce285828601611bf9565b9250506020611cf385828601611bf9565b9150509250929050565b600080600060608486031215611d1657611d1561246e565b5b6000611d2486828701611bf9565b9350506020611d3586828701611bf9565b9250506040611d4686828701611c7b565b9150509250925092565b60008060008060808587031215611d6a57611d6961246e565b5b6000611d7887828801611bf9565b9450506020611d8987828801611bf9565b9350506040611d9a87828801611c7b565b925050606085013567ffffffffffffffff811115611dbb57611dba612469565b5b611dc787828801611c4d565b91505092959194509250565b60008060408385031215611dea57611de961246e565b5b6000611df885828601611bf9565b9250506020611e0985828601611c0e565b9150509250929050565b60008060408385031215611e2a57611e2961246e565b5b6000611e3885828601611bf9565b9250506020611e4985828601611c7b565b9150509250929050565b600060208284031215611e6957611e6861246e565b5b6000611e7784828501611c23565b91505092915050565b600060208284031215611e9657611e9561246e565b5b6000611ea484828501611c38565b91505092915050565b600060208284031215611ec357611ec261246e565b5b6000611ed184828501611c7b565b91505092915050565b611ee3816121e1565b82525050565b611ef2816121f3565b82525050565b6000611f03826120e3565b611f0d81856120f9565b9350611f1d818560208601612264565b611f2681612473565b840191505092915050565b6000611f3c826120ee565b611f46818561210a565b9350611f56818560208601612264565b611f5f81612473565b840191505092915050565b6000611f75826120ee565b611f7f818561211b565b9350611f8f818560208601612264565b80840191505092915050565b611fa48161224b565b82525050565b6000611fb68285611f6a565b9150611fc28284611f6a565b91508190509392505050565b6000602082019050611fe36000830184611eda565b92915050565b6000608082019050611ffe6000830187611eda565b61200b6020830186611eda565b6120186040830185611f9b565b818103606083015261202a8184611ef8565b905095945050505050565b600060208201905061204a6000830184611ee9565b92915050565b6000602082019050818103600083015261206a8184611f31565b905092915050565b60006020820190506120876000830184611f9b565b92915050565b60006120976120a8565b90506120a382826122c9565b919050565b6000604051905090565b600067ffffffffffffffff8211156120cd576120cc612430565b5b6120d682612473565b9050602081019050919050565b600081519050919050565b600081519050919050565b600082825260208201905092915050565b600082825260208201905092915050565b600081905092915050565b60006121318261224b565b915061213c8361224b565b9250827fffffffffffffffffffffffffffffffffffffffffffffffffffffffffffffffff0382111561217157612170612374565b5b828201905092915050565b60006121878261224b565b91506121928361224b565b9250826121a2576121a16123a3565b5b828204905092915050565b60006121b88261224b565b91506121c38361224b565b9250828210156121d6576121d5612374565b5b828203905092915050565b60006121ec8261222b565b9050919050565b60008115159050919050565b60007fffffffff0000000000000000000000000000000000000000000000000000000082169050919050565b600073ffffffffffffffffffffffffffffffffffffffff82169050919050565b6000819050919050565b82818337600083830152505050565b60005b83811015612282578082015181840152602081019050612267565b83811115612291576000848401525b50505050565b600060028204905060018216806122af57607f821691505b602082108114156122c3576122c26123d2565b5b50919050565b6122d282612473565b810181811067ffffffffffffffff821117156122f1576122f0612430565b5b80604052505050565b60006123058261224b565b91507fffffffffffffffffffffffffffffffffffffffffffffffffffffffffffffffff82141561233857612337612374565b5b600182019050919050565b600061234e8261224b565b91506123598361224b565b925082612369576123686123a3565b5b828206905092915050565b7f4e487b7100000000000000000000000000000000000000000000000000000000600052601160045260246000fd5b7f4e487b7100000000000000000000000000000000000000000000000000000000600052601260045260246000fd5b7f4e487b7100000000000000000000000000000000000000000000000000000000600052602260045260246000fd5b7f4e487b7100000000000000000000000000000000000000000000000000000000600052603260045260246000fd5b7f4e487b7100000000000000000000000000000000000000000000000000000000600052604160045260246000fd5b600080fd5b600080fd5b600080fd5b600080fd5b6000601f19601f8301169050919050565b61248d816121e1565b811461249857600080fd5b50565b6124a4816121f3565b81146124af57600080fd5b50565b6124bb816121ff565b81146124c657600080fd5b50565b6124d28161224b565b81146124dd57600080fd5b5056fea264697066735822122065f9f2e6d0b69004b36aa5b621b128f81c793b60971c59c4b79db00d3744ff2b64736f6c63430008070033",
					"opcodes": "PUSH1 0x80 PUSH1 0x40 MSTORE CALLVALUE DUP1 ISZERO PUSH3 0x11 JUMPI PUSH1 0x0 DUP1 REVERT JUMPDEST POP PUSH1 0x40 MLOAD DUP1 PUSH1 0x40 ADD PUSH1 0x40 MSTORE DUP1 PUSH1 0x5 DUP2 MSTORE PUSH1 0x20 ADD PUSH32 0x417A756B69000000000000000000000000000000000000000000000000000000 DUP2 MSTORE POP PUSH1 0x40 MLOAD DUP1 PUSH1 0x40 ADD PUSH1 0x40 MSTORE DUP1 PUSH1 0x5 DUP2 MSTORE PUSH1 0x20 ADD PUSH32 0x415A554B49000000000000000000000000000000000000000000000000000000 DUP2 MSTORE POP DUP2 PUSH1 0x2 SWAP1 DUP1 MLOAD SWAP1 PUSH1 0x20 ADD SWAP1 PUSH3 0x96 SWAP3 SWAP2 SWAP1 PUSH3 0xD3 JUMP JUMPDEST POP DUP1 PUSH1 0x3 SWAP1 DUP1 MLOAD SWAP1 PUSH1 0x20 ADD SWAP1 PUSH3 0xAF SWAP3 SWAP2 SWAP1 PUSH3 0xD3 JUMP JUMPDEST POP PUSH3 0xC0 PUSH3 0xCE PUSH1 0x20 SHL PUSH1 0x20 SHR JUMP JUMPDEST PUSH1 0x0 DUP2 SWAP1 SSTORE POP POP POP PUSH3 0x1E8 JUMP JUMPDEST PUSH1 0x0 SWAP1 JUMP JUMPDEST DUP3 DUP1 SLOAD PUSH3 0xE1 SWAP1 PUSH3 0x183 JUMP JUMPDEST SWAP1 PUSH1 0x0 MSTORE PUSH1 0x20 PUSH1 0x0 KECCAK256 SWAP1 PUSH1 0x1F ADD PUSH1 0x20 SWAP1 DIV DUP2 ADD SWAP3 DUP3 PUSH3 0x105 JUMPI PUSH1 0x0 DUP6 SSTORE PUSH3 0x151 JUMP JUMPDEST DUP3 PUSH1 0x1F LT PUSH3 0x120 JUMPI DUP1 MLOAD PUSH1 0xFF NOT AND DUP4 DUP1 ADD OR DUP6 SSTORE PUSH3 0x151 JUMP JUMPDEST DUP3 DUP1 ADD PUSH1 0x1 ADD DUP6 SSTORE DUP3 ISZERO PUSH3 0x151 JUMPI SWAP2 DUP3 ADD JUMPDEST DUP3 DUP2 GT ISZERO PUSH3 0x150 JUMPI DUP3 MLOAD DUP3 SSTORE SWAP2 PUSH1 0x20 ADD SWAP2 SWAP1 PUSH1 0x1 ADD SWAP1 PUSH3 0x133 JUMP JUMPDEST JUMPDEST POP SWAP1 POP PUSH3 0x160 SWAP2 SWAP1 PUSH3 0x164 JUMP JUMPDEST POP SWAP1 JUMP JUMPDEST JUMPDEST DUP1 DUP3 GT ISZERO PUSH3 0x17F JUMPI PUSH1 0x0 DUP2 PUSH1 0x0 SWAP1 SSTORE POP PUSH1 0x1 ADD PUSH3 0x165 JUMP JUMPDEST POP SWAP1 JUMP JUMPDEST PUSH1 0x0 PUSH1 0x2 DUP3 DIV SWAP1 POP PUSH1 0x1 DUP3 AND DUP1 PUSH3 0x19C JUMPI PUSH1 0x7F DUP3 AND SWAP2 POP JUMPDEST PUSH1 0x20 DUP3 LT DUP2 EQ ISZERO PUSH3 0x1B3 JUMPI PUSH3 0x1B2 PUSH3 0x1B9 JUMP JUMPDEST JUMPDEST POP SWAP2 SWAP1 POP JUMP JUMPDEST PUSH32 0x4E487B7100000000000000000000000000000000000000000000000000000000 PUSH1 0x0 MSTORE PUSH1 0x22 PUSH1 0x4 MSTORE PUSH1 0x24 PUSH1 0x0 REVERT JUMPDEST PUSH2 0x2516 DUP1 PUSH3 0x1F8 PUSH1 0x0 CODECOPY PUSH1 0x0 RETURN INVALID PUSH1 0x80 PUSH1 0x40 MSTORE PUSH1 0x4 CALLDATASIZE LT PUSH2 0xE8 JUMPI PUSH1 0x0 CALLDATALOAD PUSH1 0xE0 SHR DUP1 PUSH4 0x6352211E GT PUSH2 0x8A JUMPI DUP1 PUSH4 0xA22CB465 GT PUSH2 0x59 JUMPI DUP1 PUSH4 0xA22CB465 EQ PUSH2 0x2F9 JUMPI DUP1 PUSH4 0xB88D4FDE EQ PUSH2 0x322 JUMPI DUP1 PUSH4 0xC87B56DD EQ PUSH2 0x34B JUMPI DUP1 PUSH4 0xE985E9C5 EQ PUSH2 0x388 JUMPI PUSH2 0xE8 JUMP JUMPDEST DUP1 PUSH4 0x6352211E EQ PUSH2 0x238 JUMPI DUP1 PUSH4 0x70A08231 EQ PUSH2 0x275 JUMPI DUP1 PUSH4 0x95D89B41 EQ PUSH2 0x2B2 JUMPI DUP1 PUSH4 0xA0712D68 EQ PUSH2 0x2DD JUMPI PUSH2 0xE8 JUMP JUMPDEST DUP1 PUSH4 0x95EA7B3 GT PUSH2 0xC6 JUMPI DUP1 PUSH4 0x95EA7B3 EQ PUSH2 0x192 JUMPI DUP1 PUSH4 0x18160DDD EQ PUSH2 0x1BB JUMPI DUP1 PUSH4 0x23B872DD EQ PUSH2 0x1E6 JUMPI DUP1 PUSH4 0x42842E0E EQ PUSH2 0x20F JUMPI PUSH2 0xE8 JUMP JUMPDEST DUP1 PUSH4 0x1FFC9A7 EQ PUSH2 0xED JUMPI DUP1 PUSH4 0x6FDDE03 EQ PUSH2 0x12A JUMPI DUP1 PUSH4 0x81812FC EQ PUSH2 0x155 JUMPI JUMPDEST PUSH1 0x0 DUP1 REVERT JUMPDEST CALLVALUE DUP1 ISZERO PUSH2 0xF9 JUMPI PUSH1 0x0 DUP1 REVERT JUMPDEST POP PUSH2 0x114 PUSH1 0x4 DUP1 CALLDATASIZE SUB DUP2 ADD SWAP1 PUSH2 0x10F SWAP2 SWAP1 PUSH2 0x1E53 JUMP JUMPDEST PUSH2 0x3C5 JUMP JUMPDEST PUSH1 0x40 MLOAD PUSH2 0x121 SWAP2 SWAP1 PUSH2 0x2035 JUMP JUMPDEST PUSH1 0x40 MLOAD DUP1 SWAP2 SUB SWAP1 RETURN JUMPDEST CALLVALUE DUP1 ISZERO PUSH2 0x136 JUMPI PUSH1 0x0 DUP1 REVERT JUMPDEST POP PUSH2 0x13F PUSH2 0x4A7 JUMP JUMPDEST PUSH1 0x40 MLOAD PUSH2 0x14C SWAP2 SWAP1 PUSH2 0x2050 JUMP JUMPDEST PUSH1 0x40 MLOAD DUP1 SWAP2 SUB SWAP1 RETURN JUMPDEST CALLVALUE DUP1 ISZERO PUSH2 0x161 JUMPI PUSH1 0x0 DUP1 REVERT JUMPDEST POP PUSH2 0x17C PUSH1 0x4 DUP1 CALLDATASIZE SUB DUP2 ADD SWAP1 PUSH2 0x177 SWAP2 SWAP1 PUSH2 0x1EAD JUMP JUMPDEST PUSH2 0x539 JUMP JUMPDEST PUSH1 0x40 MLOAD PUSH2 0x189 SWAP2 SWAP1 PUSH2 0x1FCE JUMP JUMPDEST PUSH1 0x40 MLOAD DUP1 SWAP2 SUB SWAP1 RETURN JUMPDEST CALLVALUE DUP1 ISZERO PUSH2 0x19E JUMPI PUSH1 0x0 DUP1 REVERT JUMPDEST POP PUSH2 0x1B9 PUSH1 0x4 DUP1 CALLDATASIZE SUB DUP2 ADD SWAP1 PUSH2 0x1B4 SWAP2 SWAP1 PUSH2 0x1E13 JUMP JUMPDEST PUSH2 0x5B5 JUMP JUMPDEST STOP JUMPDEST CALLVALUE DUP1 ISZERO PUSH2 0x1C7 JUMPI PUSH1 0x0 DUP1 REVERT JUMPDEST POP PUSH2 0x1D0 PUSH2 0x6C0 JUMP JUMPDEST PUSH1 0x40 MLOAD PUSH2 0x1DD SWAP2 SWAP1 PUSH2 0x2072 JUMP JUMPDEST PUSH1 0x40 MLOAD DUP1 SWAP2 SUB SWAP1 RETURN JUMPDEST CALLVALUE DUP1 ISZERO PUSH2 0x1F2 JUMPI PUSH1 0x0 DUP1 REVERT JUMPDEST POP PUSH2 0x20D PUSH1 0x4 DUP1 CALLDATASIZE SUB DUP2 ADD SWAP1 PUSH2 0x208 SWAP2 SWAP1 PUSH2 0x1CFD JUMP JUMPDEST PUSH2 0x6D7 JUMP JUMPDEST STOP JUMPDEST CALLVALUE DUP1 ISZERO PUSH2 0x21B JUMPI PUSH1 0x0 DUP1 REVERT JUMPDEST POP PUSH2 0x236 PUSH1 0x4 DUP1 CALLDATASIZE SUB DUP2 ADD SWAP1 PUSH2 0x231 SWAP2 SWAP1 PUSH2 0x1CFD JUMP JUMPDEST PUSH2 0x6E7 JUMP JUMPDEST STOP JUMPDEST CALLVALUE DUP1 ISZERO PUSH2 0x244 JUMPI PUSH1 0x0 DUP1 REVERT JUMPDEST POP PUSH2 0x25F PUSH1 0x4 DUP1 CALLDATASIZE SUB DUP2 ADD SWAP1 PUSH2 0x25A SWAP2 SWAP1 PUSH2 0x1EAD JUMP JUMPDEST PUSH2 0x707 JUMP JUMPDEST PUSH1 0x40 MLOAD PUSH2 0x26C SWAP2 SWAP1 PUSH2 0x1FCE JUMP JUMPDEST PUSH1 0x40 MLOAD DUP1 SWAP2 SUB SWAP1 RETURN JUMPDEST CALLVALUE DUP1 ISZERO PUSH2 0x281 JUMPI PUSH1 0x0 DUP1 REVERT JUMPDEST POP PUSH2 0x29C PUSH1 0x4 DUP1 CALLDATASIZE SUB DUP2 ADD SWAP1 PUSH2 0x297 SWAP2 SWAP1 PUSH2 0x1C90 JUMP JUMPDEST PUSH2 0x71D JUMP JUMPDEST PUSH1 0x40 MLOAD PUSH2 0x2A9 SWAP2 SWAP1 PUSH2 0x2072 JUMP JUMPDEST PUSH1 0x40 MLOAD DUP1 SWAP2 SUB SWAP1 RETURN JUMPDEST CALLVALUE DUP1 ISZERO PUSH2 0x2BE JUMPI PUSH1 0x0 DUP1 REVERT JUMPDEST POP PUSH2 0x2C7 PUSH2 0x7ED JUMP JUMPDEST PUSH1 0x40 MLOAD PUSH2 0x2D4 SWAP2 SWAP1 PUSH2 0x2050 JUMP JUMPDEST PUSH1 0x40 MLOAD DUP1 SWAP2 SUB SWAP1 RETURN JUMPDEST PUSH2 0x2F7 PUSH1 0x4 DUP1 CALLDATASIZE SUB DUP2 ADD SWAP1 PUSH2 0x2F2 SWAP2 SWAP1 PUSH2 0x1EAD JUMP JUMPDEST PUSH2 0x87F JUMP JUMPDEST STOP JUMPDEST CALLVALUE DUP1 ISZERO PUSH2 0x305 JUMPI PUSH1 0x0 DUP1 REVERT JUMPDEST POP PUSH2 0x320 PUSH1 0x4 DUP1 CALLDATASIZE SUB DUP2 ADD SWAP1 PUSH2 0x31B SWAP2 SWAP1 PUSH2 0x1DD3 JUMP JUMPDEST PUSH2 0x88C JUMP JUMPDEST STOP JUMPDEST CALLVALUE DUP1 ISZERO PUSH2 0x32E JUMPI PUSH1 0x0 DUP1 REVERT JUMPDEST POP PUSH2 0x349 PUSH1 0x4 DUP1 CALLDATASIZE SUB DUP2 ADD SWAP1 PUSH2 0x344 SWAP2 SWAP1 PUSH2 0x1D50 JUMP JUMPDEST PUSH2 0xA04 JUMP JUMPDEST STOP JUMPDEST CALLVALUE DUP1 ISZERO PUSH2 0x357 JUMPI PUSH1 0x0 DUP1 REVERT JUMPDEST POP PUSH2 0x372 PUSH1 0x4 DUP1 CALLDATASIZE SUB DUP2 ADD SWAP1 PUSH2 0x36D SWAP2 SWAP1 PUSH2 0x1EAD JUMP JUMPDEST PUSH2 0xA80 JUMP JUMPDEST PUSH1 0x40 MLOAD PUSH2 0x37F SWAP2 SWAP1 PUSH2 0x2050 JUMP JUMPDEST PUSH1 0x40 MLOAD DUP1 SWAP2 SUB SWAP1 RETURN JUMPDEST CALLVALUE DUP1 ISZERO PUSH2 0x394 JUMPI PUSH1 0x0 DUP1 REVERT JUMPDEST POP PUSH2 0x3AF PUSH1 0x4 DUP1 CALLDATASIZE SUB DUP2 ADD SWAP1 PUSH2 0x3AA SWAP2 SWAP1 PUSH2 0x1CBD JUMP JUMPDEST PUSH2 0xB1F JUMP JUMPDEST PUSH1 0x40 MLOAD PUSH2 0x3BC SWAP2 SWAP1 PUSH2 0x2035 JUMP JUMPDEST PUSH1 0x40 MLOAD DUP1 SWAP2 SUB SWAP1 RETURN JUMPDEST PUSH1 0x0 PUSH32 0x80AC58CD00000000000000000000000000000000000000000000000000000000 PUSH28 0xFFFFFFFFFFFFFFFFFFFFFFFFFFFFFFFFFFFFFFFFFFFFFFFFFFFFFFFF NOT AND DUP3 PUSH28 0xFFFFFFFFFFFFFFFFFFFFFFFFFFFFFFFFFFFFFFFFFFFFFFFFFFFFFFFF NOT AND EQ DUP1 PUSH2 0x490 JUMPI POP PUSH32 0x5B5E139F00000000000000000000000000000000000000000000000000000000 PUSH28 0xFFFFFFFFFFFFFFFFFFFFFFFFFFFFFFFFFFFFFFFFFFFFFFFFFFFFFFFF NOT AND DUP3 PUSH28 0xFFFFFFFFFFFFFFFFFFFFFFFFFFFFFFFFFFFFFFFFFFFFFFFFFFFFFFFF NOT AND EQ JUMPDEST DUP1 PUSH2 0x4A0 JUMPI POP PUSH2 0x49F DUP3 PUSH2 0xBB3 JUMP JUMPDEST JUMPDEST SWAP1 POP SWAP2 SWAP1 POP JUMP JUMPDEST PUSH1 0x60 PUSH1 0x2 DUP1 SLOAD PUSH2 0x4B6 SWAP1 PUSH2 0x2297 JUMP JUMPDEST DUP1 PUSH1 0x1F ADD PUSH1 0x20 DUP1 SWAP2 DIV MUL PUSH1 0x20 ADD PUSH1 0x40 MLOAD SWAP1 DUP2 ADD PUSH1 0x40 MSTORE DUP1 SWAP3 SWAP2 SWAP1 DUP2 DUP2 MSTORE PUSH1 0x20 ADD DUP3 DUP1 SLOAD PUSH2 0x4E2 SWAP1 PUSH2 0x2297 JUMP JUMPDEST DUP1 ISZERO PUSH2 0x52F JUMPI DUP1 PUSH1 0x1F LT PUSH2 0x504 JUMPI PUSH2 0x100 DUP1 DUP4 SLOAD DIV MUL DUP4 MSTORE SWAP2 PUSH1 0x20 ADD SWAP2 PUSH2 0x52F JUMP JUMPDEST DUP3 ADD SWAP2 SWAP1 PUSH1 0x0 MSTORE PUSH1 0x20 PUSH1 0x0 KECCAK256 SWAP1 JUMPDEST DUP2 SLOAD DUP2 MSTORE SWAP1 PUSH1 0x1 ADD SWAP1 PUSH1 0x20 ADD DUP1 DUP4 GT PUSH2 0x512 JUMPI DUP3 SWAP1 SUB PUSH1 0x1F AND DUP3 ADD SWAP2 JUMPDEST POP POP POP POP POP SWAP1 POP SWAP1 JUMP JUMPDEST PUSH1 0x0 PUSH2 0x544 DUP3 PUSH2 0xC1D JUMP JUMPDEST PUSH2 0x57A JUMPI PUSH1 0x40 MLOAD PUSH32 0xCF4700E400000000000000000000000000000000000000000000000000000000 DUP2 MSTORE PUSH1 0x4 ADD PUSH1 0x40 MLOAD DUP1 SWAP2 SUB SWAP1 REVERT JUMPDEST PUSH1 0x6 PUSH1 0x0 DUP4 DUP2 MSTORE PUSH1 0x20 ADD SWAP1 DUP2 MSTORE PUSH1 0x20 ADD PUSH1 0x0 KECCAK256 PUSH1 0x0 SWAP1 SLOAD SWAP1 PUSH2 0x100 EXP SWAP1 DIV PUSH20 0xFFFFFFFFFFFFFFFFFFFFFFFFFFFFFFFFFFFFFFFF AND SWAP1 POP SWAP2 SWAP1 POP JUMP JUMPDEST PUSH1 0x0 PUSH2 0x5C0 DUP3 PUSH2 0x707 JUMP JUMPDEST SWAP1 POP DUP1 PUSH20 0xFFFFFFFFFFFFFFFFFFFFFFFFFFFFFFFFFFFFFFFF AND DUP4 PUSH20 0xFFFFFFFFFFFFFFFFFFFFFFFFFFFFFFFFFFFFFFFF AND EQ ISZERO PUSH2 0x628 JUMPI PUSH1 0x40 MLOAD PUSH32 0x943F7B8C00000000000000000000000000000000000000000000000000000000 DUP2 MSTORE PUSH1 0x4 ADD PUSH1 0x40 MLOAD DUP1 SWAP2 SUB SWAP1 REVERT JUMPDEST DUP1 PUSH20 0xFFFFFFFFFFFFFFFFFFFFFFFFFFFFFFFFFFFFFFFF AND PUSH2 0x647 PUSH2 0xC6B JUMP JUMPDEST PUSH20 0xFFFFFFFFFFFFFFFFFFFFFFFFFFFFFFFFFFFFFFFF AND EQ ISZERO DUP1 ISZERO PUSH2 0x679 JUMPI POP PUSH2 0x677 DUP2 PUSH2 0x672 PUSH2 0xC6B JUMP JUMPDEST PUSH2 0xB1F JUMP JUMPDEST ISZERO JUMPDEST ISZERO PUSH2 0x6B0 JUMPI PUSH1 0x40 MLOAD PUSH32 0xCFB3B94200000000000000000000000000000000000000000000000000000000 DUP2 MSTORE PUSH1 0x4 ADD PUSH1 0x40 MLOAD DUP1 SWAP2 SUB SWAP1 REVERT JUMPDEST PUSH2 0x6BB DUP4 DUP4 DUP4 PUSH2 0xC73 JUMP JUMPDEST POP POP POP JUMP JUMPDEST PUSH1 0x0 PUSH2 0x6CA PUSH2 0xD25 JUMP JUMPDEST PUSH1 0x1 SLOAD PUSH1 0x0 SLOAD SUB SUB SWAP1 POP SWAP1 JUMP JUMPDEST PUSH2 0x6E2 DUP4 DUP4 DUP4 PUSH2 0xD2A JUMP JUMPDEST POP POP POP JUMP JUMPDEST PUSH2 0x702 DUP4 DUP4 DUP4 PUSH1 0x40 MLOAD DUP1 PUSH1 0x20 ADD PUSH1 0x40 MSTORE DUP1 PUSH1 0x0 DUP2 MSTORE POP PUSH2 0xA04 JUMP JUMPDEST POP POP POP JUMP JUMPDEST PUSH1 0x0 PUSH2 0x712 DUP3 PUSH2 0x11E0 JUMP JUMPDEST PUSH1 0x0 ADD MLOAD SWAP1 POP SWAP2 SWAP1 POP JUMP JUMPDEST PUSH1 0x0 DUP1 PUSH20 0xFFFFFFFFFFFFFFFFFFFFFFFFFFFFFFFFFFFFFFFF AND DUP3 PUSH20 0xFFFFFFFFFFFFFFFFFFFFFFFFFFFFFFFFFFFFFFFF AND EQ ISZERO PUSH2 0x785 JUMPI PUSH1 0x40 MLOAD PUSH32 0x8F4EB60400000000000000000000000000000000000000000000000000000000 DUP2 MSTORE PUSH1 0x4 ADD PUSH1 0x40 MLOAD DUP1 SWAP2 SUB SWAP1 REVERT JUMPDEST PUSH1 0x5 PUSH1 0x0 DUP4 PUSH20 0xFFFFFFFFFFFFFFFFFFFFFFFFFFFFFFFFFFFFFFFF AND PUSH20 0xFFFFFFFFFFFFFFFFFFFFFFFFFFFFFFFFFFFFFFFF AND DUP2 MSTORE PUSH1 0x20 ADD SWAP1 DUP2 MSTORE PUSH1 0x20 ADD PUSH1 0x0 KECCAK256 PUSH1 0x0 ADD PUSH1 0x0 SWAP1 SLOAD SWAP1 PUSH2 0x100 EXP SWAP1 DIV PUSH8 0xFFFFFFFFFFFFFFFF AND PUSH8 0xFFFFFFFFFFFFFFFF AND SWAP1 POP SWAP2 SWAP1 POP JUMP JUMPDEST PUSH1 0x60 PUSH1 0x3 DUP1 SLOAD PUSH2 0x7FC SWAP1 PUSH2 0x2297 JUMP JUMPDEST DUP1 PUSH1 0x1F ADD PUSH1 0x20 DUP1 SWAP2 DIV MUL PUSH1 0x20 ADD PUSH1 0x40 MLOAD SWAP1 DUP2 ADD PUSH1 0x40 MSTORE DUP1 SWAP3 SWAP2 SWAP1 DUP2 DUP2 MSTORE PUSH1 0x20 ADD DUP3 DUP1 SLOAD PUSH2 0x828 SWAP1 PUSH2 0x2297 JUMP JUMPDEST DUP1 ISZERO PUSH2 0x875 JUMPI DUP1 PUSH1 0x1F LT PUSH2 0x84A JUMPI PUSH2 0x100 DUP1 DUP4 SLOAD DIV MUL DUP4 MSTORE SWAP2 PUSH1 0x20 ADD SWAP2 PUSH2 0x875 JUMP JUMPDEST DUP3 ADD SWAP2 SWAP1 PUSH1 0x0 MSTORE PUSH1 0x20 PUSH1 0x0 KECCAK256 SWAP1 JUMPDEST DUP2 SLOAD DUP2 MSTORE SWAP1 PUSH1 0x1 ADD SWAP1 PUSH1 0x20 ADD DUP1 DUP4 GT PUSH2 0x858 JUMPI DUP3 SWAP1 SUB PUSH1 0x1F AND DUP3 ADD SWAP2 JUMPDEST POP POP POP POP POP SWAP1 POP SWAP1 JUMP JUMPDEST PUSH2 0x889 CALLER DUP3 PUSH2 0x146F JUMP JUMPDEST POP JUMP JUMPDEST PUSH2 0x894 PUSH2 0xC6B JUMP JUMPDEST PUSH20 0xFFFFFFFFFFFFFFFFFFFFFFFFFFFFFFFFFFFFFFFF AND DUP3 PUSH20 0xFFFFFFFFFFFFFFFFFFFFFFFFFFFFFFFFFFFFFFFF AND EQ ISZERO PUSH2 0x8F9 JUMPI PUSH1 0x40 MLOAD PUSH32 0xB06307DB00000000000000000000000000000000000000000000000000000000 DUP2 MSTORE PUSH1 0x4 ADD PUSH1 0x40 MLOAD DUP1 SWAP2 SUB SWAP1 REVERT JUMPDEST DUP1 PUSH1 0x7 PUSH1 0x0 PUSH2 0x906 PUSH2 0xC6B JUMP JUMPDEST PUSH20 0xFFFFFFFFFFFFFFFFFFFFFFFFFFFFFFFFFFFFFFFF AND PUSH20 0xFFFFFFFFFFFFFFFFFFFFFFFFFFFFFFFFFFFFFFFF AND DUP2 MSTORE PUSH1 0x20 ADD SWAP1 DUP2 MSTORE PUSH1 0x20 ADD PUSH1 0x0 KECCAK256 PUSH1 0x0 DUP5 PUSH20 0xFFFFFFFFFFFFFFFFFFFFFFFFFFFFFFFFFFFFFFFF AND PUSH20 0xFFFFFFFFFFFFFFFFFFFFFFFFFFFFFFFFFFFFFFFF AND DUP2 MSTORE PUSH1 0x20 ADD SWAP1 DUP2 MSTORE PUSH1 0x20 ADD PUSH1 0x0 KECCAK256 PUSH1 0x0 PUSH2 0x100 EXP DUP2 SLOAD DUP2 PUSH1 0xFF MUL NOT AND SWAP1 DUP4 ISZERO ISZERO MUL OR SWAP1 SSTORE POP DUP2 PUSH20 0xFFFFFFFFFFFFFFFFFFFFFFFFFFFFFFFFFFFFFFFF AND PUSH2 0x9B3 PUSH2 0xC6B JUMP JUMPDEST PUSH20 0xFFFFFFFFFFFFFFFFFFFFFFFFFFFFFFFFFFFFFFFF AND PUSH32 0x17307EAB39AB6107E8899845AD3D59BD9653F200F220920489CA2B5937696C31 DUP4 PUSH1 0x40 MLOAD PUSH2 0x9F8 SWAP2 SWAP1 PUSH2 0x2035 JUMP JUMPDEST PUSH1 0x40 MLOAD DUP1 SWAP2 SUB SWAP1 LOG3 POP POP JUMP JUMPDEST PUSH2 0xA0F DUP5 DUP5 DUP5 PUSH2 0xD2A JUMP JUMPDEST PUSH2 0xA2E DUP4 PUSH20 0xFFFFFFFFFFFFFFFFFFFFFFFFFFFFFFFFFFFFFFFF AND PUSH2 0x148D JUMP JUMPDEST DUP1 ISZERO PUSH2 0xA43 JUMPI POP PUSH2 0xA41 DUP5 DUP5 DUP5 DUP5 PUSH2 0x14B0 JUMP JUMPDEST ISZERO JUMPDEST ISZERO PUSH2 0xA7A JUMPI PUSH1 0x40 MLOAD PUSH32 0xD1A57ED600000000000000000000000000000000000000000000000000000000 DUP2 MSTORE PUSH1 0x4 ADD PUSH1 0x40 MLOAD DUP1 SWAP2 SUB SWAP1 REVERT JUMPDEST POP POP POP POP JUMP JUMPDEST PUSH1 0x60 PUSH2 0xA8B DUP3 PUSH2 0xC1D JUMP JUMPDEST PUSH2 0xAC1 JUMPI PUSH1 0x40 MLOAD PUSH32 0xA14C4B5000000000000000000000000000000000000000000000000000000000 DUP2 MSTORE PUSH1 0x4 ADD PUSH1 0x40 MLOAD DUP1 SWAP2 SUB SWAP1 REVERT JUMPDEST PUSH1 0x0 PUSH2 0xACB PUSH2 0x1610 JUMP JUMPDEST SWAP1 POP PUSH1 0x0 DUP2 MLOAD EQ ISZERO PUSH2 0xAEC JUMPI PUSH1 0x40 MLOAD DUP1 PUSH1 0x20 ADD PUSH1 0x40 MSTORE DUP1 PUSH1 0x0 DUP2 MSTORE POP PUSH2 0xB17 JUMP JUMPDEST DUP1 PUSH2 0xAF6 DUP5 PUSH2 0x1627 JUMP JUMPDEST PUSH1 0x40 MLOAD PUSH1 0x20 ADD PUSH2 0xB07 SWAP3 SWAP2 SWAP1 PUSH2 0x1FAA JUMP JUMPDEST PUSH1 0x40 MLOAD PUSH1 0x20 DUP2 DUP4 SUB SUB DUP2 MSTORE SWAP1 PUSH1 0x40 MSTORE JUMPDEST SWAP2 POP POP SWAP2 SWAP1 POP JUMP JUMPDEST PUSH1 0x0 PUSH1 0x7 PUSH1 0x0 DUP5 PUSH20 0xFFFFFFFFFFFFFFFFFFFFFFFFFFFFFFFFFFFFFFFF AND PUSH20 0xFFFFFFFFFFFFFFFFFFFFFFFFFFFFFFFFFFFFFFFF AND DUP2 MSTORE PUSH1 0x20 ADD SWAP1 DUP2 MSTORE PUSH1 0x20 ADD PUSH1 0x0 KECCAK256 PUSH1 0x0 DUP4 PUSH20 0xFFFFFFFFFFFFFFFFFFFFFFFFFFFFFFFFFFFFFFFF AND PUSH20 0xFFFFFFFFFFFFFFFFFFFFFFFFFFFFFFFFFFFFFFFF AND DUP2 MSTORE PUSH1 0x20 ADD SWAP1 DUP2 MSTORE PUSH1 0x20 ADD PUSH1 0x0 KECCAK256 PUSH1 0x0 SWAP1 SLOAD SWAP1 PUSH2 0x100 EXP SWAP1 DIV PUSH1 0xFF AND SWAP1 POP SWAP3 SWAP2 POP POP JUMP JUMPDEST PUSH1 0x0 PUSH32 0x1FFC9A700000000000000000000000000000000000000000000000000000000 PUSH28 0xFFFFFFFFFFFFFFFFFFFFFFFFFFFFFFFFFFFFFFFFFFFFFFFFFFFFFFFF NOT AND DUP3 PUSH28 0xFFFFFFFFFFFFFFFFFFFFFFFFFFFFFFFFFFFFFFFFFFFFFFFFFFFFFFFF NOT AND EQ SWAP1 POP SWAP2 SWAP1 POP JUMP JUMPDEST PUSH1 0x0 DUP2 PUSH2 0xC28 PUSH2 0xD25 JUMP JUMPDEST GT ISZERO DUP1 ISZERO PUSH2 0xC37 JUMPI POP PUSH1 0x0 SLOAD DUP3 LT JUMPDEST DUP1 ISZERO PUSH2 0xC64 JUMPI POP PUSH1 0x4 PUSH1 0x0 DUP4 DUP2 MSTORE PUSH1 0x20 ADD SWAP1 DUP2 MSTORE PUSH1 0x20 ADD PUSH1 0x0 KECCAK256 PUSH1 0x0 ADD PUSH1 0x1C SWAP1 SLOAD SWAP1 PUSH2 0x100 EXP SWAP1 DIV PUSH1 0xFF AND ISZERO JUMPDEST SWAP1 POP SWAP2 SWAP1 POP JUMP JUMPDEST PUSH1 0x0 CALLER SWAP1 POP SWAP1 JUMP JUMPDEST DUP3 PUSH1 0x6 PUSH1 0x0 DUP5 DUP2 MSTORE PUSH1 0x20 ADD SWAP1 DUP2 MSTORE PUSH1 0x20 ADD PUSH1 0x0 KECCAK256 PUSH1 0x0 PUSH2 0x100 EXP DUP2 SLOAD DUP2 PUSH20 0xFFFFFFFFFFFFFFFFFFFFFFFFFFFFFFFFFFFFFFFF MUL NOT AND SWAP1 DUP4 PUSH20 0xFFFFFFFFFFFFFFFFFFFFFFFFFFFFFFFFFFFFFFFF AND MUL OR SWAP1 SSTORE POP DUP2 DUP4 PUSH20 0xFFFFFFFFFFFFFFFFFFFFFFFFFFFFFFFFFFFFFFFF AND DUP3 PUSH20 0xFFFFFFFFFFFFFFFFFFFFFFFFFFFFFFFFFFFFFFFF AND PUSH32 0x8C5BE1E5EBEC7D5BD14F71427D1E84F3DD0314C0F7B2291E5B200AC8C7C3B925 PUSH1 0x40 MLOAD PUSH1 0x40 MLOAD DUP1 SWAP2 SUB SWAP1 LOG4 POP POP POP JUMP JUMPDEST PUSH1 0x0 SWAP1 JUMP JUMPDEST PUSH1 0x0 PUSH2 0xD35 DUP3 PUSH2 0x11E0 JUMP JUMPDEST SWAP1 POP DUP4 PUSH20 0xFFFFFFFFFFFFFFFFFFFFFFFFFFFFFFFFFFFFFFFF AND DUP2 PUSH1 0x0 ADD MLOAD PUSH20 0xFFFFFFFFFFFFFFFFFFFFFFFFFFFFFFFFFFFFFFFF AND EQ PUSH2 0xDA0 JUMPI PUSH1 0x40 MLOAD PUSH32 0xA114810000000000000000000000000000000000000000000000000000000000 DUP2 MSTORE PUSH1 0x4 ADD PUSH1 0x40 MLOAD DUP1 SWAP2 SUB SWAP1 REVERT JUMPDEST PUSH1 0x0 DUP5 PUSH20 0xFFFFFFFFFFFFFFFFFFFFFFFFFFFFFFFFFFFFFFFF AND PUSH2 0xDC1 PUSH2 0xC6B JUMP JUMPDEST PUSH20 0xFFFFFFFFFFFFFFFFFFFFFFFFFFFFFFFFFFFFFFFF AND EQ DUP1 PUSH2 0xDF0 JUMPI POP PUSH2 0xDEF DUP6 PUSH2 0xDEA PUSH2 0xC6B JUMP JUMPDEST PUSH2 0xB1F JUMP JUMPDEST JUMPDEST DUP1 PUSH2 0xE35 JUMPI POP PUSH2 0xDFE PUSH2 0xC6B JUMP JUMPDEST PUSH20 0xFFFFFFFFFFFFFFFFFFFFFFFFFFFFFFFFFFFFFFFF AND PUSH2 0xE1D DUP5 PUSH2 0x539 JUMP JUMPDEST PUSH20 0xFFFFFFFFFFFFFFFFFFFFFFFFFFFFFFFFFFFFFFFF AND EQ JUMPDEST SWAP1 POP DUP1 PUSH2 0xE6E JUMPI PUSH1 0x40 MLOAD PUSH32 0x59C896BE00000000000000000000000000000000000000000000000000000000 DUP2 MSTORE PUSH1 0x4 ADD PUSH1 0x40 MLOAD DUP1 SWAP2 SUB SWAP1 REVERT JUMPDEST PUSH1 0x0 PUSH20 0xFFFFFFFFFFFFFFFFFFFFFFFFFFFFFFFFFFFFFFFF AND DUP5 PUSH20 0xFFFFFFFFFFFFFFFFFFFFFFFFFFFFFFFFFFFFFFFF AND EQ ISZERO PUSH2 0xED5 JUMPI PUSH1 0x40 MLOAD PUSH32 0xEA553B3400000000000000000000000000000000000000000000000000000000 DUP2 MSTORE PUSH1 0x4 ADD PUSH1 0x40 MLOAD DUP1 SWAP2 SUB SWAP1 REVERT JUMPDEST PUSH2 0xEE2 DUP6 DUP6 DUP6 PUSH1 0x1 PUSH2 0x1788 JUMP JUMPDEST PUSH2 0xEEE PUSH1 0x0 DUP5 DUP8 PUSH2 0xC73 JUMP JUMPDEST PUSH1 0x1 PUSH1 0x5 PUSH1 0x0 DUP8 PUSH20 0xFFFFFFFFFFFFFFFFFFFFFFFFFFFFFFFFFFFFFFFF AND PUSH20 0xFFFFFFFFFFFFFFFFFFFFFFFFFFFFFFFFFFFFFFFF AND DUP2 MSTORE PUSH1 0x20 ADD SWAP1 DUP2 MSTORE PUSH1 0x20 ADD PUSH1 0x0 KECCAK256 PUSH1 0x0 ADD PUSH1 0x0 DUP3 DUP3 DUP3 SWAP1 SLOAD SWAP1 PUSH2 0x100 EXP SWAP1 DIV PUSH8 0xFFFFFFFFFFFFFFFF AND SUB SWAP3 POP PUSH2 0x100 EXP DUP2 SLOAD DUP2 PUSH8 0xFFFFFFFFFFFFFFFF MUL NOT AND SWAP1 DUP4 PUSH8 0xFFFFFFFFFFFFFFFF AND MUL OR SWAP1 SSTORE POP PUSH1 0x1 PUSH1 0x5 PUSH1 0x0 DUP7 PUSH20 0xFFFFFFFFFFFFFFFFFFFFFFFFFFFFFFFFFFFFFFFF AND PUSH20 0xFFFFFFFFFFFFFFFFFFFFFFFFFFFFFFFFFFFFFFFF AND DUP2 MSTORE PUSH1 0x20 ADD SWAP1 DUP2 MSTORE PUSH1 0x20 ADD PUSH1 0x0 KECCAK256 PUSH1 0x0 ADD PUSH1 0x0 DUP3 DUP3 DUP3 SWAP1 SLOAD SWAP1 PUSH2 0x100 EXP SWAP1 DIV PUSH8 0xFFFFFFFFFFFFFFFF AND ADD SWAP3 POP PUSH2 0x100 EXP DUP2 SLOAD DUP2 PUSH8 0xFFFFFFFFFFFFFFFF MUL NOT AND SWAP1 DUP4 PUSH8 0xFFFFFFFFFFFFFFFF AND MUL OR SWAP1 SSTORE POP PUSH1 0x0 PUSH1 0x4 PUSH1 0x0 DUP6 DUP2 MSTORE PUSH1 0x20 ADD SWAP1 DUP2 MSTORE PUSH1 0x20 ADD PUSH1 0x0 KECCAK256 SWAP1 POP DUP5 DUP2 PUSH1 0x0 ADD PUSH1 0x0 PUSH2 0x100 EXP DUP2 SLOAD DUP2 PUSH20 0xFFFFFFFFFFFFFFFFFFFFFFFFFFFFFFFFFFFFFFFF MUL NOT AND SWAP1 DUP4 PUSH20 0xFFFFFFFFFFFFFFFFFFFFFFFFFFFFFFFFFFFFFFFF AND MUL OR SWAP1 SSTORE POP TIMESTAMP DUP2 PUSH1 0x0 ADD PUSH1 0x14 PUSH2 0x100 EXP DUP2 SLOAD DUP2 PUSH8 0xFFFFFFFFFFFFFFFF MUL NOT AND SWAP1 DUP4 PUSH8 0xFFFFFFFFFFFFFFFF AND MUL OR SWAP1 SSTORE POP PUSH1 0x0 PUSH1 0x1 DUP6 ADD SWAP1 POP PUSH1 0x0 PUSH1 0x4 PUSH1 0x0 DUP4 DUP2 MSTORE PUSH1 0x20 ADD SWAP1 DUP2 MSTORE PUSH1 0x20 ADD PUSH1 0x0 KECCAK256 SWAP1 POP PUSH1 0x0 PUSH20 0xFFFFFFFFFFFFFFFFFFFFFFFFFFFFFFFFFFFFFFFF AND DUP2 PUSH1 0x0 ADD PUSH1 0x0 SWAP1 SLOAD SWAP1 PUSH2 0x100 EXP SWAP1 DIV PUSH20 0xFFFFFFFFFFFFFFFFFFFFFFFFFFFFFFFFFFFFFFFF AND PUSH20 0xFFFFFFFFFFFFFFFFFFFFFFFFFFFFFFFFFFFFFFFF AND EQ ISZERO PUSH2 0x116E JUMPI PUSH1 0x0 SLOAD DUP3 EQ PUSH2 0x116D JUMPI DUP8 DUP2 PUSH1 0x0 ADD PUSH1 0x0 PUSH2 0x100 EXP DUP2 SLOAD DUP2 PUSH20 0xFFFFFFFFFFFFFFFFFFFFFFFFFFFFFFFFFFFFFFFF MUL NOT AND SWAP1 DUP4 PUSH20 0xFFFFFFFFFFFFFFFFFFFFFFFFFFFFFFFFFFFFFFFF AND MUL OR SWAP1 SSTORE POP DUP5 PUSH1 0x20 ADD MLOAD DUP2 PUSH1 0x0 ADD PUSH1 0x14 PUSH2 0x100 EXP DUP2 SLOAD DUP2 PUSH8 0xFFFFFFFFFFFFFFFF MUL NOT AND SWAP1 DUP4 PUSH8 0xFFFFFFFFFFFFFFFF AND MUL OR SWAP1 SSTORE POP JUMPDEST JUMPDEST POP POP POP DUP3 DUP5 PUSH20 0xFFFFFFFFFFFFFFFFFFFFFFFFFFFFFFFFFFFFFFFF AND DUP7 PUSH20 0xFFFFFFFFFFFFFFFFFFFFFFFFFFFFFFFFFFFFFFFF AND PUSH32 0xDDF252AD1BE2C89B69C2B068FC378DAA952BA7F163C4A11628F55A4DF523B3EF PUSH1 0x40 MLOAD PUSH1 0x40 MLOAD DUP1 SWAP2 SUB SWAP1 LOG4 PUSH2 0x11D9 DUP6 DUP6 DUP6 PUSH1 0x1 PUSH2 0x178E JUMP JUMPDEST POP POP POP POP POP JUMP JUMPDEST PUSH2 0x11E8 PUSH2 0x1B74 JUMP JUMPDEST PUSH1 0x0 DUP3 SWAP1 POP DUP1 PUSH2 0x11F6 PUSH2 0xD25 JUMP JUMPDEST GT ISZERO DUP1 ISZERO PUSH2 0x1205 JUMPI POP PUSH1 0x0 SLOAD DUP2 LT JUMPDEST ISZERO PUSH2 0x1438 JUMPI PUSH1 0x0 PUSH1 0x4 PUSH1 0x0 DUP4 DUP2 MSTORE PUSH1 0x20 ADD SWAP1 DUP2 MSTORE PUSH1 0x20 ADD PUSH1 0x0 KECCAK256 PUSH1 0x40 MLOAD DUP1 PUSH1 0x60 ADD PUSH1 0x40 MSTORE SWAP1 DUP2 PUSH1 0x0 DUP3 ADD PUSH1 0x0 SWAP1 SLOAD SWAP1 PUSH2 0x100 EXP SWAP1 DIV PUSH20 0xFFFFFFFFFFFFFFFFFFFFFFFFFFFFFFFFFFFFFFFF AND PUSH20 0xFFFFFFFFFFFFFFFFFFFFFFFFFFFFFFFFFFFFFFFF AND PUSH20 0xFFFFFFFFFFFFFFFFFFFFFFFFFFFFFFFFFFFFFFFF AND DUP2 MSTORE PUSH1 0x20 ADD PUSH1 0x0 DUP3 ADD PUSH1 0x14 SWAP1 SLOAD SWAP1 PUSH2 0x100 EXP SWAP1 DIV PUSH8 0xFFFFFFFFFFFFFFFF AND PUSH8 0xFFFFFFFFFFFFFFFF AND PUSH8 0xFFFFFFFFFFFFFFFF AND DUP2 MSTORE PUSH1 0x20 ADD PUSH1 0x0 DUP3 ADD PUSH1 0x1C SWAP1 SLOAD SWAP1 PUSH2 0x100 EXP SWAP1 DIV PUSH1 0xFF AND ISZERO ISZERO ISZERO ISZERO DUP2 MSTORE POP POP SWAP1 POP DUP1 PUSH1 0x40 ADD MLOAD PUSH2 0x1436 JUMPI PUSH1 0x0 PUSH20 0xFFFFFFFFFFFFFFFFFFFFFFFFFFFFFFFFFFFFFFFF AND DUP2 PUSH1 0x0 ADD MLOAD PUSH20 0xFFFFFFFFFFFFFFFFFFFFFFFFFFFFFFFFFFFFFFFF AND EQ PUSH2 0x131A JUMPI DUP1 SWAP3 POP POP POP PUSH2 0x146A JUMP JUMPDEST JUMPDEST PUSH1 0x1 ISZERO PUSH2 0x1435 JUMPI DUP2 DUP1 PUSH1 0x1 SWAP1 SUB SWAP3 POP POP PUSH1 0x4 PUSH1 0x0 DUP4 DUP2 MSTORE PUSH1 0x20 ADD SWAP1 DUP2 MSTORE PUSH1 0x20 ADD PUSH1 0x0 KECCAK256 PUSH1 0x40 MLOAD DUP1 PUSH1 0x60 ADD PUSH1 0x40 MSTORE SWAP1 DUP2 PUSH1 0x0 DUP3 ADD PUSH1 0x0 SWAP1 SLOAD SWAP1 PUSH2 0x100 EXP SWAP1 DIV PUSH20 0xFFFFFFFFFFFFFFFFFFFFFFFFFFFFFFFFFFFFFFFF AND PUSH20 0xFFFFFFFFFFFFFFFFFFFFFFFFFFFFFFFFFFFFFFFF AND PUSH20 0xFFFFFFFFFFFFFFFFFFFFFFFFFFFFFFFFFFFFFFFF AND DUP2 MSTORE PUSH1 0x20 ADD PUSH1 0x0 DUP3 ADD PUSH1 0x14 SWAP1 SLOAD SWAP1 PUSH2 0x100 EXP SWAP1 DIV PUSH8 0xFFFFFFFFFFFFFFFF AND PUSH8 0xFFFFFFFFFFFFFFFF AND PUSH8 0xFFFFFFFFFFFFFFFF AND DUP2 MSTORE PUSH1 0x20 ADD PUSH1 0x0 DUP3 ADD PUSH1 0x1C SWAP1 SLOAD SWAP1 PUSH2 0x100 EXP SWAP1 DIV PUSH1 0xFF AND ISZERO ISZERO ISZERO ISZERO DUP2 MSTORE POP POP SWAP1 POP PUSH1 0x0 PUSH20 0xFFFFFFFFFFFFFFFFFFFFFFFFFFFFFFFFFFFFFFFF AND DUP2 PUSH1 0x0 ADD MLOAD PUSH20 0xFFFFFFFFFFFFFFFFFFFFFFFFFFFFFFFFFFFFFFFF AND EQ PUSH2 0x1430 JUMPI DUP1 SWAP3 POP POP POP PUSH2 0x146A JUMP JUMPDEST PUSH2 0x131B JUMP JUMPDEST JUMPDEST POP JUMPDEST PUSH1 0x40 MLOAD PUSH32 0xDF2D9B4200000000000000000000000000000000000000000000000000000000 DUP2 MSTORE PUSH1 0x4 ADD PUSH1 0x40 MLOAD DUP1 SWAP2 SUB SWAP1 REVERT JUMPDEST SWAP2 SWAP1 POP JUMP JUMPDEST PUSH2 0x1489 DUP3 DUP3 PUSH1 0x40 MLOAD DUP1 PUSH1 0x20 ADD PUSH1 0x40 MSTORE DUP1 PUSH1 0x0 DUP2 MSTORE POP PUSH2 0x1794 JUMP JUMPDEST POP POP JUMP JUMPDEST PUSH1 0x0 DUP1 DUP3 PUSH20 0xFFFFFFFFFFFFFFFFFFFFFFFFFFFFFFFFFFFFFFFF AND EXTCODESIZE GT SWAP1 POP SWAP2 SWAP1 POP JUMP JUMPDEST PUSH1 0x0 DUP4 PUSH20 0xFFFFFFFFFFFFFFFFFFFFFFFFFFFFFFFFFFFFFFFF AND PUSH4 0x150B7A02 PUSH2 0x14D6 PUSH2 0xC6B JUMP JUMPDEST DUP8 DUP7 DUP7 PUSH1 0x40 MLOAD DUP6 PUSH4 0xFFFFFFFF AND PUSH1 0xE0 SHL DUP2 MSTORE PUSH1 0x4 ADD PUSH2 0x14F8 SWAP5 SWAP4 SWAP3 SWAP2 SWAP1 PUSH2 0x1FE9 JUMP JUMPDEST PUSH1 0x20 PUSH1 0x40 MLOAD DUP1 DUP4 SUB DUP2 PUSH1 0x0 DUP8 DUP1 EXTCODESIZE ISZERO DUP1 ISZERO PUSH2 0x1512 JUMPI PUSH1 0x0 DUP1 REVERT JUMPDEST POP GAS CALL SWAP3 POP POP POP DUP1 ISZERO PUSH2 0x1543 JUMPI POP PUSH1 0x40 MLOAD RETURNDATASIZE PUSH1 0x1F NOT PUSH1 0x1F DUP3 ADD AND DUP3 ADD DUP1 PUSH1 0x40 MSTORE POP DUP2 ADD SWAP1 PUSH2 0x1540 SWAP2 SWAP1 PUSH2 0x1E80 JUMP JUMPDEST PUSH1 0x1 JUMPDEST PUSH2 0x15BD JUMPI RETURNDATASIZE DUP1 PUSH1 0x0 DUP2 EQ PUSH2 0x1573 JUMPI PUSH1 0x40 MLOAD SWAP2 POP PUSH1 0x1F NOT PUSH1 0x3F RETURNDATASIZE ADD AND DUP3 ADD PUSH1 0x40 MSTORE RETURNDATASIZE DUP3 MSTORE RETURNDATASIZE PUSH1 0x0 PUSH1 0x20 DUP5 ADD RETURNDATACOPY PUSH2 0x1578 JUMP JUMPDEST PUSH1 0x60 SWAP2 POP JUMPDEST POP PUSH1 0x0 DUP2 MLOAD EQ ISZERO PUSH2 0x15B5 JUMPI PUSH1 0x40 MLOAD PUSH32 0xD1A57ED600000000000000000000000000000000000000000000000000000000 DUP2 MSTORE PUSH1 0x4 ADD PUSH1 0x40 MLOAD DUP1 SWAP2 SUB SWAP1 REVERT JUMPDEST DUP1 MLOAD DUP2 PUSH1 0x20 ADD REVERT JUMPDEST PUSH4 0x150B7A02 PUSH1 0xE0 SHL PUSH28 0xFFFFFFFFFFFFFFFFFFFFFFFFFFFFFFFFFFFFFFFFFFFFFFFFFFFFFFFF NOT AND DUP2 PUSH28 0xFFFFFFFFFFFFFFFFFFFFFFFFFFFFFFFFFFFFFFFFFFFFFFFFFFFFFFFF NOT AND EQ SWAP2 POP POP SWAP5 SWAP4 POP POP POP POP JUMP JUMPDEST PUSH1 0x60 PUSH1 0x40 MLOAD DUP1 PUSH1 0x20 ADD PUSH1 0x40 MSTORE DUP1 PUSH1 0x0 DUP2 MSTORE POP SWAP1 POP SWAP1 JUMP JUMPDEST PUSH1 0x60 PUSH1 0x0 DUP3 EQ ISZERO PUSH2 0x166F JUMPI PUSH1 0x40 MLOAD DUP1 PUSH1 0x40 ADD PUSH1 0x40 MSTORE DUP1 PUSH1 0x1 DUP2 MSTORE PUSH1 0x20 ADD PUSH32 0x3000000000000000000000000000000000000000000000000000000000000000 DUP2 MSTORE POP SWAP1 POP PUSH2 0x1783 JUMP JUMPDEST PUSH1 0x0 DUP3 SWAP1 POP PUSH1 0x0 JUMPDEST PUSH1 0x0 DUP3 EQ PUSH2 0x16A1 JUMPI DUP1 DUP1 PUSH2 0x168A SWAP1 PUSH2 0x22FA JUMP JUMPDEST SWAP2 POP POP PUSH1 0xA DUP3 PUSH2 0x169A SWAP2 SWAP1 PUSH2 0x217C JUMP JUMPDEST SWAP2 POP PUSH2 0x1677 JUMP JUMPDEST PUSH1 0x0 DUP2 PUSH8 0xFFFFFFFFFFFFFFFF DUP2 GT ISZERO PUSH2 0x16BD JUMPI PUSH2 0x16BC PUSH2 0x2430 JUMP JUMPDEST JUMPDEST PUSH1 0x40 MLOAD SWAP1 DUP1 DUP3 MSTORE DUP1 PUSH1 0x1F ADD PUSH1 0x1F NOT AND PUSH1 0x20 ADD DUP3 ADD PUSH1 0x40 MSTORE DUP1 ISZERO PUSH2 0x16EF JUMPI DUP2 PUSH1 0x20 ADD PUSH1 0x1 DUP3 MUL DUP1 CALLDATASIZE DUP4 CALLDATACOPY DUP1 DUP3 ADD SWAP2 POP POP SWAP1 POP JUMPDEST POP SWAP1 POP JUMPDEST PUSH1 0x0 DUP6 EQ PUSH2 0x177C JUMPI PUSH1 0x1 DUP3 PUSH2 0x1708 SWAP2 SWAP1 PUSH2 0x21AD JUMP JUMPDEST SWAP2 POP PUSH1 0xA DUP6 PUSH2 0x1717 SWAP2 SWAP1 PUSH2 0x2343 JUMP JUMPDEST PUSH1 0x30 PUSH2 0x1723 SWAP2 SWAP1 PUSH2 0x2126 JUMP JUMPDEST PUSH1 0xF8 SHL DUP2 DUP4 DUP2 MLOAD DUP2 LT PUSH2 0x1739 JUMPI PUSH2 0x1738 PUSH2 0x2401 JUMP JUMPDEST JUMPDEST PUSH1 0x20 ADD ADD SWAP1 PUSH31 0xFFFFFFFFFFFFFFFFFFFFFFFFFFFFFFFFFFFFFFFFFFFFFFFFFFFFFFFFFFFFFF NOT AND SWAP1 DUP2 PUSH1 0x0 BYTE SWAP1 MSTORE8 POP PUSH1 0xA DUP6 PUSH2 0x1775 SWAP2 SWAP1 PUSH2 0x217C JUMP JUMPDEST SWAP5 POP PUSH2 0x16F3 JUMP JUMPDEST DUP1 SWAP4 POP POP POP POP JUMPDEST SWAP2 SWAP1 POP JUMP JUMPDEST POP POP POP POP JUMP JUMPDEST POP POP POP POP JUMP JUMPDEST PUSH2 0x17A1 DUP4 DUP4 DUP4 PUSH1 0x1 PUSH2 0x17A6 JUMP JUMPDEST POP POP POP JUMP JUMPDEST PUSH1 0x0 DUP1 SLOAD SWAP1 POP PUSH1 0x0 PUSH20 0xFFFFFFFFFFFFFFFFFFFFFFFFFFFFFFFFFFFFFFFF AND DUP6 PUSH20 0xFFFFFFFFFFFFFFFFFFFFFFFFFFFFFFFFFFFFFFFF AND EQ ISZERO PUSH2 0x1813 JUMPI PUSH1 0x40 MLOAD PUSH32 0x2E07630000000000000000000000000000000000000000000000000000000000 DUP2 MSTORE PUSH1 0x4 ADD PUSH1 0x40 MLOAD DUP1 SWAP2 SUB SWAP1 REVERT JUMPDEST PUSH1 0x0 DUP5 EQ ISZERO PUSH2 0x184E JUMPI PUSH1 0x40 MLOAD PUSH32 0xB562E8DD00000000000000000000000000000000000000000000000000000000 DUP2 MSTORE PUSH1 0x4 ADD PUSH1 0x40 MLOAD DUP1 SWAP2 SUB SWAP1 REVERT JUMPDEST PUSH2 0x185B PUSH1 0x0 DUP7 DUP4 DUP8 PUSH2 0x1788 JUMP JUMPDEST DUP4 PUSH1 0x5 PUSH1 0x0 DUP8 PUSH20 0xFFFFFFFFFFFFFFFFFFFFFFFFFFFFFFFFFFFFFFFF AND PUSH20 0xFFFFFFFFFFFFFFFFFFFFFFFFFFFFFFFFFFFFFFFF AND DUP2 MSTORE PUSH1 0x20 ADD SWAP1 DUP2 MSTORE PUSH1 0x20 ADD PUSH1 0x0 KECCAK256 PUSH1 0x0 ADD PUSH1 0x0 DUP3 DUP3 DUP3 SWAP1 SLOAD SWAP1 PUSH2 0x100 EXP SWAP1 DIV PUSH8 0xFFFFFFFFFFFFFFFF AND ADD SWAP3 POP PUSH2 0x100 EXP DUP2 SLOAD DUP2 PUSH8 0xFFFFFFFFFFFFFFFF MUL NOT AND SWAP1 DUP4 PUSH8 0xFFFFFFFFFFFFFFFF AND MUL OR SWAP1 SSTORE POP DUP4 PUSH1 0x5 PUSH1 0x0 DUP8 PUSH20 0xFFFFFFFFFFFFFFFFFFFFFFFFFFFFFFFFFFFFFFFF AND PUSH20 0xFFFFFFFFFFFFFFFFFFFFFFFFFFFFFFFFFFFFFFFF AND DUP2 MSTORE PUSH1 0x20 ADD SWAP1 DUP2 MSTORE PUSH1 0x20 ADD PUSH1 0x0 KECCAK256 PUSH1 0x0 ADD PUSH1 0x8 DUP3 DUP3 DUP3 SWAP1 SLOAD SWAP1 PUSH2 0x100 EXP SWAP1 DIV PUSH8 0xFFFFFFFFFFFFFFFF AND ADD SWAP3 POP PUSH2 0x100 EXP DUP2 SLOAD DUP2 PUSH8 0xFFFFFFFFFFFFFFFF MUL NOT AND SWAP1 DUP4 PUSH8 0xFFFFFFFFFFFFFFFF AND MUL OR SWAP1 SSTORE POP DUP5 PUSH1 0x4 PUSH1 0x0 DUP4 DUP2 MSTORE PUSH1 0x20 ADD SWAP1 DUP2 MSTORE PUSH1 0x20 ADD PUSH1 0x0 KECCAK256 PUSH1 0x0 ADD PUSH1 0x0 PUSH2 0x100 EXP DUP2 SLOAD DUP2 PUSH20 0xFFFFFFFFFFFFFFFFFFFFFFFFFFFFFFFFFFFFFFFF MUL NOT AND SWAP1 DUP4 PUSH20 0xFFFFFFFFFFFFFFFFFFFFFFFFFFFFFFFFFFFFFFFF AND MUL OR SWAP1 SSTORE POP TIMESTAMP PUSH1 0x4 PUSH1 0x0 DUP4 DUP2 MSTORE PUSH1 0x20 ADD SWAP1 DUP2 MSTORE PUSH1 0x20 ADD PUSH1 0x0 KECCAK256 PUSH1 0x0 ADD PUSH1 0x14 PUSH2 0x100 EXP DUP2 SLOAD DUP2 PUSH8 0xFFFFFFFFFFFFFFFF MUL NOT AND SWAP1 DUP4 PUSH8 0xFFFFFFFFFFFFFFFF AND MUL OR SWAP1 SSTORE POP PUSH1 0x0 DUP2 SWAP1 POP PUSH1 0x0 DUP6 DUP3 ADD SWAP1 POP DUP4 DUP1 ISZERO PUSH2 0x1A25 JUMPI POP PUSH2 0x1A24 DUP8 PUSH20 0xFFFFFFFFFFFFFFFFFFFFFFFFFFFFFFFFFFFFFFFF AND PUSH2 0x148D JUMP JUMPDEST JUMPDEST ISZERO PUSH2 0x1AEB JUMPI JUMPDEST DUP2 DUP8 PUSH20 0xFFFFFFFFFFFFFFFFFFFFFFFFFFFFFFFFFFFFFFFF AND PUSH1 0x0 PUSH20 0xFFFFFFFFFFFFFFFFFFFFFFFFFFFFFFFFFFFFFFFF AND PUSH32 0xDDF252AD1BE2C89B69C2B068FC378DAA952BA7F163C4A11628F55A4DF523B3EF PUSH1 0x40 MLOAD PUSH1 0x40 MLOAD DUP1 SWAP2 SUB SWAP1 LOG4 PUSH2 0x1A9A PUSH1 0x0 DUP9 DUP5 DUP1 PUSH1 0x1 ADD SWAP6 POP DUP9 PUSH2 0x14B0 JUMP JUMPDEST PUSH2 0x1AD0 JUMPI PUSH1 0x40 MLOAD PUSH32 0xD1A57ED600000000000000000000000000000000000000000000000000000000 DUP2 MSTORE PUSH1 0x4 ADD PUSH1 0x40 MLOAD DUP1 SWAP2 SUB SWAP1 REVERT JUMPDEST DUP1 DUP3 EQ ISZERO PUSH2 0x1A2B JUMPI DUP3 PUSH1 0x0 SLOAD EQ PUSH2 0x1AE6 JUMPI PUSH1 0x0 DUP1 REVERT JUMPDEST PUSH2 0x1B57 JUMP JUMPDEST JUMPDEST DUP2 DUP1 PUSH1 0x1 ADD SWAP3 POP DUP8 PUSH20 0xFFFFFFFFFFFFFFFFFFFFFFFFFFFFFFFFFFFFFFFF AND PUSH1 0x0 PUSH20 0xFFFFFFFFFFFFFFFFFFFFFFFFFFFFFFFFFFFFFFFF AND PUSH32 0xDDF252AD1BE2C89B69C2B068FC378DAA952BA7F163C4A11628F55A4DF523B3EF PUSH1 0x40 MLOAD PUSH1 0x40 MLOAD DUP1 SWAP2 SUB SWAP1 LOG4 DUP1 DUP3 EQ ISZERO PUSH2 0x1AEC JUMPI JUMPDEST DUP2 PUSH1 0x0 DUP2 SWAP1 SSTORE POP POP POP PUSH2 0x1B6D PUSH1 0x0 DUP7 DUP4 DUP8 PUSH2 0x178E JUMP JUMPDEST POP POP POP POP POP JUMP JUMPDEST PUSH1 0x40 MLOAD DUP1 PUSH1 0x60 ADD PUSH1 0x40 MSTORE DUP1 PUSH1 0x0 PUSH20 0xFFFFFFFFFFFFFFFFFFFFFFFFFFFFFFFFFFFFFFFF AND DUP2 MSTORE PUSH1 0x20 ADD PUSH1 0x0 PUSH8 0xFFFFFFFFFFFFFFFF AND DUP2 MSTORE PUSH1 0x20 ADD PUSH1 0x0 ISZERO ISZERO DUP2 MSTORE POP SWAP1 JUMP JUMPDEST PUSH1 0x0 PUSH2 0x1BCA PUSH2 0x1BC5 DUP5 PUSH2 0x20B2 JUMP JUMPDEST PUSH2 0x208D JUMP JUMPDEST SWAP1 POP DUP3 DUP2 MSTORE PUSH1 0x20 DUP2 ADD DUP5 DUP5 DUP5 ADD GT ISZERO PUSH2 0x1BE6 JUMPI PUSH2 0x1BE5 PUSH2 0x2464 JUMP JUMPDEST JUMPDEST PUSH2 0x1BF1 DUP5 DUP3 DUP6 PUSH2 0x2255 JUMP JUMPDEST POP SWAP4 SWAP3 POP POP POP JUMP JUMPDEST PUSH1 0x0 DUP2 CALLDATALOAD SWAP1 POP PUSH2 0x1C08 DUP2 PUSH2 0x2484 JUMP JUMPDEST SWAP3 SWAP2 POP POP JUMP JUMPDEST PUSH1 0x0 DUP2 CALLDATALOAD SWAP1 POP PUSH2 0x1C1D DUP2 PUSH2 0x249B JUMP JUMPDEST SWAP3 SWAP2 POP POP JUMP JUMPDEST PUSH1 0x0 DUP2 CALLDATALOAD SWAP1 POP PUSH2 0x1C32 DUP2 PUSH2 0x24B2 JUMP JUMPDEST SWAP3 SWAP2 POP POP JUMP JUMPDEST PUSH1 0x0 DUP2 MLOAD SWAP1 POP PUSH2 0x1C47 DUP2 PUSH2 0x24B2 JUMP JUMPDEST SWAP3 SWAP2 POP POP JUMP JUMPDEST PUSH1 0x0 DUP3 PUSH1 0x1F DUP4 ADD SLT PUSH2 0x1C62 JUMPI PUSH2 0x1C61 PUSH2 0x245F JUMP JUMPDEST JUMPDEST DUP2 CALLDATALOAD PUSH2 0x1C72 DUP5 DUP3 PUSH1 0x20 DUP7 ADD PUSH2 0x1BB7 JUMP JUMPDEST SWAP2 POP POP SWAP3 SWAP2 POP POP JUMP JUMPDEST PUSH1 0x0 DUP2 CALLDATALOAD SWAP1 POP PUSH2 0x1C8A DUP2 PUSH2 0x24C9 JUMP JUMPDEST SWAP3 SWAP2 POP POP JUMP JUMPDEST PUSH1 0x0 PUSH1 0x20 DUP3 DUP5 SUB SLT ISZERO PUSH2 0x1CA6 JUMPI PUSH2 0x1CA5 PUSH2 0x246E JUMP JUMPDEST JUMPDEST PUSH1 0x0 PUSH2 0x1CB4 DUP5 DUP3 DUP6 ADD PUSH2 0x1BF9 JUMP JUMPDEST SWAP2 POP POP SWAP3 SWAP2 POP POP JUMP JUMPDEST PUSH1 0x0 DUP1 PUSH1 0x40 DUP4 DUP6 SUB SLT ISZERO PUSH2 0x1CD4 JUMPI PUSH2 0x1CD3 PUSH2 0x246E JUMP JUMPDEST JUMPDEST PUSH1 0x0 PUSH2 0x1CE2 DUP6 DUP3 DUP7 ADD PUSH2 0x1BF9 JUMP JUMPDEST SWAP3 POP POP PUSH1 0x20 PUSH2 0x1CF3 DUP6 DUP3 DUP7 ADD PUSH2 0x1BF9 JUMP JUMPDEST SWAP2 POP POP SWAP3 POP SWAP3 SWAP1 POP JUMP JUMPDEST PUSH1 0x0 DUP1 PUSH1 0x0 PUSH1 0x60 DUP5 DUP7 SUB SLT ISZERO PUSH2 0x1D16 JUMPI PUSH2 0x1D15 PUSH2 0x246E JUMP JUMPDEST JUMPDEST PUSH1 0x0 PUSH2 0x1D24 DUP7 DUP3 DUP8 ADD PUSH2 0x1BF9 JUMP JUMPDEST SWAP4 POP POP PUSH1 0x20 PUSH2 0x1D35 DUP7 DUP3 DUP8 ADD PUSH2 0x1BF9 JUMP JUMPDEST SWAP3 POP POP PUSH1 0x40 PUSH2 0x1D46 DUP7 DUP3 DUP8 ADD PUSH2 0x1C7B JUMP JUMPDEST SWAP2 POP POP SWAP3 POP SWAP3 POP SWAP3 JUMP JUMPDEST PUSH1 0x0 DUP1 PUSH1 0x0 DUP1 PUSH1 0x80 DUP6 DUP8 SUB SLT ISZERO PUSH2 0x1D6A JUMPI PUSH2 0x1D69 PUSH2 0x246E JUMP JUMPDEST JUMPDEST PUSH1 0x0 PUSH2 0x1D78 DUP8 DUP3 DUP9 ADD PUSH2 0x1BF9 JUMP JUMPDEST SWAP5 POP POP PUSH1 0x20 PUSH2 0x1D89 DUP8 DUP3 DUP9 ADD PUSH2 0x1BF9 JUMP JUMPDEST SWAP4 POP POP PUSH1 0x40 PUSH2 0x1D9A DUP8 DUP3 DUP9 ADD PUSH2 0x1C7B JUMP JUMPDEST SWAP3 POP POP PUSH1 0x60 DUP6 ADD CALLDATALOAD PUSH8 0xFFFFFFFFFFFFFFFF DUP2 GT ISZERO PUSH2 0x1DBB JUMPI PUSH2 0x1DBA PUSH2 0x2469 JUMP JUMPDEST JUMPDEST PUSH2 0x1DC7 DUP8 DUP3 DUP9 ADD PUSH2 0x1C4D JUMP JUMPDEST SWAP2 POP POP SWAP3 SWAP6 SWAP2 SWAP5 POP SWAP3 POP JUMP JUMPDEST PUSH1 0x0 DUP1 PUSH1 0x40 DUP4 DUP6 SUB SLT ISZERO PUSH2 0x1DEA JUMPI PUSH2 0x1DE9 PUSH2 0x246E JUMP JUMPDEST JUMPDEST PUSH1 0x0 PUSH2 0x1DF8 DUP6 DUP3 DUP7 ADD PUSH2 0x1BF9 JUMP JUMPDEST SWAP3 POP POP PUSH1 0x20 PUSH2 0x1E09 DUP6 DUP3 DUP7 ADD PUSH2 0x1C0E JUMP JUMPDEST SWAP2 POP POP SWAP3 POP SWAP3 SWAP1 POP JUMP JUMPDEST PUSH1 0x0 DUP1 PUSH1 0x40 DUP4 DUP6 SUB SLT ISZERO PUSH2 0x1E2A JUMPI PUSH2 0x1E29 PUSH2 0x246E JUMP JUMPDEST JUMPDEST PUSH1 0x0 PUSH2 0x1E38 DUP6 DUP3 DUP7 ADD PUSH2 0x1BF9 JUMP JUMPDEST SWAP3 POP POP PUSH1 0x20 PUSH2 0x1E49 DUP6 DUP3 DUP7 ADD PUSH2 0x1C7B JUMP JUMPDEST SWAP2 POP POP SWAP3 POP SWAP3 SWAP1 POP JUMP JUMPDEST PUSH1 0x0 PUSH1 0x20 DUP3 DUP5 SUB SLT ISZERO PUSH2 0x1E69 JUMPI PUSH2 0x1E68 PUSH2 0x246E JUMP JUMPDEST JUMPDEST PUSH1 0x0 PUSH2 0x1E77 DUP5 DUP3 DUP6 ADD PUSH2 0x1C23 JUMP JUMPDEST SWAP2 POP POP SWAP3 SWAP2 POP POP JUMP JUMPDEST PUSH1 0x0 PUSH1 0x20 DUP3 DUP5 SUB SLT ISZERO PUSH2 0x1E96 JUMPI PUSH2 0x1E95 PUSH2 0x246E JUMP JUMPDEST JUMPDEST PUSH1 0x0 PUSH2 0x1EA4 DUP5 DUP3 DUP6 ADD PUSH2 0x1C38 JUMP JUMPDEST SWAP2 POP POP SWAP3 SWAP2 POP POP JUMP JUMPDEST PUSH1 0x0 PUSH1 0x20 DUP3 DUP5 SUB SLT ISZERO PUSH2 0x1EC3 JUMPI PUSH2 0x1EC2 PUSH2 0x246E JUMP JUMPDEST JUMPDEST PUSH1 0x0 PUSH2 0x1ED1 DUP5 DUP3 DUP6 ADD PUSH2 0x1C7B JUMP JUMPDEST SWAP2 POP POP SWAP3 SWAP2 POP POP JUMP JUMPDEST PUSH2 0x1EE3 DUP2 PUSH2 0x21E1 JUMP JUMPDEST DUP3 MSTORE POP POP JUMP JUMPDEST PUSH2 0x1EF2 DUP2 PUSH2 0x21F3 JUMP JUMPDEST DUP3 MSTORE POP POP JUMP JUMPDEST PUSH1 0x0 PUSH2 0x1F03 DUP3 PUSH2 0x20E3 JUMP JUMPDEST PUSH2 0x1F0D DUP2 DUP6 PUSH2 0x20F9 JUMP JUMPDEST SWAP4 POP PUSH2 0x1F1D DUP2 DUP6 PUSH1 0x20 DUP7 ADD PUSH2 0x2264 JUMP JUMPDEST PUSH2 0x1F26 DUP2 PUSH2 0x2473 JUMP JUMPDEST DUP5 ADD SWAP2 POP POP SWAP3 SWAP2 POP POP JUMP JUMPDEST PUSH1 0x0 PUSH2 0x1F3C DUP3 PUSH2 0x20EE JUMP JUMPDEST PUSH2 0x1F46 DUP2 DUP6 PUSH2 0x210A JUMP JUMPDEST SWAP4 POP PUSH2 0x1F56 DUP2 DUP6 PUSH1 0x20 DUP7 ADD PUSH2 0x2264 JUMP JUMPDEST PUSH2 0x1F5F DUP2 PUSH2 0x2473 JUMP JUMPDEST DUP5 ADD SWAP2 POP POP SWAP3 SWAP2 POP POP JUMP JUMPDEST PUSH1 0x0 PUSH2 0x1F75 DUP3 PUSH2 0x20EE JUMP JUMPDEST PUSH2 0x1F7F DUP2 DUP6 PUSH2 0x211B JUMP JUMPDEST SWAP4 POP PUSH2 0x1F8F DUP2 DUP6 PUSH1 0x20 DUP7 ADD PUSH2 0x2264 JUMP JUMPDEST DUP1 DUP5 ADD SWAP2 POP POP SWAP3 SWAP2 POP POP JUMP JUMPDEST PUSH2 0x1FA4 DUP2 PUSH2 0x224B JUMP JUMPDEST DUP3 MSTORE POP POP JUMP JUMPDEST PUSH1 0x0 PUSH2 0x1FB6 DUP3 DUP6 PUSH2 0x1F6A JUMP JUMPDEST SWAP2 POP PUSH2 0x1FC2 DUP3 DUP5 PUSH2 0x1F6A JUMP JUMPDEST SWAP2 POP DUP2 SWAP1 POP SWAP4 SWAP3 POP POP POP JUMP JUMPDEST PUSH1 0x0 PUSH1 0x20 DUP3 ADD SWAP1 POP PUSH2 0x1FE3 PUSH1 0x0 DUP4 ADD DUP5 PUSH2 0x1EDA JUMP JUMPDEST SWAP3 SWAP2 POP POP JUMP JUMPDEST PUSH1 0x0 PUSH1 0x80 DUP3 ADD SWAP1 POP PUSH2 0x1FFE PUSH1 0x0 DUP4 ADD DUP8 PUSH2 0x1EDA JUMP JUMPDEST PUSH2 0x200B PUSH1 0x20 DUP4 ADD DUP7 PUSH2 0x1EDA JUMP JUMPDEST PUSH2 0x2018 PUSH1 0x40 DUP4 ADD DUP6 PUSH2 0x1F9B JUMP JUMPDEST DUP2 DUP2 SUB PUSH1 0x60 DUP4 ADD MSTORE PUSH2 0x202A DUP2 DUP5 PUSH2 0x1EF8 JUMP JUMPDEST SWAP1 POP SWAP6 SWAP5 POP POP POP POP POP JUMP JUMPDEST PUSH1 0x0 PUSH1 0x20 DUP3 ADD SWAP1 POP PUSH2 0x204A PUSH1 0x0 DUP4 ADD DUP5 PUSH2 0x1EE9 JUMP JUMPDEST SWAP3 SWAP2 POP POP JUMP JUMPDEST PUSH1 0x0 PUSH1 0x20 DUP3 ADD SWAP1 POP DUP2 DUP2 SUB PUSH1 0x0 DUP4 ADD MSTORE PUSH2 0x206A DUP2 DUP5 PUSH2 0x1F31 JUMP JUMPDEST SWAP1 POP SWAP3 SWAP2 POP POP JUMP JUMPDEST PUSH1 0x0 PUSH1 0x20 DUP3 ADD SWAP1 POP PUSH2 0x2087 PUSH1 0x0 DUP4 ADD DUP5 PUSH2 0x1F9B JUMP JUMPDEST SWAP3 SWAP2 POP POP JUMP JUMPDEST PUSH1 0x0 PUSH2 0x2097 PUSH2 0x20A8 JUMP JUMPDEST SWAP1 POP PUSH2 0x20A3 DUP3 DUP3 PUSH2 0x22C9 JUMP JUMPDEST SWAP2 SWAP1 POP JUMP JUMPDEST PUSH1 0x0 PUSH1 0x40 MLOAD SWAP1 POP SWAP1 JUMP JUMPDEST PUSH1 0x0 PUSH8 0xFFFFFFFFFFFFFFFF DUP3 GT ISZERO PUSH2 0x20CD JUMPI PUSH2 0x20CC PUSH2 0x2430 JUMP JUMPDEST JUMPDEST PUSH2 0x20D6 DUP3 PUSH2 0x2473 JUMP JUMPDEST SWAP1 POP PUSH1 0x20 DUP2 ADD SWAP1 POP SWAP2 SWAP1 POP JUMP JUMPDEST PUSH1 0x0 DUP2 MLOAD SWAP1 POP SWAP2 SWAP1 POP JUMP JUMPDEST PUSH1 0x0 DUP2 MLOAD SWAP1 POP SWAP2 SWAP1 POP JUMP JUMPDEST PUSH1 0x0 DUP3 DUP3 MSTORE PUSH1 0x20 DUP3 ADD SWAP1 POP SWAP3 SWAP2 POP POP JUMP JUMPDEST PUSH1 0x0 DUP3 DUP3 MSTORE PUSH1 0x20 DUP3 ADD SWAP1 POP SWAP3 SWAP2 POP POP JUMP JUMPDEST PUSH1 0x0 DUP2 SWAP1 POP SWAP3 SWAP2 POP POP JUMP JUMPDEST PUSH1 0x0 PUSH2 0x2131 DUP3 PUSH2 0x224B JUMP JUMPDEST SWAP2 POP PUSH2 0x213C DUP4 PUSH2 0x224B JUMP JUMPDEST SWAP3 POP DUP3 PUSH32 0xFFFFFFFFFFFFFFFFFFFFFFFFFFFFFFFFFFFFFFFFFFFFFFFFFFFFFFFFFFFFFFFF SUB DUP3 GT ISZERO PUSH2 0x2171 JUMPI PUSH2 0x2170 PUSH2 0x2374 JUMP JUMPDEST JUMPDEST DUP3 DUP3 ADD SWAP1 POP SWAP3 SWAP2 POP POP JUMP JUMPDEST PUSH1 0x0 PUSH2 0x2187 DUP3 PUSH2 0x224B JUMP JUMPDEST SWAP2 POP PUSH2 0x2192 DUP4 PUSH2 0x224B JUMP JUMPDEST SWAP3 POP DUP3 PUSH2 0x21A2 JUMPI PUSH2 0x21A1 PUSH2 0x23A3 JUMP JUMPDEST JUMPDEST DUP3 DUP3 DIV SWAP1 POP SWAP3 SWAP2 POP POP JUMP JUMPDEST PUSH1 0x0 PUSH2 0x21B8 DUP3 PUSH2 0x224B JUMP JUMPDEST SWAP2 POP PUSH2 0x21C3 DUP4 PUSH2 0x224B JUMP JUMPDEST SWAP3 POP DUP3 DUP3 LT ISZERO PUSH2 0x21D6 JUMPI PUSH2 0x21D5 PUSH2 0x2374 JUMP JUMPDEST JUMPDEST DUP3 DUP3 SUB SWAP1 POP SWAP3 SWAP2 POP POP JUMP JUMPDEST PUSH1 0x0 PUSH2 0x21EC DUP3 PUSH2 0x222B JUMP JUMPDEST SWAP1 POP SWAP2 SWAP1 POP JUMP JUMPDEST PUSH1 0x0 DUP2 ISZERO ISZERO SWAP1 POP SWAP2 SWAP1 POP JUMP JUMPDEST PUSH1 0x0 PUSH32 0xFFFFFFFF00000000000000000000000000000000000000000000000000000000 DUP3 AND SWAP1 POP SWAP2 SWAP1 POP JUMP JUMPDEST PUSH1 0x0 PUSH20 0xFFFFFFFFFFFFFFFFFFFFFFFFFFFFFFFFFFFFFFFF DUP3 AND SWAP1 POP SWAP2 SWAP1 POP JUMP JUMPDEST PUSH1 0x0 DUP2 SWAP1 POP SWAP2 SWAP1 POP JUMP JUMPDEST DUP3 DUP2 DUP4 CALLDATACOPY PUSH1 0x0 DUP4 DUP4 ADD MSTORE POP POP POP JUMP JUMPDEST PUSH1 0x0 JUMPDEST DUP4 DUP2 LT ISZERO PUSH2 0x2282 JUMPI DUP1 DUP3 ADD MLOAD DUP2 DUP5 ADD MSTORE PUSH1 0x20 DUP2 ADD SWAP1 POP PUSH2 0x2267 JUMP JUMPDEST DUP4 DUP2 GT ISZERO PUSH2 0x2291 JUMPI PUSH1 0x0 DUP5 DUP5 ADD MSTORE JUMPDEST POP POP POP POP JUMP JUMPDEST PUSH1 0x0 PUSH1 0x2 DUP3 DIV SWAP1 POP PUSH1 0x1 DUP3 AND DUP1 PUSH2 0x22AF JUMPI PUSH1 0x7F DUP3 AND SWAP2 POP JUMPDEST PUSH1 0x20 DUP3 LT DUP2 EQ ISZERO PUSH2 0x22C3 JUMPI PUSH2 0x22C2 PUSH2 0x23D2 JUMP JUMPDEST JUMPDEST POP SWAP2 SWAP1 POP JUMP JUMPDEST PUSH2 0x22D2 DUP3 PUSH2 0x2473 JUMP JUMPDEST DUP2 ADD DUP2 DUP2 LT PUSH8 0xFFFFFFFFFFFFFFFF DUP3 GT OR ISZERO PUSH2 0x22F1 JUMPI PUSH2 0x22F0 PUSH2 0x2430 JUMP JUMPDEST JUMPDEST DUP1 PUSH1 0x40 MSTORE POP POP POP JUMP JUMPDEST PUSH1 0x0 PUSH2 0x2305 DUP3 PUSH2 0x224B JUMP JUMPDEST SWAP2 POP PUSH32 0xFFFFFFFFFFFFFFFFFFFFFFFFFFFFFFFFFFFFFFFFFFFFFFFFFFFFFFFFFFFFFFFF DUP3 EQ ISZERO PUSH2 0x2338 JUMPI PUSH2 0x2337 PUSH2 0x2374 JUMP JUMPDEST JUMPDEST PUSH1 0x1 DUP3 ADD SWAP1 POP SWAP2 SWAP1 POP JUMP JUMPDEST PUSH1 0x0 PUSH2 0x234E DUP3 PUSH2 0x224B JUMP JUMPDEST SWAP2 POP PUSH2 0x2359 DUP4 PUSH2 0x224B JUMP JUMPDEST SWAP3 POP DUP3 PUSH2 0x2369 JUMPI PUSH2 0x2368 PUSH2 0x23A3 JUMP JUMPDEST JUMPDEST DUP3 DUP3 MOD SWAP1 POP SWAP3 SWAP2 POP POP JUMP JUMPDEST PUSH32 0x4E487B7100000000000000000000000000000000000000000000000000000000 PUSH1 0x0 MSTORE PUSH1 0x11 PUSH1 0x4 MSTORE PUSH1 0x24 PUSH1 0x0 REVERT JUMPDEST PUSH32 0x4E487B7100000000000000000000000000000000000000000000000000000000 PUSH1 0x0 MSTORE PUSH1 0x12 PUSH1 0x4 MSTORE PUSH1 0x24 PUSH1 0x0 REVERT JUMPDEST PUSH32 0x4E487B7100000000000000000000000000000000000000000000000000000000 PUSH1 0x0 MSTORE PUSH1 0x22 PUSH1 0x4 MSTORE PUSH1 0x24 PUSH1 0x0 REVERT JUMPDEST PUSH32 0x4E487B7100000000000000000000000000000000000000000000000000000000 PUSH1 0x0 MSTORE PUSH1 0x32 PUSH1 0x4 MSTORE PUSH1 0x24 PUSH1 0x0 REVERT JUMPDEST PUSH32 0x4E487B7100000000000000000000000000000000000000000000000000000000 PUSH1 0x0 MSTORE PUSH1 0x41 PUSH1 0x4 MSTORE PUSH1 0x24 PUSH1 0x0 REVERT JUMPDEST PUSH1 0x0 DUP1 REVERT JUMPDEST PUSH1 0x0 DUP1 REVERT JUMPDEST PUSH1 0x0 DUP1 REVERT JUMPDEST PUSH1 0x0 DUP1 REVERT JUMPDEST PUSH1 0x0 PUSH1 0x1F NOT PUSH1 0x1F DUP4 ADD AND SWAP1 POP SWAP2 SWAP1 POP JUMP JUMPDEST PUSH2 0x248D DUP2 PUSH2 0x21E1 JUMP JUMPDEST DUP2 EQ PUSH2 0x2498 JUMPI PUSH1 0x0 DUP1 REVERT JUMPDEST POP JUMP JUMPDEST PUSH2 0x24A4 DUP2 PUSH2 0x21F3 JUMP JUMPDEST DUP2 EQ PUSH2 0x24AF JUMPI PUSH1 0x0 DUP1 REVERT JUMPDEST POP JUMP JUMPDEST PUSH2 0x24BB DUP2 PUSH2 0x21FF JUMP JUMPDEST DUP2 EQ PUSH2 0x24C6 JUMPI PUSH1 0x0 DUP1 REVERT JUMPDEST POP JUMP JUMPDEST PUSH2 0x24D2 DUP2 PUSH2 0x224B JUMP JUMPDEST DUP2 EQ PUSH2 0x24DD JUMPI PUSH1 0x0 DUP1 REVERT JUMPDEST POP JUMP INVALID LOG2 PUSH5 0x6970667358 0x22 SLT KECCAK256 PUSH6 0xF9F2E6D0B690 DIV 0xB3 PUSH11 0xA5B621B128F81C793B6097 SHR MSIZE 0xC4 0xB7 SWAP14 0xB0 0xD CALLDATACOPY DIFFICULTY SELFDESTRUCT 0x2B PUSH5 0x736F6C6343 STOP ADDMOD SMOD STOP CALLER "
				},
				"gasEstimates": {
					"creation": {
						"codeDepositCost": "1898800",
						"executionCost": "infinite",
						"totalCost": "infinite"
					},
					"external": {
						"approve(address,uint256)": "infinite",
						"balanceOf(address)": "2972",
						"getApproved(uint256)": "7458",
						"isApprovedForAll(address,address)": "infinite",
						"mint(uint256)": "infinite",
						"name()": "infinite",
						"ownerOf(uint256)": "infinite",
						"safeTransferFrom(address,address,uint256)": "infinite",
						"safeTransferFrom(address,address,uint256,bytes)": "infinite",
						"setApprovalForAll(address,bool)": "infinite",
						"supportsInterface(bytes4)": "797",
						"symbol()": "infinite",
						"tokenURI(uint256)": "5628",
						"totalSupply()": "4621",
						"transferFrom(address,address,uint256)": "infinite"
					}
				},
				"methodIdentifiers": {
					"approve(address,uint256)": "095ea7b3",
					"balanceOf(address)": "70a08231",
					"getApproved(uint256)": "081812fc",
					"isApprovedForAll(address,address)": "e985e9c5",
					"mint(uint256)": "a0712d68",
					"name()": "06fdde03",
					"ownerOf(uint256)": "6352211e",
					"safeTransferFrom(address,address,uint256)": "42842e0e",
					"safeTransferFrom(address,address,uint256,bytes)": "b88d4fde",
					"setApprovalForAll(address,bool)": "a22cb465",
					"supportsInterface(bytes4)": "01ffc9a7",
					"symbol()": "95d89b41",
					"tokenURI(uint256)": "c87b56dd",
					"totalSupply()": "18160ddd",
					"transferFrom(address,address,uint256)": "23b872dd"
				}
			},
			"userdoc": {
				"kind": "user",
				"methods": {},
				"version": 1
			}
		}
	}
}